{
  "_format": "hh-sol-artifact-1",
  "contractName": "MasterStation",
  "sourceName": "contracts/develompent/MasterStation.sol",
  "abi": [
    {
      "inputs": [
        {
          "internalType": "address",
          "name": "_defaultAdmin",
          "type": "address"
        },
        {
          "internalType": "address",
          "name": "_chiefAdmin",
          "type": "address"
        }
      ],
      "stateMutability": "nonpayable",
      "type": "constructor"
    },
    {
      "anonymous": false,
      "inputs": [
        {
          "indexed": true,
          "internalType": "string",
          "name": "name",
          "type": "string"
        },
        {
          "indexed": true,
          "internalType": "address",
          "name": "initAdmin",
          "type": "address"
        },
        {
          "indexed": false,
          "internalType": "uint256",
          "name": "timestamp",
          "type": "uint256"
        }
      ],
      "name": "BrandCreated",
      "type": "event"
    },
    {
      "anonymous": false,
      "inputs": [
        {
          "indexed": true,
          "internalType": "string",
          "name": "brandName",
          "type": "string"
        },
        {
          "indexed": true,
          "internalType": "uint8",
          "name": "role",
          "type": "uint8"
        },
        {
          "indexed": true,
          "internalType": "address",
          "name": "account",
          "type": "address"
        },
        {
          "indexed": false,
          "internalType": "address",
          "name": "sender",
          "type": "address"
        }
      ],
      "name": "BrandRoleGranted",
      "type": "event"
    },
    {
      "anonymous": false,
      "inputs": [
        {
          "indexed": true,
          "internalType": "string",
          "name": "brandName",
          "type": "string"
        },
        {
          "indexed": true,
          "internalType": "uint8",
          "name": "role",
          "type": "uint8"
        },
        {
          "indexed": true,
          "internalType": "address",
          "name": "account",
          "type": "address"
        },
        {
          "indexed": false,
          "internalType": "address",
          "name": "sender",
          "type": "address"
        }
      ],
      "name": "BrandRoleRevoked",
      "type": "event"
    },
    {
      "anonymous": false,
      "inputs": [
        {
          "indexed": true,
          "internalType": "address",
          "name": "previousAddress",
          "type": "address"
        },
        {
          "indexed": true,
          "internalType": "address",
          "name": "actualAddress",
          "type": "address"
        }
      ],
      "name": "CBCOINContractSetted",
      "type": "event"
    },
    {
      "anonymous": false,
      "inputs": [
        {
          "indexed": true,
          "internalType": "string",
          "name": "brandName",
          "type": "string"
        },
        {
          "indexed": true,
          "internalType": "address",
          "name": "creator",
          "type": "address"
        },
        {
          "indexed": false,
          "internalType": "uint256",
          "name": "supplyLimit",
          "type": "uint256"
        }
      ],
      "name": "CollectionCreated",
      "type": "event"
    },
    {
      "anonymous": false,
      "inputs": [
        {
          "indexed": true,
          "internalType": "string",
          "name": "brandName",
          "type": "string"
        },
        {
          "indexed": true,
          "internalType": "address",
          "name": "deployer",
          "type": "address"
        },
        {
          "indexed": false,
          "internalType": "uint256",
          "name": "supplyLimit",
          "type": "uint256"
        },
        {
          "indexed": false,
          "internalType": "address",
          "name": "collectionAddress",
          "type": "address"
        }
      ],
      "name": "CollectionDeployed",
      "type": "event"
    },
    {
      "anonymous": false,
      "inputs": [
        {
          "indexed": true,
          "internalType": "string",
          "name": "brandName",
          "type": "string"
        },
        {
          "indexed": true,
          "internalType": "address",
          "name": "collectionAddress",
          "type": "address"
        },
        {
          "indexed": true,
          "internalType": "address",
          "name": "account",
          "type": "address"
        }
      ],
      "name": "CollectionDisabled",
      "type": "event"
    },
    {
      "anonymous": false,
      "inputs": [
        {
          "indexed": true,
          "internalType": "string",
          "name": "brandName",
          "type": "string"
        },
        {
          "indexed": true,
          "internalType": "address",
          "name": "collectionAddress",
          "type": "address"
        },
        {
          "indexed": true,
          "internalType": "address",
          "name": "account",
          "type": "address"
        }
      ],
      "name": "CollectionEnabled",
      "type": "event"
    },
    {
      "anonymous": false,
      "inputs": [
        {
          "indexed": true,
          "internalType": "string",
          "name": "brandName",
          "type": "string"
        },
        {
          "indexed": true,
          "internalType": "address",
          "name": "collectionAddress",
          "type": "address"
        },
        {
          "indexed": true,
          "internalType": "uint8",
          "name": "role",
          "type": "uint8"
        },
        {
          "indexed": false,
          "internalType": "address",
          "name": "account",
          "type": "address"
        },
        {
          "indexed": false,
          "internalType": "address",
          "name": "sender",
          "type": "address"
        }
      ],
      "name": "CollectionRoleGranted",
      "type": "event"
    },
    {
      "anonymous": false,
      "inputs": [
        {
          "indexed": true,
          "internalType": "string",
          "name": "brandName",
          "type": "string"
        },
        {
          "indexed": true,
          "internalType": "address",
          "name": "collectionAddress",
          "type": "address"
        },
        {
          "indexed": true,
          "internalType": "uint8",
          "name": "role",
          "type": "uint8"
        },
        {
          "indexed": false,
          "internalType": "address",
          "name": "account",
          "type": "address"
        },
        {
          "indexed": false,
          "internalType": "address",
          "name": "sender",
          "type": "address"
        }
      ],
      "name": "CollectionRoleRevoked",
      "type": "event"
    },
    {
      "anonymous": false,
      "inputs": [
        {
          "indexed": true,
          "internalType": "address",
          "name": "previousAddress",
          "type": "address"
        },
        {
          "indexed": true,
          "internalType": "address",
          "name": "actualAddress",
          "type": "address"
        }
      ],
      "name": "FactorySetted",
      "type": "event"
    },
    {
      "anonymous": false,
      "inputs": [
        {
          "indexed": true,
          "internalType": "address",
          "name": "previousAddress",
          "type": "address"
        },
        {
          "indexed": true,
          "internalType": "address",
          "name": "actualAddress",
          "type": "address"
        }
      ],
      "name": "PaymentsContractSetted",
      "type": "event"
    },
    {
      "anonymous": false,
      "inputs": [
        {
          "indexed": true,
          "internalType": "uint8",
          "name": "role",
          "type": "uint8"
        },
        {
          "indexed": true,
          "internalType": "address",
          "name": "account",
          "type": "address"
        },
        {
          "indexed": true,
          "internalType": "address",
          "name": "sender",
          "type": "address"
        }
      ],
      "name": "PlatformRoleGranted",
      "type": "event"
    },
    {
      "anonymous": false,
      "inputs": [
        {
          "indexed": true,
          "internalType": "uint8",
          "name": "role",
          "type": "uint8"
        },
        {
          "indexed": true,
          "internalType": "address",
          "name": "account",
          "type": "address"
        },
        {
          "indexed": true,
          "internalType": "address",
          "name": "sender",
          "type": "address"
        }
      ],
      "name": "PlatformRoleRevoked",
      "type": "event"
    },
    {
      "anonymous": false,
      "inputs": [
        {
          "indexed": true,
          "internalType": "address",
          "name": "account",
          "type": "address"
        },
        {
          "indexed": true,
          "internalType": "address",
          "name": "sender",
          "type": "address"
        }
      ],
      "name": "ValidatorRoleGranted",
      "type": "event"
    },
    {
      "anonymous": false,
      "inputs": [
        {
          "indexed": true,
          "internalType": "address",
          "name": "account",
          "type": "address"
        },
        {
          "indexed": true,
          "internalType": "address",
          "name": "sender",
          "type": "address"
        }
      ],
      "name": "ValidatorRoleRevoked",
      "type": "event"
    },
    {
      "inputs": [],
      "name": "BRAND_ADMIN_ROLE",
      "outputs": [
        {
          "internalType": "uint8",
          "name": "",
          "type": "uint8"
        }
      ],
      "stateMutability": "view",
      "type": "function"
    },
    {
      "inputs": [],
      "name": "CBCOIN",
      "outputs": [
        {
          "internalType": "contract IERC20",
          "name": "",
          "type": "address"
        }
      ],
      "stateMutability": "view",
      "type": "function"
    },
    {
      "inputs": [],
      "name": "CHIEF_ADMIN_ROLE",
      "outputs": [
        {
          "internalType": "uint8",
          "name": "",
          "type": "uint8"
        }
      ],
      "stateMutability": "view",
      "type": "function"
    },
    {
      "inputs": [],
      "name": "COLLECTION_ADMIN_ROLE",
      "outputs": [
        {
          "internalType": "uint8",
          "name": "",
          "type": "uint8"
        }
      ],
      "stateMutability": "view",
      "type": "function"
    },
    {
      "inputs": [],
      "name": "DEFAULT_ADMIN_ROLE",
      "outputs": [
        {
          "internalType": "uint8",
          "name": "",
          "type": "uint8"
        }
      ],
      "stateMutability": "view",
      "type": "function"
    },
    {
      "inputs": [],
      "name": "LIST_MODERATOR_ROLE",
      "outputs": [
        {
          "internalType": "uint8",
          "name": "",
          "type": "uint8"
        }
      ],
      "stateMutability": "view",
      "type": "function"
    },
    {
      "inputs": [],
      "name": "PLATFORM_ADMIN_ROLE",
      "outputs": [
        {
          "internalType": "uint8",
          "name": "",
          "type": "uint8"
        }
      ],
      "stateMutability": "view",
      "type": "function"
    },
    {
      "inputs": [
        {
          "internalType": "uint256",
          "name": "",
          "type": "uint256"
        }
      ],
      "name": "brands",
      "outputs": [
        {
          "internalType": "string",
          "name": "",
          "type": "string"
        }
      ],
      "stateMutability": "view",
      "type": "function"
    },
    {
      "inputs": [
        {
          "internalType": "string",
          "name": "_brand",
          "type": "string"
        },
        {
          "internalType": "uint8",
          "name": "_role",
          "type": "uint8"
        },
        {
          "internalType": "address",
          "name": "_account",
          "type": "address"
        }
      ],
      "name": "checkAccessToBrand",
      "outputs": [],
      "stateMutability": "view",
      "type": "function"
    },
    {
      "inputs": [
        {
          "internalType": "string",
          "name": "_brand",
          "type": "string"
        },
        {
          "internalType": "address",
          "name": "_collection",
          "type": "address"
        },
        {
          "internalType": "uint8",
          "name": "_role",
          "type": "uint8"
        },
        {
          "internalType": "address",
          "name": "_account",
          "type": "address"
        }
      ],
      "name": "checkAccessToCollection",
      "outputs": [],
      "stateMutability": "view",
      "type": "function"
    },
    {
      "inputs": [
        {
          "internalType": "uint8",
          "name": "_role",
          "type": "uint8"
        },
        {
          "internalType": "address",
          "name": "_account",
          "type": "address"
        }
      ],
      "name": "checkAccessToPlatform",
      "outputs": [],
      "stateMutability": "view",
      "type": "function"
    },
    {
      "inputs": [
        {
          "internalType": "string",
          "name": "_brand",
          "type": "string"
        },
        {
          "internalType": "address",
          "name": "_collection",
          "type": "address"
        }
      ],
      "name": "checkCollectionByBrand",
      "outputs": [],
      "stateMutability": "view",
      "type": "function"
    },
    {
      "inputs": [
        {
          "components": [
            {
              "internalType": "string",
              "name": "brandName",
              "type": "string"
            },
            {
              "internalType": "address",
              "name": "creator",
              "type": "address"
            },
            {
              "internalType": "uint256",
              "name": "supplyLimit",
              "type": "uint256"
            },
            {
              "internalType": "uint256",
              "name": "paymentAmount",
              "type": "uint256"
            },
            {
              "internalType": "uint256",
              "name": "deadline",
              "type": "uint256"
            },
            {
              "internalType": "uint256",
              "name": "salt",
              "type": "uint256"
            }
          ],
          "internalType": "struct IValidator.CreateCollectionData",
          "name": "_data",
          "type": "tuple"
        },
        {
          "components": [
            {
              "internalType": "uint8",
              "name": "v",
              "type": "uint8"
            },
            {
              "internalType": "bytes32",
              "name": "r",
              "type": "bytes32"
            },
            {
              "internalType": "bytes32",
              "name": "s",
              "type": "bytes32"
            }
          ],
          "internalType": "struct IValidator.Signature[]",
          "name": "_signature",
          "type": "tuple[]"
        }
      ],
      "name": "createCollection",
      "outputs": [],
      "stateMutability": "nonpayable",
      "type": "function"
    },
    {
      "inputs": [
        {
          "internalType": "string",
          "name": "_brand",
          "type": "string"
        },
        {
          "internalType": "uint256",
          "name": "collectionIndex",
          "type": "uint256"
        },
        {
          "components": [
            {
              "internalType": "string",
              "name": "name",
              "type": "string"
            },
            {
              "internalType": "string",
              "name": "symbol",
              "type": "string"
            },
            {
              "internalType": "string",
              "name": "baseURI",
              "type": "string"
            },
            {
              "internalType": "bytes32",
              "name": "whitelist",
              "type": "bytes32"
            },
            {
              "internalType": "bytes32",
              "name": "bookingList",
              "type": "bytes32"
            },
            {
              "internalType": "uint256",
              "name": "publicMintTokensLimit",
              "type": "uint256"
            },
            {
              "internalType": "uint96",
              "name": "earnings",
              "type": "uint96"
            },
            {
              "internalType": "enum ICollectionData.MintStage",
              "name": "mintStage",
              "type": "uint8"
            }
          ],
          "internalType": "struct ICollectionData.CollectionData",
          "name": "_data",
          "type": "tuple"
        }
      ],
      "name": "deployCollection",
      "outputs": [],
      "stateMutability": "nonpayable",
      "type": "function"
    },
    {
      "inputs": [
        {
          "internalType": "string",
          "name": "_brand",
          "type": "string"
        },
        {
          "internalType": "address",
          "name": "_collection",
          "type": "address"
        }
      ],
      "name": "disableCollection",
      "outputs": [],
      "stateMutability": "nonpayable",
      "type": "function"
    },
    {
      "inputs": [
        {
          "internalType": "string",
          "name": "_brand",
          "type": "string"
        },
        {
          "internalType": "address",
          "name": "_collection",
          "type": "address"
        }
      ],
      "name": "enableCollection",
      "outputs": [],
      "stateMutability": "nonpayable",
      "type": "function"
    },
    {
      "inputs": [],
      "name": "factory",
      "outputs": [
        {
          "internalType": "contract IFactory",
          "name": "",
          "type": "address"
        }
      ],
      "stateMutability": "view",
      "type": "function"
    },
    {
      "inputs": [
        {
          "internalType": "string",
          "name": "_brand",
          "type": "string"
        },
        {
          "internalType": "address",
          "name": "_account",
          "type": "address"
        }
      ],
      "name": "grantBrandAdminRole",
      "outputs": [],
      "stateMutability": "nonpayable",
      "type": "function"
    },
    {
      "inputs": [
        {
          "internalType": "string",
          "name": "_brand",
          "type": "string"
        },
        {
          "internalType": "address",
          "name": "_collection",
          "type": "address"
        },
        {
          "internalType": "address",
          "name": "_account",
          "type": "address"
        }
      ],
      "name": "grantCollectionAdminRole",
      "outputs": [],
      "stateMutability": "nonpayable",
      "type": "function"
    },
    {
      "inputs": [
        {
          "internalType": "string",
          "name": "_brand",
          "type": "string"
        },
        {
          "internalType": "address",
          "name": "_collection",
          "type": "address"
        },
        {
          "internalType": "address",
          "name": "_account",
          "type": "address"
        }
      ],
      "name": "grantCollectionModeratorRole",
      "outputs": [],
      "stateMutability": "nonpayable",
      "type": "function"
    },
    {
      "inputs": [
        {
          "internalType": "address",
          "name": "_account",
          "type": "address"
        }
      ],
      "name": "grantPlatformAdminRole",
      "outputs": [],
      "stateMutability": "nonpayable",
      "type": "function"
    },
    {
      "inputs": [
        {
          "internalType": "address",
          "name": "_account",
          "type": "address"
        }
      ],
      "name": "grantValidatorRole",
      "outputs": [],
      "stateMutability": "nonpayable",
      "type": "function"
    },
    {
      "inputs": [
        {
          "internalType": "string",
          "name": "_brand",
          "type": "string"
        },
        {
          "internalType": "uint8",
          "name": "_role",
          "type": "uint8"
        },
        {
          "internalType": "address",
          "name": "_account",
          "type": "address"
        }
      ],
      "name": "hasAccessToBrand",
      "outputs": [
        {
          "internalType": "bool",
          "name": "",
          "type": "bool"
        }
      ],
      "stateMutability": "view",
      "type": "function"
    },
    {
      "inputs": [
        {
          "internalType": "string",
          "name": "_brand",
          "type": "string"
        },
        {
          "internalType": "address",
          "name": "_collection",
          "type": "address"
        },
        {
          "internalType": "uint8",
          "name": "_role",
          "type": "uint8"
        },
        {
          "internalType": "address",
          "name": "_account",
          "type": "address"
        }
      ],
      "name": "hasAccessToCollection",
      "outputs": [
        {
          "internalType": "bool",
          "name": "",
          "type": "bool"
        }
      ],
      "stateMutability": "view",
      "type": "function"
    },
    {
      "inputs": [
        {
          "internalType": "uint8",
          "name": "_role",
          "type": "uint8"
        },
        {
          "internalType": "address",
          "name": "_account",
          "type": "address"
        }
      ],
      "name": "hasAccessToPlatform",
      "outputs": [
        {
          "internalType": "bool",
          "name": "",
          "type": "bool"
        }
      ],
      "stateMutability": "view",
      "type": "function"
    },
    {
      "inputs": [
        {
          "internalType": "string",
          "name": "",
          "type": "string"
        }
      ],
      "name": "isBrandExist",
      "outputs": [
        {
          "internalType": "bool",
          "name": "",
          "type": "bool"
        }
      ],
      "stateMutability": "view",
      "type": "function"
    },
    {
      "inputs": [
        {
          "internalType": "address",
          "name": "",
          "type": "address"
        }
      ],
      "name": "isCollectionEnabled",
      "outputs": [
        {
          "internalType": "bool",
          "name": "",
          "type": "bool"
        }
      ],
      "stateMutability": "view",
      "type": "function"
    },
    {
      "inputs": [
        {
          "internalType": "address",
          "name": "",
          "type": "address"
        }
      ],
      "name": "isValidator",
      "outputs": [
        {
          "internalType": "bool",
          "name": "",
          "type": "bool"
        }
      ],
      "stateMutability": "view",
      "type": "function"
    },
    {
      "inputs": [
        {
          "internalType": "string",
          "name": "_brand",
          "type": "string"
        }
      ],
      "name": "listBrandAdmins",
      "outputs": [
        {
          "internalType": "address[]",
          "name": "",
          "type": "address[]"
        }
      ],
      "stateMutability": "view",
      "type": "function"
    },
    {
      "inputs": [],
      "name": "listBrands",
      "outputs": [
        {
          "internalType": "string[]",
          "name": "",
          "type": "string[]"
        }
      ],
      "stateMutability": "view",
      "type": "function"
    },
    {
      "inputs": [],
      "name": "listChiefAdmins",
      "outputs": [
        {
          "internalType": "address[]",
          "name": "",
          "type": "address[]"
        }
      ],
      "stateMutability": "view",
      "type": "function"
    },
    {
      "inputs": [
        {
          "internalType": "string",
          "name": "_brand",
          "type": "string"
        },
        {
          "internalType": "address",
          "name": "_collection",
          "type": "address"
        }
      ],
      "name": "listCollectionAdmins",
      "outputs": [
        {
          "internalType": "address[]",
          "name": "",
          "type": "address[]"
        }
      ],
      "stateMutability": "view",
      "type": "function"
    },
    {
      "inputs": [
        {
          "internalType": "string",
          "name": "_brand",
          "type": "string"
        },
        {
          "internalType": "address",
          "name": "_collection",
          "type": "address"
        }
      ],
      "name": "listCollectionModerators",
      "outputs": [
        {
          "internalType": "address[]",
          "name": "",
          "type": "address[]"
        }
      ],
      "stateMutability": "view",
      "type": "function"
    },
    {
      "inputs": [
        {
          "internalType": "string",
          "name": "_brand",
          "type": "string"
        }
      ],
      "name": "listCreatedBrandCollections",
      "outputs": [
        {
          "components": [
            {
              "internalType": "address",
              "name": "creator",
              "type": "address"
            },
            {
              "internalType": "uint256",
              "name": "supplyLimit",
              "type": "uint256"
            }
          ],
          "internalType": "struct MasterStation.CreatedCollection[]",
          "name": "",
          "type": "tuple[]"
        }
      ],
      "stateMutability": "view",
      "type": "function"
    },
    {
      "inputs": [],
      "name": "listDefaultAdmins",
      "outputs": [
        {
          "internalType": "address[]",
          "name": "",
          "type": "address[]"
        }
      ],
      "stateMutability": "view",
      "type": "function"
    },
    {
      "inputs": [
        {
          "internalType": "string",
          "name": "_brand",
          "type": "string"
        }
      ],
      "name": "listDeployedBrandCollections",
      "outputs": [
        {
          "internalType": "address[]",
          "name": "",
          "type": "address[]"
        }
      ],
      "stateMutability": "view",
      "type": "function"
    },
    {
      "inputs": [],
      "name": "listPlatformAdmins",
      "outputs": [
        {
          "internalType": "address[]",
          "name": "",
          "type": "address[]"
        }
      ],
      "stateMutability": "view",
      "type": "function"
    },
    {
      "inputs": [],
      "name": "listValidators",
      "outputs": [
        {
          "internalType": "address[]",
          "name": "",
          "type": "address[]"
        }
      ],
      "stateMutability": "view",
      "type": "function"
    },
    {
      "inputs": [],
      "name": "paymentsContract",
      "outputs": [
        {
          "internalType": "contract IPayments",
          "name": "",
          "type": "address"
        }
      ],
      "stateMutability": "view",
      "type": "function"
    },
    {
      "inputs": [
        {
          "components": [
            {
              "internalType": "address",
              "name": "receiver",
              "type": "address"
            },
            {
              "internalType": "address",
              "name": "paymentToken",
              "type": "address"
            },
            {
              "internalType": "uint256",
              "name": "paymentAmount",
              "type": "uint256"
            },
            {
              "internalType": "uint256",
              "name": "amountOfCBCOINToPurchase",
              "type": "uint256"
            },
            {
              "internalType": "uint256",
              "name": "deadline",
              "type": "uint256"
            },
            {
              "internalType": "uint256",
              "name": "salt",
              "type": "uint256"
            }
          ],
          "internalType": "struct IValidator.BuyTokensData",
          "name": "_data",
          "type": "tuple"
        },
        {
          "components": [
            {
              "internalType": "uint8",
              "name": "v",
              "type": "uint8"
            },
            {
              "internalType": "bytes32",
              "name": "r",
              "type": "bytes32"
            },
            {
              "internalType": "bytes32",
              "name": "s",
              "type": "bytes32"
            }
          ],
          "internalType": "struct IValidator.Signature[]",
          "name": "_signature",
          "type": "tuple[]"
        }
      ],
      "name": "purchaseCBCOINWithETH",
      "outputs": [],
      "stateMutability": "payable",
      "type": "function"
    },
    {
      "inputs": [
        {
          "components": [
            {
              "internalType": "address",
              "name": "receiver",
              "type": "address"
            },
            {
              "internalType": "address",
              "name": "paymentToken",
              "type": "address"
            },
            {
              "internalType": "uint256",
              "name": "paymentAmount",
              "type": "uint256"
            },
            {
              "internalType": "uint256",
              "name": "amountOfCBCOINToPurchase",
              "type": "uint256"
            },
            {
              "internalType": "uint256",
              "name": "deadline",
              "type": "uint256"
            },
            {
              "internalType": "uint256",
              "name": "salt",
              "type": "uint256"
            }
          ],
          "internalType": "struct IValidator.BuyTokensData",
          "name": "_data",
          "type": "tuple"
        },
        {
          "components": [
            {
              "internalType": "uint8",
              "name": "v",
              "type": "uint8"
            },
            {
              "internalType": "bytes32",
              "name": "r",
              "type": "bytes32"
            },
            {
              "internalType": "bytes32",
              "name": "s",
              "type": "bytes32"
            }
          ],
          "internalType": "struct IValidator.Signature[]",
          "name": "_signature",
          "type": "tuple[]"
        }
      ],
      "name": "purchaseCBCOINWithToken",
      "outputs": [],
      "stateMutability": "nonpayable",
      "type": "function"
    },
    {
      "inputs": [
        {
          "internalType": "string",
          "name": "_brand",
          "type": "string"
        },
        {
          "internalType": "address",
          "name": "_account",
          "type": "address"
        }
      ],
      "name": "revokeBrandAdminRole",
      "outputs": [],
      "stateMutability": "nonpayable",
      "type": "function"
    },
    {
      "inputs": [
        {
          "internalType": "string",
          "name": "_brand",
          "type": "string"
        },
        {
          "internalType": "address",
          "name": "_collection",
          "type": "address"
        },
        {
          "internalType": "address",
          "name": "_account",
          "type": "address"
        }
      ],
      "name": "revokeCollectionAdminRole",
      "outputs": [],
      "stateMutability": "nonpayable",
      "type": "function"
    },
    {
      "inputs": [
        {
          "internalType": "string",
          "name": "_brand",
          "type": "string"
        },
        {
          "internalType": "address",
          "name": "_collection",
          "type": "address"
        },
        {
          "internalType": "address",
          "name": "_account",
          "type": "address"
        }
      ],
      "name": "revokeCollectionModeratorRole",
      "outputs": [],
      "stateMutability": "nonpayable",
      "type": "function"
    },
    {
      "inputs": [
        {
          "internalType": "address",
          "name": "_account",
          "type": "address"
        }
      ],
      "name": "revokePlatformAdminRole",
      "outputs": [],
      "stateMutability": "nonpayable",
      "type": "function"
    },
    {
      "inputs": [
        {
          "internalType": "address",
          "name": "_account",
          "type": "address"
        }
      ],
      "name": "revokeValidatorRole",
      "outputs": [],
      "stateMutability": "nonpayable",
      "type": "function"
    },
    {
      "inputs": [
        {
          "internalType": "contract IERC20",
          "name": "_cbcoin",
          "type": "address"
        }
      ],
      "name": "setCBCOIN",
      "outputs": [],
      "stateMutability": "nonpayable",
      "type": "function"
    },
    {
      "inputs": [
        {
          "internalType": "contract IFactory",
          "name": "_factory",
          "type": "address"
        }
      ],
      "name": "setFactory",
      "outputs": [],
      "stateMutability": "nonpayable",
      "type": "function"
    },
    {
      "inputs": [
        {
          "internalType": "contract IPayments",
          "name": "_paymentsContract",
          "type": "address"
        }
      ],
      "name": "setPaymentsContract",
      "outputs": [],
      "stateMutability": "nonpayable",
      "type": "function"
    },
    {
      "inputs": [
        {
          "internalType": "address",
          "name": "",
          "type": "address"
        }
      ],
      "name": "validatorIdx",
      "outputs": [
        {
          "internalType": "uint256",
          "name": "",
          "type": "uint256"
        }
      ],
      "stateMutability": "view",
      "type": "function"
    },
    {
      "inputs": [
        {
          "internalType": "uint256",
          "name": "",
          "type": "uint256"
        }
      ],
      "name": "validators",
      "outputs": [
        {
          "internalType": "address",
          "name": "",
          "type": "address"
        }
      ],
      "stateMutability": "view",
      "type": "function"
    },
    {
      "stateMutability": "payable",
      "type": "receive"
    }
  ],
  "bytecode": "0x60806040523480156200001157600080fd5b50604051620088f5380380620088f5833981810160405281019062000037919062000530565b62000053672077ad292509838260c01b6200010760201b60201c565b6200006f677ca564049e9cffea60c01b6200010760201b60201c565b6200008b67b06d86f06deaaa1460c01b6200010760201b60201c565b620000a960ff83600a6200010a60201b62004ac3179092919060201c565b620000c5672ac71186c5f2d83360c01b6200010760201b60201c565b620000e16737292838868b4f6760c01b6200010760201b60201c565b620000ff60e082600a6200010a60201b62004ac3179092919060201c565b5050620005a6565b50565b6200012667a35ca9e41ed6592760c01b6200045a60201b60201c565b62000142670adf71103f81c67760c01b6200045a60201b60201c565b6200015e67b43fcbb0e63cf88d60c01b6200045a60201b60201c565b6200017a67714174f85b7988f060c01b6200045a60201b60201c565b6200018c83826200045d60201b60201c565b15620001cf576040517f08c379a0000000000000000000000000000000000000000000000000000000008152600401620001c69062000568565b60405180910390fd5b620001eb6769ee5a1c0c6eab0160c01b6200045a60201b60201c565b620002076792017ba29fb977cb60c01b6200045a60201b60201c565b818360000160008373ffffffffffffffffffffffffffffffffffffffff1673ffffffffffffffffffffffffffffffffffffffff16815260200190815260200160002060006101000a81548160ff021916908360ff1602179055506200027d6747d645418836ac9d60c01b6200045a60201b60201c565b6200029967ff6129629325835060c01b6200045a60201b60201c565b60008360010160008460ff1660ff1681526020019081526020016000209050620002d467ac6b78950bc6572d60c01b6200045a60201b60201c565b80600001805490508160010160008473ffffffffffffffffffffffffffffffffffffffff1673ffffffffffffffffffffffffffffffffffffffff168152602001908152602001600020819055506200033d678ac3af1dd1c3609960c01b6200045a60201b60201c565b620003596726307401dab536d860c01b6200045a60201b60201c565b80600001829080600181540180825580915050600190039060005260206000200160009091909190916101000a81548173ffffffffffffffffffffffffffffffffffffffff021916908373ffffffffffffffffffffffffffffffffffffffff160217905550620003da6716cf616f4ec0055860c01b6200045a60201b60201c565b620003f667507053d98cf1200b60c01b6200045a60201b60201c565b3373ffffffffffffffffffffffffffffffffffffffff168273ffffffffffffffffffffffffffffffffffffffff168460ff167f570d3756e5b890fbf84c01fc2daf898fa7e95ae3ca9f1ed5edf012eacb5c6ce660405160405180910390a450505050565b50565b60006200047b6708aacea2d6dcb6be60c01b6200045a60201b60201c565b62000497674d93f63aee4b3c3660c01b6200045a60201b60201c565b620004b3677e82d36ff34db18560c01b6200045a60201b60201c565b60008360000160008473ffffffffffffffffffffffffffffffffffffffff1673ffffffffffffffffffffffffffffffffffffffff16815260200190815260200160002060009054906101000a900460ff1660ff1611905092915050565b60008151905060018060a01b03811681146200052b57600080fd5b919050565b600080604083850312156200054457600080fd5b6200054f8362000510565b91506200055f6020840162000510565b90509250929050565b60208152601f60208201527f416363657373436f6e74726f6c3a20416c72656164792068617320726f6c650060408201526000606082019050919050565b61833f80620005b66000396000f3fe6080604052600436106102e85760003560e01c8063685d34ff11610190578063abe7b0e4116100dc578063dd0a4bf811610095578063eebf1bf71161006f578063eebf1bf714610c46578063f350124614610c6f578063facd743b14610c98578063fdcb573214610cd5576103bb565b8063dd0a4bf814610ba1578063df02612f14610bde578063e8dc29e914610c1b576103bb565b8063abe7b0e414610a7f578063ae2924e114610aa8578063b2df599814610ad3578063c45a015514610b10578063d4cf70ea14610b3b578063dbbd449b14610b78576103bb565b80637a4d3e5f116101495780638e79a295116101235780638e79a295146109c55780638ed42f6d146109ee5780638fed8e9314610a17578063a217fddf14610a54576103bb565b80637a4d3e5f1461095557806387d3d5c6146109805780638ae647df1461099c576103bb565b8063685d34ff1461084757806368d4e544146108725780636d06b1631461089d578063715dbfb3146108da578063716e7d7614610903578063731757651461092c576103bb565b8063292b007a1161024f5780633e19d259116102085780635a054785116101e25780635a054785146107a15780635bb47808146107ca5780635e65a894146107f35780636795d7c11461081c576103bb565b80633e19d25914610710578063460010c41461073b57806347cbe2f414610778576103bb565b8063292b007a14610600578063295142041461062957806335742d741461065257806335aa2e441461067d57806336418296146106ba5780633bd22df2146106e5576103bb565b80630bc342b6116102a15780630bc342b6146104e05780630fb782401461050957806311233837146105325780631dd71a311461055b578063218af4691461059857806325eec632146105d5576103bb565b806304d210db146103c05780630711273d146103e957806307b1d0e41461041257806309f260f51461043d5780630a6429a11461047a5780630b05842b146104b7576103bb565b366103bb5761030167882ae76605bfab4560c01b610d12565b610315675bd8950a49e6c8a760c01b610d12565b600160009054906101000a900473ffffffffffffffffffffffffffffffffffffffff1673ffffffffffffffffffffffffffffffffffffffff163373ffffffffffffffffffffffffffffffffffffffff16146103a5576040517f08c379a000000000000000000000000000000000000000000000000000000000815260040161039c90616c3d565b60405180910390fd5b6103b967a3bb2898561004b960c01b610d12565b005b600080fd5b3480156103cc57600080fd5b506103e760048036038101906103e29190616c92565b610d15565b005b3480156103f557600080fd5b50610410600480360381019061040b9190616d1d565b610e58565b005b34801561041e57600080fd5b50610427610f0d565b6040516104349190616d89565b60405180910390f35b34801561044957600080fd5b50610464600480360381019061045f9190616d9d565b610f12565b6040516104719190616dd4565b60405180910390f35b34801561048657600080fd5b506104a1600480360381019061049c9190616de7565b610f62565b6040516104ae9190616dd4565b60405180910390f35b3480156104c357600080fd5b506104de60048036038101906104d99190616e68565b610fb8565b005b3480156104ec57600080fd5b5061050760048036038101906105029190616ed8565b611255565b005b34801561051557600080fd5b50610530600480360381019061052b9190616f33565b611553565b005b34801561053e57600080fd5b5061055960048036038101906105549190616e68565b611740565b005b34801561056757600080fd5b50610582600480360381019061057d9190616ed8565b6119dd565b60405161058f9190616f5a565b60405180910390f35b3480156105a457600080fd5b506105bf60048036038101906105ba9190616d1d565b611a9a565b6040516105cc9190616dd4565b60405180910390f35b3480156105e157600080fd5b506105ea611aee565b6040516105f79190616d89565b60405180910390f35b34801561060c57600080fd5b5061062760048036038101906106229190616e68565b611af3565b005b34801561063557600080fd5b50610650600480360381019061064b9190616f33565b611c80565b005b34801561065e57600080fd5b506106676120fe565b6040516106749190616d89565b60405180910390f35b34801561068957600080fd5b506106a4600480360381019061069f9190616faf565b612103565b6040516106b19190616fcb565b60405180910390f35b3480156106c657600080fd5b506106cf612142565b6040516106dc9190616f5a565b60405180910390f35b3480156106f157600080fd5b506106fa61219a565b6040516107079190617045565b60405180910390f35b34801561071c57600080fd5b506107256122af565b6040516107329190616f5a565b60405180910390f35b34801561074757600080fd5b50610762600480360381019061075d91906170ae565b612307565b60405161076f91906170f5565b60405180910390f35b34801561078457600080fd5b5061079f600480360381019061079a9190616ed8565b612426565b005b3480156107ad57600080fd5b506107c860048036038101906107c39190616f33565b61253f565b005b3480156107d657600080fd5b506107f160048036038101906107ec9190617157565b61261c565b005b3480156107ff57600080fd5b5061081a60048036038101906108159190616ed8565b61275c565b005b34801561082857600080fd5b506108316129b5565b60405161083e919061717e565b60405180910390f35b34801561085357600080fd5b5061085c6129db565b6040516108699190616d89565b60405180910390f35b34801561087e57600080fd5b506108876129e0565b6040516108949190616f5a565b60405180910390f35b3480156108a957600080fd5b506108c460048036038101906108bf91906170ae565b612aaa565b6040516108d19190616f5a565b60405180910390f35b3480156108e657600080fd5b5061090160048036038101906108fc9190616ed8565b612b26565b005b34801561090f57600080fd5b5061092a60048036038101906109259190617197565b612c6f565b005b34801561093857600080fd5b50610953600480360381019061094e9190616d9d565b61343a565b005b34801561096157600080fd5b5061096a6134eb565b6040516109779190617219565b60405180910390f35b61099a6004803603810190610995919061729a565b613511565b005b3480156109a857600080fd5b506109c360048036038101906109be9190616f33565b6136aa565b005b3480156109d157600080fd5b506109ec60048036038101906109e79190616ed8565b6139b1565b005b3480156109fa57600080fd5b50610a156004803603810190610a1091906172f2565b613c2f565b005b348015610a2357600080fd5b50610a3e6004803603810190610a399190616ed8565b613d72565b604051610a4b9190616f5a565b60405180910390f35b348015610a6057600080fd5b50610a69613e2f565b604051610a769190616d89565b60405180910390f35b348015610a8b57600080fd5b50610aa66004803603810190610aa19190617319565b613e34565b005b348015610ab457600080fd5b50610abd61440e565b604051610aca9190616f5a565b60405180910390f35b348015610adf57600080fd5b50610afa6004803603810190610af591906170ae565b614466565b604051610b079190616f5a565b60405180910390f35b348015610b1c57600080fd5b50610b25614554565b604051610b329190617386565b60405180910390f35b348015610b4757600080fd5b50610b626004803603810190610b5d91906173b5565b614578565b604051610b6f9190616dd4565b60405180910390f35b348015610b8457600080fd5b50610b9f6004803603810190610b9a9190616de7565b6145ae565b005b348015610bad57600080fd5b50610bc86004803603810190610bc39190616f33565b614665565b604051610bd5919061746a565b60405180910390f35b348015610bea57600080fd5b50610c056004803603810190610c009190616f33565b61467d565b604051610c129190616dd4565b60405180910390f35b348015610c2757600080fd5b50610c3061469d565b604051610c3d9190616d89565b60405180910390f35b348015610c5257600080fd5b50610c6d6004803603810190610c68919061729a565b6146a2565b005b348015610c7b57600080fd5b50610c966004803603810190610c919190616e68565b61486a565b005b348015610ca457600080fd5b50610cbf6004803603810190610cba9190616f33565b6149f7565b604051610ccc9190616dd4565b60405180910390f35b348015610ce157600080fd5b50610cfc6004803603810190610cf79190616faf565b614a17565b604051610d09919061747b565b60405180910390f35b50565b610d2967db698db45e28350460c01b610d12565b610d3d6776ee23368e2f548e60c01b610d12565b610d5167a31046df4f4fedb260c01b610d12565b610d5c60ff3361343a565b610d7067bc70cb029aa15c0d60c01b610d12565b610d8467fe92797d8a95f27f60c01b610d12565b8073ffffffffffffffffffffffffffffffffffffffff16600260009054906101000a900473ffffffffffffffffffffffffffffffffffffffff1673ffffffffffffffffffffffffffffffffffffffff167f8f1309febaeee43fd19b3588a307b7e3d5b50fb4fc401d59230340b8e8d53f8f60405160405180910390a3610e14670437eb3d966b2bfd60c01b610d12565b80600260006101000a81548173ffffffffffffffffffffffffffffffffffffffff021916908373ffffffffffffffffffffffffffffffffffffffff16021790555050565b610e6c677d62c3520c12568060c01b610d12565b610e8067ebb0a4519f6aee7660c01b610d12565b610e9467a5f8d1b93fd44a0660c01b610d12565b610ea8674e28cb61626bd5a860c01b610d12565b610eb484848484614da0565b610ef3576040517f08c379a0000000000000000000000000000000000000000000000000000000008152600401610eea90617496565b60405180910390fd5b610f0767118f6a92d1ce526a60c01b610d12565b50505050565b60e081565b6000610f2867d31b1992f3c6f20460c01b610d12565b610f3c6768d09e8aeed2328d60c01b610d12565b610f506759db70652e65aa3760c01b610d12565b610f5a8383614f25565b905092915050565b6000610f786724cd1e6582001c9760c01b610d12565b610f8c67fcd124438a4376d160c01b610d12565b610fa067da3168d3820b40c760c01b610d12565b610fad8686868686614f81565b905095945050505050565b610fcc67be9b64514b465d7f60c01b610d12565b80610fe167f86c985c8d2500aa60c01b610d12565b610ff567d03f36b7c238f0d660c01b610d12565b61100967f8252925eadc70a160c01b610d12565b61101d671dd7419f430fd06360c01b610d12565b8073ffffffffffffffffffffffffffffffffffffffff163373ffffffffffffffffffffffffffffffffffffffff160361108b576040517f08c379a0000000000000000000000000000000000000000000000000000000008152600401611082906174fa565b60405180910390fd5b61109f67e406e9c9c6fe606360c01b610d12565b6110b3671d6cf6fa2af6051560c01b610d12565b6110c7676f9e47c20a93e66660c01b610d12565b6110db673b699f073636869760c01b610d12565b6110ef671834ae28b2f888ad60c01b610d12565b6111036775c7a71630db2c7060c01b610d12565b61111985858561111360606152ee565b336145ae565b61112d673e6b4d54a237a93c60c01b610d12565b61114167d494422426aa07e160c01b610d12565b6111b960608360098888604051611159929190617538565b908152602001604051809103902060040160008773ffffffffffffffffffffffffffffffffffffffff1673ffffffffffffffffffffffffffffffffffffffff1681526020019081526020016000206000016153ba9092919063ffffffff16565b6111cd67351897ae0450a07e60c01b610d12565b6111e167b249978c310d824060c01b610d12565b606060ff168373ffffffffffffffffffffffffffffffffffffffff16868660405161120d929190617538565b60405180910390207fe6e89cc72d4201187c3a55f15fa3fb0dd22be4cbde21416212c24d99e1415dd78533604051611246929190617550565b60405180910390a45050505050565b611269673abcf0bb9fd0667c60c01b610d12565b61127d677e395dbc778c948f60c01b610d12565b61129167eec04c2de219db9e60c01b610d12565b61129c838383612426565b6112b0679356ab5ad117c8fc60c01b610d12565b6112c467505e6807d46a092d60c01b610d12565b6112d867d1483fa740d8fa0560c01b610d12565b8073ffffffffffffffffffffffffffffffffffffffff16638da5cb5b6040518163ffffffff1660e01b8152600401602060405180830381865afa158015611323573d6000803e3d6000fd5b505050506040513d601f19601f820116820180604052508101906113479190617574565b73ffffffffffffffffffffffffffffffffffffffff163373ffffffffffffffffffffffffffffffffffffffff16146113b4576040517f08c379a00000000000000000000000000000000000000000000000000000000081526004016113ab9061759b565b60405180910390fd5b6113c867882adfa7c410486860c01b610d12565b6113dc670d64e0168d138ee960c01b610d12565b6113f0678d099912503d5e6960c01b610d12565b6114088383836060611403888888613d72565b6157e0565b61141c67672f867168dbbd8f60c01b610d12565b611430678d4ffc10b1fdb03260c01b610d12565b61144883838360406114438888886119dd565b6157e0565b61145c67f200b89514da15fa60c01b610d12565b6000600760008373ffffffffffffffffffffffffffffffffffffffff1673ffffffffffffffffffffffffffffffffffffffff16815260200190815260200160002060006101000a81548160ff0219169083151502179055506114c867ab63dd64b8a3092b60c01b610d12565b6114dc6751e5e84c76b0325e60c01b610d12565b3373ffffffffffffffffffffffffffffffffffffffff168173ffffffffffffffffffffffffffffffffffffffff16848460405161151a929190617538565b60405180910390207fc19cb63bcf61c7e8bb5b18338d48fc6d3665b7f831bb1f2825d0c3e7aa0fc8d760405160405180910390a4505050565b61156767df86373049036ea760c01b610d12565b8061157c67f86c985c8d2500aa60c01b610d12565b61159067d03f36b7c238f0d660c01b610d12565b6115a467f8252925eadc70a160c01b610d12565b6115b8671dd7419f430fd06360c01b610d12565b8073ffffffffffffffffffffffffffffffffffffffff163373ffffffffffffffffffffffffffffffffffffffff1603611626576040517f08c379a000000000000000000000000000000000000000000000000000000000815260040161161d906174fa565b60405180910390fd5b61163a67e406e9c9c6fe606360c01b610d12565b61164e671d6cf6fa2af6051560c01b610d12565b61166267fdc96da3f326876f60c01b610d12565b61167667da2e9748a431968160c01b610d12565b61168a67301a00bda2dbadcf60c01b610d12565b61169e675e6a209168707e0e60c01b610d12565b6116b560c083600a6159369092919063ffffffff16565b6116c967d27a6b745127c5e660c01b610d12565b6116dd671b0ee983c914525260c01b610d12565b3373ffffffffffffffffffffffffffffffffffffffff168273ffffffffffffffffffffffffffffffffffffffff1660c060ff167f54005c3f626d0314a9e1760ead4a9f74ed83d501761d9611c95814f88c53339460405160405180910390a45050565b611754673f41e98cb47be70360c01b610d12565b8061176967f86c985c8d2500aa60c01b610d12565b61177d67d03f36b7c238f0d660c01b610d12565b61179167f8252925eadc70a160c01b610d12565b6117a5671dd7419f430fd06360c01b610d12565b8073ffffffffffffffffffffffffffffffffffffffff163373ffffffffffffffffffffffffffffffffffffffff1603611813576040517f08c379a000000000000000000000000000000000000000000000000000000000815260040161180a906174fa565b60405180910390fd5b61182767e406e9c9c6fe606360c01b610d12565b61183b671d6cf6fa2af6051560c01b610d12565b61184f671e030b5a1bed42f660c01b610d12565b6118636784100793227d37ce60c01b610d12565b61187767e59d82a6313de2e460c01b610d12565b61188b670d6da985cf56146d60c01b610d12565b6118a185858561189b60406152ee565b336145ae565b6118b5676bea94e3b918cf0560c01b610d12565b6118c9673962a5312af2d3cb60c01b610d12565b611941604083600988886040516118e1929190617538565b908152602001604051809103902060040160008773ffffffffffffffffffffffffffffffffffffffff1673ffffffffffffffffffffffffffffffffffffffff1681526020019081526020016000206000016153ba9092919063ffffffff16565b61195567ab4284b0a68e074960c01b610d12565b6119696754c16653549bb54a60c01b610d12565b604060ff168373ffffffffffffffffffffffffffffffffffffffff168686604051611995929190617538565b60405180910390207fe6e89cc72d4201187c3a55f15fa3fb0dd22be4cbde21416212c24d99e1415dd785336040516119ce929190617550565b60405180910390a45050505050565b60606119f367abe466efa980832560c01b610d12565b611a076792bc6bf8fdc6c54c60c01b610d12565b611a1b671ac3a0c070d8b84660c01b610d12565b611a91604060098686604051611a32929190617538565b908152602001604051809103902060040160008573ffffffffffffffffffffffffffffffffffffffff1673ffffffffffffffffffffffffffffffffffffffff168152602001908152602001600020600001615a1090919063ffffffff16565b90509392505050565b6000611ab06770407afd3a02b31a60c01b610d12565b611ac46785f12628371d6eb260c01b610d12565b611ad86706b1f10a05e49b0860c01b610d12565b611ae485858585614da0565b9050949350505050565b608081565b611b0767611af9fd1ff48e4d60c01b610d12565b611b1b67fb1f38630ff426d960c01b610d12565b611b2f67b0cf84aa1a3a194460c01b610d12565b611b45848484611b3f60406152ee565b336145ae565b611b5967594d9c5c3c5ab8de60c01b610d12565b611b6d672b461a7a96302bdf60c01b610d12565b611be560408260098787604051611b85929190617538565b908152602001604051809103902060040160008673ffffffffffffffffffffffffffffffffffffffff1673ffffffffffffffffffffffffffffffffffffffff168152602001908152602001600020600001614ac39092919063ffffffff16565b611bf967f952811d1bf6e3e160c01b610d12565b611c0d677ee3d31b08d0dff860c01b610d12565b604060ff168273ffffffffffffffffffffffffffffffffffffffff168585604051611c39929190617538565b60405180910390207f1c7544af49d1485d0f616b8e07f4fda2742fcd971544805942e242cc134653258433604051611c72929190617550565b60405180910390a450505050565b611c9467a01e0d16893ce7aa60c01b610d12565b611ca86723f855c3d8fd96ea60c01b610d12565b611cbc67a3dcc39b29d465cb60c01b610d12565b611cd06723240a82275b559f60c01b610d12565b600360008273ffffffffffffffffffffffffffffffffffffffff1673ffffffffffffffffffffffffffffffffffffffff16815260200190815260200160002060009054906101000a900460ff16611d5c576040517f08c379a0000000000000000000000000000000000000000000000000000000008152600401611d53906175ff565b60405180910390fd5b611d7067e932b8138f93fc0160c01b610d12565b611d84673a320dab72db8fe960c01b610d12565b611d9867ff77a0c1c00ca6c460c01b610d12565b611dad60ff600a615af990919063ffffffff16565b611dc1677f08f3ad7919305360c01b610d12565b6000600360008373ffffffffffffffffffffffffffffffffffffffff1673ffffffffffffffffffffffffffffffffffffffff16815260200190815260200160002060006101000a81548160ff021916908315150217905550611e2d674e74d8705228c6e360c01b610d12565b611e41678698b3995cd8a24b60c01b610d12565b6000600560008373ffffffffffffffffffffffffffffffffffffffff1673ffffffffffffffffffffffffffffffffffffffff168152602001908152602001600020549050611e9967fb808f3555fad31360c01b610d12565b611ead671785b322d4fca60f60c01b610d12565b60006001600480549050611ec19190617679565b9050611ed767ffe6ce418915cd0a60c01b610d12565b60048181548110611eeb57611eea617697565b5b9060005260206000200160009054906101000a900473ffffffffffffffffffffffffffffffffffffffff1660048381548110611f2a57611f29617697565b5b9060005260206000200160006101000a81548173ffffffffffffffffffffffffffffffffffffffff021916908373ffffffffffffffffffffffffffffffffffffffff160217905550611f8667530e1b789d3a6a7f60c01b610d12565b816005600060048481548110611f9f57611f9e617697565b5b9060005260206000200160009054906101000a900473ffffffffffffffffffffffffffffffffffffffff1673ffffffffffffffffffffffffffffffffffffffff1673ffffffffffffffffffffffffffffffffffffffff1681526020019081526020016000208190555061201c676fa0d00d31a88fb460c01b610d12565b61203067d99775cce7c322b460c01b610d12565b6004805480612042576120416176ad565b5b6001900381819060005260206000200160006101000a81549073ffffffffffffffffffffffffffffffffffffffff0219169055905561208b676b4bf8b4abffe4d360c01b610d12565b61209f671304f6163af2342660c01b610d12565b3373ffffffffffffffffffffffffffffffffffffffff168373ffffffffffffffffffffffffffffffffffffffff167fe531bef8706ed9c94e86e8da1454b4fc6ca935da54c8970f95e5dbb14d16f0f760405160405180910390a3505050565b606081565b6004818154811061211357600080fd5b906000526020600020016000915054906101000a900473ffffffffffffffffffffffffffffffffffffffff1681565b606061215867b45c0a337f86f05e60c01b610d12565b61216c675185f636cf7afa7660c01b610d12565b612180676100fafa68e8d90e60c01b610d12565b61219560e0600a615a1090919063ffffffff16565b905090565b60606121b067db5c647ccdb4eddf60c01b610d12565b6121c4675f36481c1b636a6660c01b610d12565b6121d8670401ae5dd25d67b260c01b610d12565b6008805480602002602001604051908101604052809291908181526020016000905b828210156122a6578382906000526020600020018054612219906176c3565b80601f0160208091040260200160405190810160405280929190818152602001828054612245906176c3565b80156122925780601f1061226757610100808354040283529160200191612292565b820191906000526020600020905b81548152906001019060200180831161227557829003601f168201915b5050505050815260200190600101906121fa565b50505050905090565b60606122c5670fdc1580dcae0b7360c01b610d12565b6122d967593ee8dbe500f12160c01b610d12565b6122ed67d2ff23a0a02ac0cb60c01b610d12565b61230260ff600a615a1090919063ffffffff16565b905090565b606061231d6765477850f9def70860c01b610d12565b612331678c601cd8faf5de9160c01b610d12565b612345675bb3caccbf82440a60c01b610d12565b60098383604051612357929190617538565b9081526020016040518091039020600201805480602002602001604051908101604052809291908181526020016000905b8282101561241a57838290600052602060002090600202016040518060400160405290816000820160009054906101000a900473ffffffffffffffffffffffffffffffffffffffff1673ffffffffffffffffffffffffffffffffffffffff1673ffffffffffffffffffffffffffffffffffffffff16815260200160018201548152505081526020019060010190612388565b50505050905092915050565b61243a6713c9bbb9bc877d3760c01b610d12565b61244e67a088a928e263d51760c01b610d12565b61246267f22f15cb0215fe5660c01b610d12565b61247667b8746349c3ac95f160c01b610d12565b60098383604051612488929190617538565b908152602001604051809103902060040160008273ffffffffffffffffffffffffffffffffffffffff1673ffffffffffffffffffffffffffffffffffffffff16815260200190815260200160002060020160009054906101000a900460ff16612526576040517f08c379a000000000000000000000000000000000000000000000000000000000815260040161251d90617701565b60405180910390fd5b61253a6708a7a6894396e8df60c01b610d12565b505050565b6125536776f6f0543f03644160c01b610d12565b612567673cffc149a133923060c01b610d12565b61257b67c3314ab41730f25360c01b610d12565b61259260c082600a615b449092919063ffffffff16565b6125a667cfbc165863e6789d60c01b610d12565b6125ba67985c881a9c97a42c60c01b610d12565b3373ffffffffffffffffffffffffffffffffffffffff168173ffffffffffffffffffffffffffffffffffffffff1660c060ff167f099cdd102ee5c9370c2c17d4268a63ac7d7cc6aaf7f5f27726af2aba31dfc25760405160405180910390a450565b61263067ef6fd7773094bd9860c01b610d12565b61264467c4930b1df82a3ba560c01b610d12565b612658671af58ef00ea4a4c460c01b610d12565b61266360ff3361343a565b61267767708b4ca787e35b1560c01b610d12565b61268b67cd6ca8a82f4bf30660c01b610d12565b8073ffffffffffffffffffffffffffffffffffffffff1660008054906101000a900473ffffffffffffffffffffffffffffffffffffffff1673ffffffffffffffffffffffffffffffffffffffff167f2fb8fa69e7616e66554ba3603ccf71a2d8f72da25a5458d91cd46bb07119a46260405160405180910390a3612719676284145cea81d4d360c01b610d12565b806000806101000a81548173ffffffffffffffffffffffffffffffffffffffff021916908373ffffffffffffffffffffffffffffffffffffffff16021790555050565b61277067e76316de9c67bf7060c01b610d12565b8061278567f86c985c8d2500aa60c01b610d12565b61279967d03f36b7c238f0d660c01b610d12565b6127ad67f8252925eadc70a160c01b610d12565b6127c1671dd7419f430fd06360c01b610d12565b8073ffffffffffffffffffffffffffffffffffffffff163373ffffffffffffffffffffffffffffffffffffffff160361282f576040517f08c379a0000000000000000000000000000000000000000000000000000000008152600401612826906174fa565b60405180910390fd5b61284367e406e9c9c6fe606360c01b610d12565b612857671d6cf6fa2af6051560c01b610d12565b61286b679204b586cfee67b460c01b610d12565b61287f67198db933d94dc9f360c01b610d12565b61289367a41a3f5dcbd0335860c01b610d12565b6128a76717bd76add73338fa60c01b610d12565b6128bc84846128b660806152ee565b33610e58565b6128d0672fa582bd66fd578c60c01b610d12565b6128e467cbfc9fb7c9ebc0bd60c01b610d12565b61291c608083600987876040516128fc929190617538565b90815260200160405180910390206000016153ba9092919063ffffffff16565b61293067b2240913d708603c60c01b610d12565b61294467285e929240d4677960c01b610d12565b8173ffffffffffffffffffffffffffffffffffffffff16608060ff168585604051612970929190617538565b60405180910390207fa496f9e0ac24c2a96bd544011c3ec2e954ab2f2171b3904b1a71e4e47b188d3a336040516129a79190616fcb565b60405180910390a450505050565b600160009054906101000a900473ffffffffffffffffffffffffffffffffffffffff1681565b60c081565b60606129f66729b9eaf4f4a583fc60c01b610d12565b612a0a676dacf7da5925c03760c01b610d12565b612a1e67b30677f0f965103660c01b610d12565b6004805480602002602001604051908101604052809291908181526020018280548015612aa057602002820191906000526020600020905b8160009054906101000a900473ffffffffffffffffffffffffffffffffffffffff1673ffffffffffffffffffffffffffffffffffffffff1681526020019060010190808311612a56575b5050505050905090565b6060612ac06717fdc0b352012d1660c01b610d12565b612ad467d9cd04b20df8064960c01b610d12565b612ae8671c01c107ae7c7a4660c01b610d12565b612b1e608060098585604051612aff929190617538565b9081526020016040518091039020600001615a1090919063ffffffff16565b905092915050565b612b3a67ab429393eaac35e460c01b610d12565b612b4e67e63293d37726454e60c01b610d12565b612b6267b1306d9441891ba360c01b610d12565b612b778383612b7160806152ee565b33610e58565b612b8b67059a02f16e8ffc4a60c01b610d12565b612b9f67cc57874f7e85658960c01b610d12565b612bd760808260098686604051612bb7929190617538565b9081526020016040518091039020600001614ac39092919063ffffffff16565b612beb67dedf4aba1e4395c760c01b610d12565b612bff67a3d817b2f59b34ad60c01b610d12565b8073ffffffffffffffffffffffffffffffffffffffff16608060ff168484604051612c2b929190617538565b60405180910390207f7ff7c5bfde4625c5a8210706c988b45f198cb0e44c05c84a7cef6a99b63524d133604051612c629190616fcb565b60405180910390a4505050565b612c83672d53687c23deee2460c01b610d12565b612c9767614a1727bb39071a60c01b610d12565b612cab670b2662e779303f9c60c01b610d12565b612cbf67b26f6c2a683a6c8060c01b610d12565b8160098585604051612cd2929190617538565b90815260200160405180910390206002018054905011612d27576040517f08c379a0000000000000000000000000000000000000000000000000000000008152600401612d1e90617765565b60405180910390fd5b612d3b675f8bfc2bccee459760c01b610d12565b612d4f670a3dc4a5b6a0d60660c01b610d12565b612d63679899ec54f1a6731360c01b610d12565b600060098585604051612d77929190617538565b90815260200160405180910390206002018381548110612d9a57612d99617697565b5b90600052602060002090600202016040518060400160405290816000820160009054906101000a900473ffffffffffffffffffffffffffffffffffffffff1673ffffffffffffffffffffffffffffffffffffffff1673ffffffffffffffffffffffffffffffffffffffff1681526020016001820154815250509050612e2967978208827229b7ff60c01b610d12565b612e3d674532c0460c7b358960c01b610d12565b612e51670cfcbc8623c5fb9c60c01b610d12565b3373ffffffffffffffffffffffffffffffffffffffff16816000015173ffffffffffffffffffffffffffffffffffffffff1614612ec3576040517f08c379a0000000000000000000000000000000000000000000000000000000008152600401612eba906177c9565b60405180910390fd5b612ed767dc2e48eac36fb1a760c01b610d12565b612eeb673e90d54947a3102e60c01b610d12565b612eff671a60b896054e8a0260c01b610d12565b612f0c8585608033610e58565b612f2067b6e8aa6c6484450860c01b610d12565b612f346764baa81e3ba1a7f860c01b610d12565b60008060009054906101000a900473ffffffffffffffffffffffffffffffffffffffff1673ffffffffffffffffffffffffffffffffffffffff1663f8d3b273878785600001518660200151886040518663ffffffff1660e01b8152600401612fa0959493929190617921565b6020604051808303816000875af1158015612fbf573d6000803e3d6000fd5b505050506040513d601f19601f82011682018060405250810190612fe39190617574565b9050612ff9678e0a848e7f0f113560c01b610d12565b61300d674c9fb756fafc4b8460c01b610d12565b6009868660405161301f929190617538565b9081526020016040518091039020600301819080600181540180825580915050600190039060005260206000200160009091909190916101000a81548173ffffffffffffffffffffffffffffffffffffffff021916908373ffffffffffffffffffffffffffffffffffffffff1602179055506130a567f8bbab9ceb640c2760c01b610d12565b6001600987876040516130b9929190617538565b908152602001604051809103902060040160008373ffffffffffffffffffffffffffffffffffffffff1673ffffffffffffffffffffffffffffffffffffffff16815260200190815260200160002060020160006101000a81548160ff021916908315150217905550613135674e8f5f113c2940f160c01b610d12565b61314967e2046409c972420e60c01b610d12565b600060016009888860405161315f929190617538565b90815260200160405180910390206002018054905061317e9190617679565b905061319467f6c41cd78880fdcd60c01b610d12565b600987876040516131a6929190617538565b908152602001604051809103902060020181815481106131c9576131c8617697565b5b9060005260206000209060020201600988886040516131e9929190617538565b9081526020016040518091039020600201868154811061320c5761320b617697565b5b90600052602060002090600202016000820160009054906101000a900473ffffffffffffffffffffffffffffffffffffffff168160000160006101000a81548173ffffffffffffffffffffffffffffffffffffffff021916908373ffffffffffffffffffffffffffffffffffffffff160217905550600182015481600101559050506132a2671e332e2b5867f9a360c01b610d12565b6132b66761f67cad3034fd3b60c01b610d12565b600987876040516132c8929190617538565b90815260200160405180910390206002018054806132e9576132e86176ad565b5b6001900381819060005260206000209060020201600080820160006101000a81549073ffffffffffffffffffffffffffffffffffffffff0219169055600182016000905550509055613345674d04743f36b4e57760c01b610d12565b6001600760008473ffffffffffffffffffffffffffffffffffffffff1673ffffffffffffffffffffffffffffffffffffffff16815260200190815260200160002060006101000a81548160ff0219169083151502179055506133b1674d5e8218003cf05860c01b610d12565b6133c567471543efd53f675360c01b610d12565b3373ffffffffffffffffffffffffffffffffffffffff1687876040516133ec929190617538565b60405180910390207f8a9635b3f0108dcd1794662f6ade2960d43e0b2cec03159e56770523df83a014856020015185604051613429929190617a1b565b60405180910390a350505050505050565b61344e672da89489fd534dd460c01b610d12565b6134626722ddb77625331d4160c01b610d12565b61347667eaea8f9acac561d760c01b610d12565b61348a679c1af3d31cde760260c01b610d12565b6134948282614f25565b6134d3576040517f08c379a00000000000000000000000000000000000000000000000000000000081526004016134ca90617a3b565b60405180910390fd5b6134e767bc09190038c5cd0060c01b610d12565b5050565b600260009054906101000a900473ffffffffffffffffffffffffffffffffffffffff1681565b6135256798e1923b2aa588d060c01b610d12565b6135396761a9cbf024f1c2c060c01b610d12565b61354d67abd3eae862c4d1ac60c01b610d12565b6000600160009054906101000a900473ffffffffffffffffffffffffffffffffffffffff1673ffffffffffffffffffffffffffffffffffffffff166387d3d5c6348686866040518563ffffffff1660e01b81526004016135af93929190617afd565b60206040518083038185885af11580156135cd573d6000803e3d6000fd5b50505050506040513d601f19601f820116820180604052508101906135f29190617b77565b905061360867e54f8e2eeae3933d60c01b610d12565b61361c67a989e13ef0530b3260c01b610d12565b600081111561368f576136396788cf6f420a0c712b60c01b610d12565b61364d67c1f02eb9d3fa461960c01b610d12565b61366167602cc9426de9299f60c01b610d12565b61368a813373ffffffffffffffffffffffffffffffffffffffff16615c1e90919063ffffffff16565b6136a4565b6136a367a2cad7fae77d882060c01b610d12565b5b50505050565b6136be67c1b9df6793d939b960c01b610d12565b6136d26786debc3517a3b32f60c01b610d12565b6136e6670d07e503152306f960c01b610d12565b6136fa67dcb1bb682e0185b260c01b610d12565b600360008273ffffffffffffffffffffffffffffffffffffffff1673ffffffffffffffffffffffffffffffffffffffff16815260200190815260200160002060009054906101000a900460ff1615613787576040517f08c379a000000000000000000000000000000000000000000000000000000000815260040161377e90617b93565b60405180910390fd5b61379b67cd9de210e31c12d560c01b610d12565b6137af67d06f386631d4795f60c01b610d12565b6137c367cb664a044403b32460c01b610d12565b6137d860ff600a615af990919063ffffffff16565b6137ec67704a9c78c0566a8660c01b610d12565b6001600360008373ffffffffffffffffffffffffffffffffffffffff1673ffffffffffffffffffffffffffffffffffffffff16815260200190815260200160002060006101000a81548160ff0219169083151502179055506138586727c05f3f5d3187b160c01b610d12565b600480549050600560008373ffffffffffffffffffffffffffffffffffffffff1673ffffffffffffffffffffffffffffffffffffffff168152602001908152602001600020819055506138b56720255441ec68277160c01b610d12565b6138c9675238b2a08787993c60c01b610d12565b6004819080600181540180825580915050600190039060005260206000200160009091909190916101000a81548173ffffffffffffffffffffffffffffffffffffffff021916908373ffffffffffffffffffffffffffffffffffffffff160217905550613940677160fa0cb7451b7360c01b610d12565b61395467c6a60d917e5fa99460c01b610d12565b3373ffffffffffffffffffffffffffffffffffffffff168173ffffffffffffffffffffffffffffffffffffffff167f308d0fdbc3ae3d535cd087097ac51d8e174fa7a84ba9c4ee40f9e7fee3ecdd7160405160405180910390a350565b6139c567f5b3a9e767c2759760c01b610d12565b6139d9671af3fa0e1eb728ff60c01b610d12565b6139ed67a468245cc281784e60c01b610d12565b6139f8838383612426565b613a0c673719f711ec0bf90160c01b610d12565b613a2067157dd5ba7b9ba42260c01b610d12565b613a34678c321469738c78c560c01b610d12565b8073ffffffffffffffffffffffffffffffffffffffff16638da5cb5b6040518163ffffffff1660e01b8152600401602060405180830381865afa158015613a7f573d6000803e3d6000fd5b505050506040513d601f19601f82011682018060405250810190613aa39190617574565b73ffffffffffffffffffffffffffffffffffffffff163373ffffffffffffffffffffffffffffffffffffffff1614613b10576040517f08c379a0000000000000000000000000000000000000000000000000000000008152600401613b079061759b565b60405180910390fd5b613b2467442e96eb09c3db5d60c01b610d12565b613b38674d2fb51cd67e310f60c01b610d12565b6001600760008373ffffffffffffffffffffffffffffffffffffffff1673ffffffffffffffffffffffffffffffffffffffff16815260200190815260200160002060006101000a81548160ff021916908315150217905550613ba4671a6c799db4fec76060c01b610d12565b613bb867ff17796803060d3360c01b610d12565b3373ffffffffffffffffffffffffffffffffffffffff168173ffffffffffffffffffffffffffffffffffffffff168484604051613bf6929190617538565b60405180910390207fad4372f426e150560d87e4d2f07abed0a4ecc2467be4335572c5a6fabd86704b60405160405180910390a4505050565b613c43671ba87ed943680fae60c01b610d12565b613c5767d73baaec0d83ed4f60c01b610d12565b613c6b675f2304b0a18608f060c01b610d12565b613c7660ff3361343a565b613c8a6746507b4309cbe7c060c01b610d12565b613c9e6735ef805100eebdc360c01b610d12565b8073ffffffffffffffffffffffffffffffffffffffff16600160009054906101000a900473ffffffffffffffffffffffffffffffffffffffff1673ffffffffffffffffffffffffffffffffffffffff167f4de092fe952a17ec9a73044419fa5260965c59906cc496268a091ddd52d8e7cb60405160405180910390a3613d2e67d82cc8d8b107a6cb60c01b610d12565b80600160006101000a81548173ffffffffffffffffffffffffffffffffffffffff021916908373ffffffffffffffffffffffffffffffffffffffff16021790555050565b6060613d88674b3e1ce00982cb3b60c01b610d12565b613d9c67f06d2fdeacb948de60c01b610d12565b613db0671ee56177edec6cbb60c01b610d12565b613e26606060098686604051613dc7929190617538565b908152602001604051809103902060040160008573ffffffffffffffffffffffffffffffffffffffff1673ffffffffffffffffffffffffffffffffffffffff168152602001908152602001600020600001615a1090919063ffffffff16565b90509392505050565b60ff81565b613e4867099670ee68bd538660c01b610d12565b613e5c676e1668067b908a2560c01b610d12565b613e70671deb048100b5516760c01b610d12565b613e8467e2ae9761c161afa960c01b610d12565b3373ffffffffffffffffffffffffffffffffffffffff16836020016020810190613eae9190616f33565b73ffffffffffffffffffffffffffffffffffffffff1614613f04576040517f08c379a0000000000000000000000000000000000000000000000000000000008152600401613efb90617bd0565b60405180910390fd5b613f1867e5114ac47b010a3f60c01b610d12565b613f2c67da3033088fbbb8ef60c01b610d12565b613f4067c6a930b36f97030260c01b610d12565b6006838060000190613f529190617c0e565b604051613f60929190617538565b908152602001604051809103902060009054906101000a900460ff16613fc657613f9467c3b0f541745bf86f60c01b610d12565b613fa86744b6454fefc9b0dc60c01b610d12565b613fc1838060000190613fbb9190617c0e565b33615d12565b613fdb565b613fda674070e7837e4067c060c01b610d12565b5b613fef67cf0fd40eabe3dc5660c01b610d12565b61400367fb2a0da696f1254560c01b610d12565b61401e8380600001906140169190617c0e565b608033610e58565b6140326734323df0c80dec1d60c01b610d12565b61404667959b02801be19feb60c01b610d12565b61409933308560600135600260009054906101000a900473ffffffffffffffffffffffffffffffffffffffff1673ffffffffffffffffffffffffffffffffffffffff16615f89909392919063ffffffff16565b6140ad67ea9d8b7889e8b29c60c01b610d12565b6140c1678a6bf17e199ef2d060c01b610d12565b614134600160009054906101000a900473ffffffffffffffffffffffffffffffffffffffff168460600135600260009054906101000a900473ffffffffffffffffffffffffffffffffffffffff1673ffffffffffffffffffffffffffffffffffffffff166160129092919063ffffffff16565b61414867354342dee08ea32a60c01b610d12565b61415c675e5ef33546dda4ee60c01b610d12565b614170676c800e056f8ea32260c01b610d12565b600160009054906101000a900473ffffffffffffffffffffffffffffffffffffffff1673ffffffffffffffffffffffffffffffffffffffff1663bf08b5558484846040518463ffffffff1660e01b81526004016141cf93929190617c60565b6020604051808303816000875af11580156141ee573d6000803e3d6000fd5b505050506040513d601f19601f820116820180604052508101906142129190617cec565b614251576040517f08c379a000000000000000000000000000000000000000000000000000000000815260040161424890617d18565b60405180910390fd5b614265673dddf9e242065a0b60c01b610d12565b6142796778b77c30d441f41060c01b610d12565b61428d67b1d46810a179629360c01b610d12565b600983806000019061429f9190617c0e565b6040516142ad929190617538565b908152602001604051809103902060020160405180604001604052803373ffffffffffffffffffffffffffffffffffffffff1681526020018560400135815250908060018154018082558091505060019003906000526020600020906002020160009091909190915060008201518160000160006101000a81548173ffffffffffffffffffffffffffffffffffffffff021916908373ffffffffffffffffffffffffffffffffffffffff16021790555060208201518160010155505061437d67d1149d44c378afe860c01b610d12565b61439167046684d67caaaf7160c01b610d12565b3373ffffffffffffffffffffffffffffffffffffffff168380600001906143b89190617c0e565b6040516143c6929190617538565b60405180910390207f390c6973f7c33da4f84f0fc3f9077215df1bd11473219153515709b655cdbcd98560400135604051614401919061746a565b60405180910390a3505050565b606061442467fe99eabe0734a10d60c01b610d12565b61443867e291d7f4dba0978560c01b610d12565b61444c67c912c9ef53c5c0a860c01b610d12565b61446160c0600a615a1090919063ffffffff16565b905090565b606061447c67c22f46658460090360c01b610d12565b6144906741443a2a513104a860c01b610d12565b6144a4677970d15e0596ab0c60c01b610d12565b600983836040516144b6929190617538565b908152602001604051809103902060030180548060200260200160405190810160405280929190818152602001828054801561454757602002820191906000526020600020905b8160009054906101000a900473ffffffffffffffffffffffffffffffffffffffff1673ffffffffffffffffffffffffffffffffffffffff16815260200190600101908083116144fd575b5050505050905092915050565b60008054906101000a900473ffffffffffffffffffffffffffffffffffffffff1681565b6006818051602081018201805184825260208301602085012081835280955050505050506000915054906101000a900460ff1681565b6145c267668209714234607860c01b610d12565b6145d66702b72a9d953840f660c01b610d12565b6145ea67f048f21997442e1b60c01b610d12565b6145fe675c0568d52de52a6460c01b610d12565b61460b8585858585614f81565b61464a576040517f08c379a000000000000000000000000000000000000000000000000000000000815260040161464190617d56565b60405180910390fd5b61465e672648c240f743979860c01b610d12565b5050505050565b60056020528060005260406000206000915090505481565b60076020528060005260406000206000915054906101000a900460ff1681565b604081565b6146b6674cba4c9547ce5ad460c01b610d12565b6146ca67b212759e66527d0060c01b610d12565b6146de67d4ead0f9d5b3575c60c01b610d12565b614721333085604001358660200160208101906146fb9190616f33565b73ffffffffffffffffffffffffffffffffffffffff16615f89909392919063ffffffff16565b61473567d2d6191dcd4afbe160c01b610d12565b614749671b103699daa5f64c60c01b610d12565b6147ac600160009054906101000a900473ffffffffffffffffffffffffffffffffffffffff1684604001358560200160208101906147879190616f33565b73ffffffffffffffffffffffffffffffffffffffff166160129092919063ffffffff16565b6147c06784080becf45101fd60c01b610d12565b6147d467fb37fe29e447637060c01b610d12565b600160009054906101000a900473ffffffffffffffffffffffffffffffffffffffff1673ffffffffffffffffffffffffffffffffffffffff1663eebf1bf78484846040518463ffffffff1660e01b815260040161483393929190617afd565b600060405180830381600087803b15801561484d57600080fd5b505af1158015614861573d6000803e3d6000fd5b50505050505050565b61487e6701c4813d7cae820260c01b610d12565b6148926723804883346bff3d60c01b610d12565b6148a6672ce182c99bf086a060c01b610d12565b6148bc8484846148b660606152ee565b336145ae565b6148d0677beca5b76cf9fc4160c01b610d12565b6148e4671941ed2b799cc07160c01b610d12565b61495c606082600987876040516148fc929190617538565b908152602001604051809103902060040160008673ffffffffffffffffffffffffffffffffffffffff1673ffffffffffffffffffffffffffffffffffffffff168152602001908152602001600020600001614ac39092919063ffffffff16565b6149706799d19dd73c59237b60c01b610d12565b61498467c307627750a6641360c01b610d12565b606060ff168273ffffffffffffffffffffffffffffffffffffffff1685856040516149b0929190617538565b60405180910390207f1c7544af49d1485d0f616b8e07f4fda2742fcd971544805942e242cc1346532584336040516149e9929190617550565b60405180910390a450505050565b60036020528060005260406000206000915054906101000a900460ff1681565b60088181548110614a2757600080fd5b906000526020600020016000915090508054614a42906176c3565b80601f0160208091040260200160405190810160405280929190818152602001828054614a6e906176c3565b8015614abb5780601f10614a9057610100808354040283529160200191614abb565b820191906000526020600020905b815481529060010190602001808311614a9e57829003601f168201915b505050505081565b614ad767a35ca9e41ed6592760c01b616161565b614aeb670adf71103f81c67760c01b616161565b614aff67b43fcbb0e63cf88d60c01b616161565b614b1367714174f85b7988f060c01b616161565b614b1d8382616164565b15614b5d576040517f08c379a0000000000000000000000000000000000000000000000000000000008152600401614b5490617dba565b60405180910390fd5b614b716769ee5a1c0c6eab0160c01b616161565b614b856792017ba29fb977cb60c01b616161565b818360000160008373ffffffffffffffffffffffffffffffffffffffff1673ffffffffffffffffffffffffffffffffffffffff16815260200190815260200160002060006101000a81548160ff021916908360ff160217905550614bf36747d645418836ac9d60c01b616161565b614c0767ff6129629325835060c01b616161565b60008360010160008460ff1660ff1681526020019081526020016000209050614c3a67ac6b78950bc6572d60c01b616161565b80600001805490508160010160008473ffffffffffffffffffffffffffffffffffffffff1673ffffffffffffffffffffffffffffffffffffffff16815260200190815260200160002081905550614c9b678ac3af1dd1c3609960c01b616161565b614caf6726307401dab536d860c01b616161565b80600001829080600181540180825580915050600190039060005260206000200160009091909190916101000a81548173ffffffffffffffffffffffffffffffffffffffff021916908373ffffffffffffffffffffffffffffffffffffffff160217905550614d286716cf616f4ec0055860c01b616161565b614d3c67507053d98cf1200b60c01b616161565b3373ffffffffffffffffffffffffffffffffffffffff168273ffffffffffffffffffffffffffffffffffffffff168460ff167f570d3756e5b890fbf84c01fc2daf898fa7e95ae3ca9f1ed5edf012eacb5c6ce660405160405180910390a450505050565b6000614db667a5300dd299fcdadc60c01b610d12565b614dca674912f1bde4157ad760c01b610d12565b614dde67298a240fd2a64ab160c01b610d12565b614df2675a3b1c0cd7a5eeb760c01b610d12565b60068585604051614e04929190617538565b908152602001604051809103902060009054906101000a900460ff16614e5f576040517f08c379a0000000000000000000000000000000000000000000000000000000008152600401614e5690617df8565b60405180910390fd5b614e736743de6c655650fe9a60c01b610d12565b614e8767c2839db234301e5f60c01b610d12565b614e9b67242f2437dbc8b42c60c01b610d12565b614ea58383614f25565b8015614ec15750614ec067f6ffe7289a396dc160c01b6161ff565b5b80614f1b5750614efe838360098888604051614ede929190617538565b908152602001604051809103902060000161620a9092919063ffffffff16565b8015614f1a5750614f19673998e57edeb6e78e60c01b6161ff565b5b5b9050949350505050565b6000614f3b6724a836e133c5febd60c01b610d12565b614f4f6748d8cf88ff4accb560c01b610d12565b614f636770e84522c6a023df60c01b610d12565b614f798383600a61620a9092919063ffffffff16565b905092915050565b6000614f976707c4885e71cfab9160c01b610d12565b614fab679a15ed6aa805a54d60c01b610d12565b614fbf67fffe5f84ef0f8ccc60c01b610d12565b60098686604051614fd1929190617538565b908152602001604051809103902060040160008573ffffffffffffffffffffffffffffffffffffffff1673ffffffffffffffffffffffffffffffffffffffff16815260200190815260200160002060020160009054906101000a900460ff1615801561504d575061504c67ccf5fcccd9aa144160c01b6161ff565b5b806150be5750600760008573ffffffffffffffffffffffffffffffffffffffff1673ffffffffffffffffffffffffffffffffffffffff16815260200190815260200160002060009054906101000a900460ff161580156150bd57506150bc6781456bbbf92afb4560c01b6161ff565b5b5b15615108576150d767595b0c98b5bf106160c01b610d12565b6150eb674ab14609d6b5b80660c01b610d12565b6150ff671012e4b51f3ef5de60c01b610d12565b600090506152e5565b61511c67b149703c15aa572960c01b610d12565b615130676832e386726a36fc60c01b610d12565b6151446727e58544da70119460c01b610d12565b8173ffffffffffffffffffffffffffffffffffffffff168473ffffffffffffffffffffffffffffffffffffffff16638da5cb5b6040518163ffffffff1660e01b8152600401602060405180830381865afa1580156151a6573d6000803e3d6000fd5b505050506040513d601f19601f820116820180604052508101906151ca9190617574565b73ffffffffffffffffffffffffffffffffffffffff161480156151fd57506151fc672007ea7518cf557860c01b6161ff565b5b80615248575061520f86868585614da0565b801561522b575061522a6731d1539015db4fe860c01b6161ff565b5b8015615247575061524667131a212b7a726c5d60c01b6161ff565b5b5b806152e257506152c5838360098989604051615265929190617538565b908152602001604051809103902060040160008873ffffffffffffffffffffffffffffffffffffffff1673ffffffffffffffffffffffffffffffffffffffff16815260200190815260200160002060000161620a9092919063ffffffff16565b80156152e157506152e067e416b3fa0c9777f860c01b6161ff565b5b5b90505b95945050505050565b600061530467f063b1b00de645a160c01b616161565b615318679502a87f3213085e60c01b616161565b61532c675fb2712e036bc3ad60c01b616161565b600060ff9050615346676d540e73f123d80f60c01b616161565b61535a67d5cc48c40b7ad1dc60c01b616161565b8060ff168360ff1610801561537f575061537e6715d9dd2c3162558660c01b6162a9565b5b8061539a575061539967eac2505bbd6fee5960c01b6162b4565b5b6153a457806153b2565b6001836153b19190617e5c565b5b915050919050565b6153ce670e8232d27744caf560c01b616161565b6153e2679bf410ea8719f75360c01b616161565b6153f667b59e28238e586ed860c01b616161565b61540a677b5eb5292d1d863f60c01b616161565b6154158383836162bb565b615454576040517f08c379a000000000000000000000000000000000000000000000000000000000815260040161544b90617e87565b60405180910390fd5b61546867c17f21e63876e11560c01b616161565b61547c67dd67222d7c19483760c01b616161565b8260000160008273ffffffffffffffffffffffffffffffffffffffff1673ffffffffffffffffffffffffffffffffffffffff16815260200190815260200160002060006101000a81549060ff02191690556154e16744b9182ed0da643560c01b616161565b6154f5676051a329e7e43d1b60c01b616161565b60008360010160008460ff1660ff168152602001908152602001600020905061552867a61e09d9e73076cb60c01b616161565b61553c67990eaed14110af3560c01b616161565b60008160010160008473ffffffffffffffffffffffffffffffffffffffff1673ffffffffffffffffffffffffffffffffffffffff16815260200190815260200160002054905061559667dd7446314b34c57160c01b616161565b81600001600183600001805490506155ae9190617679565b815481106155bf576155be617697565b5b9060005260206000200160009054906101000a900473ffffffffffffffffffffffffffffffffffffffff16826000018281548110615600576155ff617697565b5b9060005260206000200160006101000a81548173ffffffffffffffffffffffffffffffffffffffff021916908373ffffffffffffffffffffffffffffffffffffffff16021790555061565c67deb9b75feabc003560c01b616161565b8082600101600084600001848154811061567957615678617697565b5b9060005260206000200160009054906101000a900473ffffffffffffffffffffffffffffffffffffffff1673ffffffffffffffffffffffffffffffffffffffff1673ffffffffffffffffffffffffffffffffffffffff168152602001908152602001600020819055506156f66735ed53f69b6f367060c01b616161565b61570a67aa0584307a9c2c0f60c01b616161565b8160000180548061571e5761571d6176ad565b5b6001900381819060005260206000200160006101000a81549073ffffffffffffffffffffffffffffffffffffffff0219169055905561576767ac156066b9a6407460c01b616161565b61577b67e45621e8e605761660c01b616161565b3373ffffffffffffffffffffffffffffffffffffffff168373ffffffffffffffffffffffffffffffffffffffff168560ff167f5a8379f4a3380f87fd5924475f76a3471ac8d775668601653e3f9ef69a3dd27160405160405180910390a45050505050565b6157f46737daa7aa0d79c09e60c01b610d12565b615808674f0b55b7c2e0883760c01b610d12565b61581c677e14e2a70faa2afd60c01b610d12565b60008151905061583667e7954f1efe297e7d60c01b610d12565b61584a673529ede08219218860c01b610d12565b60005b8181101561592d5761586967701f0464e403c39360c01b610d12565b61587d6756d6182019d7a66260c01b610d12565b61590e8484838151811061589457615893617697565b5b602002602001015160098a8a6040516158ae929190617538565b908152602001604051809103902060040160008973ffffffffffffffffffffffffffffffffffffffff1673ffffffffffffffffffffffffffffffffffffffff1681526020019081526020016000206000016153ba9092919063ffffffff16565b61592267d14ab006a8ddaa2e60c01b610d12565b80600101905061584d565b50505050505050565b61594a67ecc9d562a8ce08c360c01b616161565b82615954836152ee565b61596867d42e09913bf0537560c01b616161565b61597c675b1e275b35668e0a60c01b616161565b6159906715ca8937f35ef1f960c01b616161565b61599a8282615af9565b6159ae6723f6bc8add3c7bf160c01b616161565b6159c26757ad07b58ac9532460c01b616161565b6159d667fefb5e62a27b44c660c01b616161565b6159ea6712d88b908df8213660c01b616161565b6159fe67442d289b92bfe3e960c01b616161565b615a098585856153ba565b5050505050565b6060615a2667e0fc319ab759428d60c01b616161565b615a3a6710f5fcfecc41ec7c60c01b616161565b615a4e676e2a97b3b3dbc32660c01b616161565b8260010160008360ff1660ff168152602001908152602001600020600001805480602002602001604051908101604052809291908181526020018280548015615aec57602002820191906000526020600020905b8160009054906101000a900473ffffffffffffffffffffffffffffffffffffffff1673ffffffffffffffffffffffffffffffffffffffff1681526020019060010190808311615aa2575b5050505050905092915050565b615b0d67c2fef8638faef38360c01b616161565b615b216713657af0cb321c1860c01b616161565b615b35679d75c1989c1eac5760c01b616161565b615b4082823361636b565b5050565b615b58675b9324c02babe87860c01b616161565b82615b62836152ee565b615b7667d42e09913bf0537560c01b616161565b615b8a675b1e275b35668e0a60c01b616161565b615b9e6715ca8937f35ef1f960c01b616161565b615ba88282615af9565b615bbc6723f6bc8add3c7bf160c01b616161565b615bd067a421cca631caa2e660c01b616161565b615be46750562a3e07d8821360c01b616161565b615bf8671d73e8f6865d782060c01b616161565b615c0c679c59bc127cc1c5e360c01b616161565b615c17858585614ac3565b5050505050565b80471015615c61576040517f08c379a0000000000000000000000000000000000000000000000000000000008152600401615c5890617eeb565b60405180910390fd5b60008273ffffffffffffffffffffffffffffffffffffffff1682604051615c8790617f29565b60006040518083038185875af1925050503d8060008114615cc4576040519150601f19603f3d011682016040523d82523d6000602084013e615cc9565b606091505b5050905080615d0d576040517f08c379a0000000000000000000000000000000000000000000000000000000008152600401615d0490617f33565b60405180910390fd5b505050565b615d266728422b3062c0cf6360c01b610d12565b615d3a67458194950612e79360c01b610d12565b615d4e6770c8d1cb20d0962d60c01b610d12565b615d6267b7e1e380ecc2fc3260c01b610d12565b60068383604051615d74929190617538565b908152602001604051809103902060009054906101000a900460ff1615615dd0576040517f08c379a0000000000000000000000000000000000000000000000000000000008152600401615dc790617f97565b60405180910390fd5b615de467e09d4986023bad9c60c01b610d12565b615df867b7f34a47a6a1fcee60c01b610d12565b600160068484604051615e0c929190617538565b908152602001604051809103902060006101000a81548160ff021916908315150217905550615e4567e49eb4dad930f15360c01b610d12565b615e5967fd9b88977420707560c01b610d12565b6008838390918060018154018082558091505060019003906000526020600020016000909192909192909192909192509190615e96929190616b9a565b50615eab671078420ab1f2f24060c01b610d12565b615ebf67d7f1884d216c3b3660c01b610d12565b615ef760808260098686604051615ed7929190617538565b9081526020016040518091039020600001614ac39092919063ffffffff16565b615f0b67ede25aa4b4862b0160c01b610d12565b615f1e6608ef969d4345b560c01b610d12565b8073ffffffffffffffffffffffffffffffffffffffff168383604051615f45929190617538565b60405180910390207f8c72e65042c2a426e9d24cb06a7fbbbfe85252539874435125d88912f067606942604051615f7c919061746a565b60405180910390a3505050565b61600c846323b872dd60e01b858585604051602401615faa93929190617ffb565b604051602081830303815290604052907bffffffffffffffffffffffffffffffffffffffffffffffffffffffff19166020820180517bffffffffffffffffffffffffffffffffffffffffffffffffffffffff838183161783525050505061647c565b50505050565b600081148061609c575060008373ffffffffffffffffffffffffffffffffffffffff1663dd62ed3e30856040518363ffffffff1660e01b8152600401616059929190617550565b602060405180830381865afa158015616076573d6000803e3d6000fd5b505050506040513d601f19601f8201168201806040525081019061609a9190617b77565b145b6160db576040517f08c379a00000000000000000000000000000000000000000000000000000000081526004016160d290618026565b60405180910390fd5b61615c8363095ea7b360e01b84846040516024016160fa92919061808a565b604051602081830303815290604052907bffffffffffffffffffffffffffffffffffffffffffffffffffffffff19166020820180517bffffffffffffffffffffffffffffffffffffffffffffffffffffffff838183161783525050505061647c565b505050565b50565b600061617a6708aacea2d6dcb6be60c01b616161565b61618e674d93f63aee4b3c3660c01b616161565b6161a2677e82d36ff34db18560c01b616161565b60008360000160008473ffffffffffffffffffffffffffffffffffffffff1673ffffffffffffffffffffffffffffffffffffffff16815260200190815260200160002060009054906101000a900460ff1660ff1611905092915050565b600060019050919050565b600061622067e6e2add08091298760c01b616161565b61623467c37ceb7d46cf76eb60c01b616161565b61624867caed08444b1e5a8860c01b616161565b8260ff168460000160008473ffffffffffffffffffffffffffffffffffffffff1673ffffffffffffffffffffffffffffffffffffffff16815260200190815260200160002060009054906101000a900460ff1660ff16101590509392505050565b600060019050919050565b6000919050565b60006162d167bcc6de0f14566d9960c01b616161565b6162e5673a0efea62537aebb60c01b616161565b6162f9678d610f39b1fcbb5a60c01b616161565b6163038483616164565b801561636257508260ff168460000160008473ffffffffffffffffffffffffffffffffffffffff1673ffffffffffffffffffffffffffffffffffffffff16815260200190815260200160002060009054906101000a900460ff1660ff16145b90509392505050565b61637f67893c242f46f05f7f60c01b616161565b6163936720c99b8788ed26d660c01b616161565b6163a767287fdae9040b922b60c01b616161565b6163b283838361620a565b616463576163ca670424ed87cc5cb80c60c01b616161565b6163de6799c1fe78cf0ca63460c01b616161565b6163f2671db55d9008fc5ec160c01b616161565b6163fb81616543565b6164078360ff16616570565b6040516020016164189291906180aa565b6040516020818303038152906040526040517f08c379a000000000000000000000000000000000000000000000000000000000815260040161645a919061747b565b60405180910390fd5b61647767fec275e6c5b327c060c01b616161565b505050565b60006164de826040518060400160405280602081526020017f5361666545524332303a206c6f772d6c6576656c2063616c6c206661696c65648152508573ffffffffffffffffffffffffffffffffffffffff1661663e9092919063ffffffff16565b905060008151111561653e57808060200190518101906164fe9190617cec565b61653d576040517f08c379a000000000000000000000000000000000000000000000000000000000815260040161653490618131565b60405180910390fd5b5b505050565b60606165698273ffffffffffffffffffffffffffffffffffffffff16601460ff16616656565b9050919050565b60606000600161657f84616892565b01905060008167ffffffffffffffff81111561659e5761659d61739f565b5b6040519080825280601f01601f1916602001820160405280156165d05781602001600182028036833780820191505090505b509050600082602001820190505b600115616633578080600190039150507f3031323334353637383961626364656600000000000000000000000000000000600a86061a8153600a858161662757616626618195565b5b049450600085036165de575b819350505050919050565b606061664d84846000856169e5565b90509392505050565b60606000600283600261666991906181ab565b61667391906181d1565b67ffffffffffffffff81111561668c5761668b61739f565b5b6040519080825280601f01601f1916602001820160405280156166be5781602001600182028036833780820191505090505b5090507f3000000000000000000000000000000000000000000000000000000000000000816000815181106166f6576166f5617697565b5b60200101907effffffffffffffffffffffffffffffffffffffffffffffffffffffffffffff1916908160001a9053507f78000000000000000000000000000000000000000000000000000000000000008160018151811061675a57616759617697565b5b60200101907effffffffffffffffffffffffffffffffffffffffffffffffffffffffffffff1916908160001a9053506000600184600261679a91906181ab565b6167a491906181d1565b90505b6001811115616844577f3031323334353637383961626364656600000000000000000000000000000000600f8616601081106167e6576167e5617697565b5b1a60f81b8282815181106167fd576167fc617697565b5b60200101907effffffffffffffffffffffffffffffffffffffffffffffffffffffffffffff1916908160001a905350600485901c94508061683d906181f0565b90506167a7565b5060008414616888576040517f08c379a000000000000000000000000000000000000000000000000000000000815260040161687f9061820c565b60405180910390fd5b8091505092915050565b600080600090507a184f03e93ff9f4daa797ed6e38ed64bf6a1f01000000000000000083106168f0577a184f03e93ff9f4daa797ed6e38ed64bf6a1f01000000000000000083816168e6576168e5618195565b5b0492506040810190505b6d04ee2d6d415b85acef8100000000831061692d576d04ee2d6d415b85acef8100000000838161692357616922618195565b5b0492506020810190505b662386f26fc10000831061695c57662386f26fc10000838161695257616951618195565b5b0492506010810190505b6305f5e1008310616985576305f5e100838161697b5761697a618195565b5b0492506008810190505b61271083106169aa5761271083816169a05761699f618195565b5b0492506004810190505b606483106169cd57606483816169c3576169c2618195565b5b0492506002810190505b600a83106169dc576001810190505b80915050919050565b606082471015616a2a576040517f08c379a0000000000000000000000000000000000000000000000000000000008152600401616a2190618249565b60405180910390fd5b6000808673ffffffffffffffffffffffffffffffffffffffff168587604051616a5391906182ad565b60006040518083038185875af1925050503d8060008114616a90576040519150601f19603f3d011682016040523d82523d6000602084013e616a95565b606091505b5091509150616aa687838387616ab2565b92505050949350505050565b60608315616b14576000835103616b0c57616acc85616b27565b616b0b576040517f08c379a0000000000000000000000000000000000000000000000000000000008152600401616b02906182cb565b60405180910390fd5b5b829050616b1f565b616b1e8383616b4a565b5b949350505050565b6000808273ffffffffffffffffffffffffffffffffffffffff163b119050919050565b600082511115616b5d5781518083602001fd5b806040517f08c379a0000000000000000000000000000000000000000000000000000000008152600401616b91919061747b565b60405180910390fd5b828054616ba6906176c3565b90600052602060002090601f016020900481019282616bc85760008555616c0f565b82601f10616be157803560ff1916838001178555616c0f565b82800160010185558215616c0f579182015b82811115616c0e578235825591602001919060010190616bf3565b5b509050616c1c9190616c20565b5090565b5b80821115616c39576000816000905550600101616c21565b5090565b60208152601c60208201527f4d617374657253746174696f6e3a205061796d656e7473206f6e6c790000000060408201526000606082019050919050565b60018060a01b0381168114616c8f57600080fd5b50565b600060208284031215616ca457600080fd5b8135616caf81616c7b565b8091505092915050565b60008083601f840112616ccb57600080fd5b8235905067ffffffffffffffff811115616ce457600080fd5b602083019150836020828501011115616cfc57600080fd5b9250929050565b60008135905060ff81168114616d1857600080fd5b919050565b60008060008060608587031215616d3357600080fd5b843567ffffffffffffffff811115616d4a57600080fd5b616d5687828801616cb9565b91508095505080935050616d6c60208601616d03565b91506040850135616d7c81616c7b565b8091505092959194509250565b600060208201905060ff8316825292915050565b60008060408385031215616db057600080fd5b616db983616d03565b91506020830135616dc981616c7b565b809150509250929050565b6000602082019050821515825292915050565b600080600080600060808688031215616dff57600080fd5b853567ffffffffffffffff811115616e1657600080fd5b616e2288828901616cb9565b915080965050809450506020860135616e3a81616c7b565b80935050616e4a60408701616d03565b91506060860135616e5a81616c7b565b809150509295509295909350565b60008060008060608587031215616e7e57600080fd5b843567ffffffffffffffff811115616e9557600080fd5b616ea187828801616cb9565b915080955050809350506020850135616eb981616c7b565b809250506040850135616ecb81616c7b565b8091505092959194509250565b600080600060408486031215616eed57600080fd5b833567ffffffffffffffff811115616f0457600080fd5b616f1086828701616cb9565b915080945050809250506020840135616f2881616c7b565b809150509250925092565b600060208284031215616f4557600080fd5b8135616f5081616c7b565b8091505092915050565b60006020808301818452808551808352604086019150838701925060005b81811015616fa15760018060a01b03845116835284830192508484019350600181019050616f78565b505080935050505092915050565b600060208284031215616fc157600080fd5b8135905092915050565b600060208201905060018060a01b038316825292915050565b60005b83811015617002578082015181840152602081019050616fe7565b83811115617011576000848401525b50505050565b6000815180845261702f816020860160208601616fe4565b6020601f19601f83011685010191505092915050565b6000602080830181845280855180835260408601915060408160051b870101925083870160005b8281101561709f57603f19888603018452617088858351617017565b94508582019150858401935060018101905061706c565b50505050809250505092915050565b600080602083850312156170c157600080fd5b823567ffffffffffffffff8111156170d857600080fd5b6170e485828601616cb9565b915080935050809150509250929050565b6000602080830181845280855180835260409250828601915083870160005b8281101561714857815160018060a01b03815116855286810151878601525084840193508582019150600181019050617114565b50505080935050505092915050565b60006020828403121561716957600080fd5b813561717481616c7b565b8091505092915050565b600060208201905060018060a01b038316825292915050565b600080600080606085870312156171ad57600080fd5b843567ffffffffffffffff808211156171c557600080fd5b6171d188838901616cb9565b9250809650508194506020870135935060408701359150808211156171f557600080fd5b508086019050610100818803121561720c57600080fd5b8091505092959194509250565b600060208201905060018060a01b038316825292915050565b600060c0828403121561724457600080fd5b81905092915050565b60008083601f84011261725f57600080fd5b8235905067ffffffffffffffff81111561727857600080fd5b60208301915083602060608302850101111561729357600080fd5b9250929050565b600080600060e084860312156172af57600080fd5b6172b98585617232565b925060c084013567ffffffffffffffff8111156172d557600080fd5b6172e18682870161724d565b915080935050809150509250925092565b60006020828403121561730457600080fd5b813561730f81616c7b565b8091505092915050565b60008060006040848603121561732e57600080fd5b833567ffffffffffffffff8082111561734657600080fd5b61735287838801617232565b9450602086013591508082111561736857600080fd5b506173758682870161724d565b915080935050809150509250925092565b600060208201905060018060a01b038316825292915050565b634e487b7160e01b600052604160045260246000fd5b6000602082840312156173c757600080fd5b813567ffffffffffffffff808211156173df57600080fd5b818401915084601f8301126173f357600080fd5b8135818111156174065761740561739f565b5b601f1960405181603f83601f86011601168101915080821084831117156174305761742f61739f565b5b8160405282815287602084870101111561744957600080fd5b82602086016020830137600060208483010152809550505050505092915050565b600060208201905082825292915050565b60208152600061748e6020830184617017565b905092915050565b60208152602b60208201527f4d617374657253746174696f6e3a204e6f74206861766520616363657373207460408201527f6f20746865206272616e6400000000000000000000000000000000000000000060608201526000608082019050919050565b60208152601f60208201527f4d617374657253746174696f6e3a2043616e742073656c662d7265766f6b650060408201526000606082019050919050565b81838237600082820160008152809150509392505050565b600060408201905060018060a01b0380851683528084166020840152509392505050565b60006020828403121561758657600080fd5b815161759181616c7b565b8091505092915050565b60208152602460208201527f4d617374657253746174696f6e3a20436f6c6c656374696f6e206f776e65722060408201527f6f6e6c790000000000000000000000000000000000000000000000000000000060608201526000608082019050919050565b60208152602460208201527f4d617374657253746174696f6e3a20416c7265616479206e6f742076616c696460408201527f61746f720000000000000000000000000000000000000000000000000000000060608201526000608082019050919050565b634e487b7160e01b600052601160045260246000fd5b60008282101561768c5761768b617663565b5b828203905092915050565b634e487b7160e01b600052603260045260246000fd5b634e487b7160e01b600052603160045260246000fd5b60008160011c905060018216806176db57607f821691505b6020821081036176fb57634e487b7160e01b600052602260045260246000fd5b50919050565b60208152603260208201527f4d617374657253746174696f6e3a204272616e6420646f6573206e6f7420686160408201527f7665207468697320636f6c6c656374696f6e000000000000000000000000000060608201526000608082019050919050565b60208152602660208201527f4d617374657253746174696f6e3a204e6f6e2d6578697374656e7420636f6c6c60408201527f656374696f6e000000000000000000000000000000000000000000000000000060608201526000608082019050919050565b60208152602160208201527f4d617374657253746174696f6e3a20496e636f7272656374206465706c6f796560408201527f720000000000000000000000000000000000000000000000000000000000000060608201526000608082019050919050565b818352818160208501375060006020828401015260006020601f19601f840116840101905092915050565b6000808335601e1984360301811261786f57600080fd5b8381019050803591506020810192505067ffffffffffffffff81111561789457600080fd5b8036038313156178a357600080fd5b9250929050565b6000813590506bffffffffffffffffffffffff811681146178ca57600080fd5b919050565b6bffffffffffffffffffffffff811682525050565b600081359050600381106178f757600080fd5b919050565b6003811061791a57634e487b7160e01b600052602160045260246000fd5b8082525050565b60808152600061793560808301878961782d565b60018060a01b0386166020840152846040840152828103606084015261010061795e8586617858565b82845261796e838501828461782d565b9250505061797f6020860186617858565b838303602085015261799283828461782d565b925050506179a36040860186617858565b83830360408501526179b683828461782d565b92505050606085013560608301526080850135608083015260a085013560a08301526179e460c086016178aa565b6179f160c08401826178cf565b506179fe60e086016178e4565b617a0b60e08401826178fc565b5080925050509695505050505050565b600060408201905083825260018060a01b03831660208301529392505050565b60208152602e60208201527f4d617374657253746174696f6e3a204e6f74206861766520616363657373207460408201527f6f2074686520706c6174666f726d00000000000000000000000000000000000060608201526000608082019050919050565b8183526000602080850194508260005b85811015617af05760ff617ac283616d03565b1687528282013583880152604080830135818901525060608088019750808301925050600181019050617aaf565b5050508390509392505050565b60008435617b0a81616c7b565b60018060a01b03808216845260208701359150617b2682616c7b565b8082166020850152505060408501356040830152606085013560608301526080850135608083015260a085013560a083015260e060c0830152617b6d60e083018486617a9f565b9050949350505050565b600060208284031215617b8957600080fd5b8151905092915050565b602081526020808201527f4d617374657253746174696f6e3a20416c72656164792076616c696461746f7260408201526000606082019050919050565b60208152601f60208201527f4d617374657253746174696f6e3a20496e636f72726563742073656e6465720060408201526000606082019050919050565b6000808335601e19843603018112617c2557600080fd5b80840190508035915067ffffffffffffffff821115617c4357600080fd5b60208101925050803603821315617c5957600080fd5b9250929050565b604081526000617c708586617858565b60c06040850152617c866101008501828461782d565b9150506020860135617c9781616c7b565b60018060a01b03811660608501525060408601356080840152606086013560a0840152608086013560c084015260a086013560e08401528281036020840152617ce1818587617a9f565b915050949350505050565b600060208284031215617cfe57600080fd5b81518015158114617d0e57600080fd5b8091505092915050565b60208152601d60208201527f4d617374657253746174696f6e3a205061796d656e74206661696c656400000060408201526000606082019050919050565b60208152603060208201527f4d617374657253746174696f6e3a204e6f74206861766520616363657373207460408201527f6f2074686520636f6c6c656374696f6e0000000000000000000000000000000060608201526000608082019050919050565b60208152601f60208201527f416363657373436f6e74726f6c3a20416c72656164792068617320726f6c650060408201526000606082019050919050565b60208152602160208201527f4d617374657253746174696f6e3a204e6f6e2d6578697374656e74206272616e60408201527f640000000000000000000000000000000000000000000000000000000000000060608201526000608082019050919050565b600060ff821660ff84168060ff03821115617e7a57617e79617663565b5b8082019250505092915050565b60208152602260208201527f416363657373436f6e74726f6c3a20416c726561647920686173206e6f20726f60408201527f6c6500000000000000000000000000000000000000000000000000000000000060608201526000608082019050919050565b60208152601d60208201527f416464726573733a20696e73756666696369656e742062616c616e636500000060408201526000606082019050919050565b6000819050919050565b60208152603a60208201527f416464726573733a20756e61626c6520746f2073656e642076616c75652c207260408201527f6563697069656e74206d6179206861766520726576657274656400000000000060608201526000608082019050919050565b60208152602260208201527f4d617374657253746174696f6e3a204272616e6420616c72656164792065786960408201527f737400000000000000000000000000000000000000000000000000000000000060608201526000608082019050919050565b600060608201905060018060a01b038086168352808516602084015250826040830152949350505050565b60208152603660208201527f5361666545524332303a20617070726f76652066726f6d206e6f6e2d7a65726f60408201527f20746f206e6f6e2d7a65726f20616c6c6f77616e63650000000000000000000060608201526000608082019050919050565b600060408201905060018060a01b03841682528260208301529392505050565b7f416363657373436f6e74726f6c3a206163636f756e74200000000000000000008152600083516180e2816017850160208801616fe4565b80830190507f206973206d697373696e6720726f6c652077697468206c6576656c200000000060178201528351618120816033840160208801616fe4565b603381830101925050509392505050565b60208152602a60208201527f5361666545524332303a204552433230206f7065726174696f6e20646964206e60408201527f6f7420737563636565640000000000000000000000000000000000000000000060608201526000608082019050919050565b634e487b7160e01b600052601260045260246000fd5b60008160001904831182151516156181c6576181c5617663565b5b828202905092915050565b600082198211156181e5576181e4617663565b5b828201905092915050565b600081618200576181ff617663565b5b60001982019050919050565b602081526020808201527f537472696e67733a20686578206c656e67746820696e73756666696369656e7460408201526000606082019050919050565b60208152602660208201527f416464726573733a20696e73756666696369656e742062616c616e636520666f60408201527f722063616c6c000000000000000000000000000000000000000000000000000060608201526000608082019050919050565b600082516182bf818460208701616fe4565b80830191505092915050565b60208152601d60208201527f416464726573733a2063616c6c20746f206e6f6e2d636f6e74726163740000006040820152600060608201905091905056fea264697066735822122007515bc829bd819b708d0db283d6bfe5eac92c1310677e3caca52289ebc68d2f64736f6c634300080d0033",
  "linkReferences": {},
  "deployedLinkReferences": {}
}