{
  "_format": "hh-sol-artifact-1",
  "contractName": "Factory",
  "sourceName": "contracts/develompent/Factory.sol",
  "abi": [
    {
      "inputs": [
        {
          "internalType": "address",
          "name": "_masterStation",
          "type": "address"
        },
        {
          "internalType": "address",
          "name": "_implementation",
          "type": "address"
        }
      ],
      "stateMutability": "nonpayable",
      "type": "constructor"
    },
    {
      "anonymous": false,
      "inputs": [
        {
          "indexed": true,
          "internalType": "string",
          "name": "brand",
          "type": "string"
        },
        {
          "indexed": true,
          "internalType": "string",
          "name": "name",
          "type": "string"
        },
        {
          "indexed": true,
          "internalType": "string",
          "name": "symbol",
          "type": "string"
        },
        {
          "indexed": false,
          "internalType": "address",
          "name": "deployer",
          "type": "address"
        },
        {
          "indexed": false,
          "internalType": "uint256",
          "name": "supplyLimit",
          "type": "uint256"
        },
        {
          "indexed": false,
          "internalType": "address",
          "name": "collectionAddress",
          "type": "address"
        }
      ],
      "name": "CollectionDeployed",
      "type": "event"
    },
    {
      "inputs": [
        {
          "internalType": "string",
          "name": "_brand",
          "type": "string"
        },
        {
          "internalType": "address",
          "name": "_creator",
          "type": "address"
        },
        {
          "internalType": "uint256",
          "name": "_supplyLimit",
          "type": "uint256"
        },
        {
          "components": [
            {
              "internalType": "string",
              "name": "name",
              "type": "string"
            },
            {
              "internalType": "string",
              "name": "symbol",
              "type": "string"
            },
            {
              "internalType": "string",
              "name": "baseURI",
              "type": "string"
            },
            {
              "internalType": "bytes32",
              "name": "whitelist",
              "type": "bytes32"
            },
            {
              "internalType": "bytes32",
              "name": "bookingList",
              "type": "bytes32"
            },
            {
              "internalType": "uint256",
              "name": "publicMintTokensLimit",
              "type": "uint256"
            },
            {
              "internalType": "uint96",
              "name": "earnings",
              "type": "uint96"
            },
            {
              "internalType": "enum ICollectionData.MintStage",
              "name": "mintStage",
              "type": "uint8"
            }
          ],
          "internalType": "struct ICollectionData.CollectionData",
          "name": "_data",
          "type": "tuple"
        }
      ],
      "name": "deployCollection",
      "outputs": [
        {
          "internalType": "address",
          "name": "collection",
          "type": "address"
        }
      ],
      "stateMutability": "nonpayable",
      "type": "function"
    },
    {
      "inputs": [
        {
          "internalType": "uint256",
          "name": "",
          "type": "uint256"
        }
      ],
      "name": "deployedCollections",
      "outputs": [
        {
          "internalType": "address",
          "name": "",
          "type": "address"
        }
      ],
      "stateMutability": "view",
      "type": "function"
    },
    {
      "inputs": [],
      "name": "deployedCollectionsLength",
      "outputs": [
        {
          "internalType": "uint256",
          "name": "",
          "type": "uint256"
        }
      ],
      "stateMutability": "view",
      "type": "function"
    },
    {
      "inputs": [],
      "name": "implementation",
      "outputs": [
        {
          "internalType": "address",
          "name": "",
          "type": "address"
        }
      ],
      "stateMutability": "view",
      "type": "function"
    },
    {
      "inputs": [],
      "name": "masterStation",
      "outputs": [
        {
          "internalType": "address",
          "name": "",
          "type": "address"
        }
      ],
      "stateMutability": "view",
      "type": "function"
    }
  ],
  "bytecode": "0x60c060405234801561001057600080fd5b506040516122b73803806122b783398181016040528101906100329190610111565b61004c67249f70955c4af36360c01b6100ef60201b60201c565b610066674c8d3127c1e287c160c01b6100ef60201b60201c565b8173ffffffffffffffffffffffffffffffffffffffff1660808173ffffffffffffffffffffffffffffffffffffffff16815250506100b467f97e32cd7b234abf60c01b6100ef60201b60201c565b8073ffffffffffffffffffffffffffffffffffffffff1660a08173ffffffffffffffffffffffffffffffffffffffff16815250505050610144565b50565b60008151905060018060a01b038116811461010c57600080fd5b919050565b6000806040838503121561012457600080fd5b61012d836100f2565b915061013b602084016100f2565b90509250929050565b60805160a05161213961017e60003960008181610177015261039301526000818161019b0152818161026701526104a001526121396000f3fe60806040523480156200001157600080fd5b50600436106200005e5760003560e01c806331d9b40914620000635780635c60da1b146200009957806388aa07c214620000bb578063f893bf4414620000dd578063f8d3b27314620000ff575b600080fd5b6200008160048036038101906200007b91906200067d565b62000135565b6040516200009091906200069a565b60405180910390f35b620000a362000175565b604051620000b291906200069a565b60405180910390f35b620000c562000199565b604051620000d491906200069a565b60405180910390f35b620000e7620001bd565b604051620000f69190620006b3565b60405180910390f35b6200011d6004803603810190620001179190620007e5565b6200020b565b6040516200012c91906200069a565b60405180910390f35b600081815481106200014657600080fd5b906000526020600020016000915054906101000a900473ffffffffffffffffffffffffffffffffffffffff1681565b7f000000000000000000000000000000000000000000000000000000000000000081565b7f000000000000000000000000000000000000000000000000000000000000000081565b6000620001d5677fcf73e9db1a5d2560c01b6200066c565b620001eb678f40dad328967e6060c01b6200066c565b62000200667c3f7dc1af448060c01b6200066c565b600080549050905090565b600062000223678ae8fb6fb32df81960c01b6200066c565b6200023967c0b8ec3d67f7056a60c01b6200066c565b6200024f67843c29b9e6dea92d60c01b6200066c565b620002656709968e1aebfd900260c01b6200066c565b7f000000000000000000000000000000000000000000000000000000000000000073ffffffffffffffffffffffffffffffffffffffff163373ffffffffffffffffffffffffffffffffffffffff1614620002f6576040517f08c379a0000000000000000000000000000000000000000000000000000000008152600401620002ed9062000943565b60405180910390fd5b6200030c67639ad6e25fb924f860c01b6200066c565b62000322679b0d83d13dd744da60c01b6200066c565b6200033867fce130939ef8892f60c01b6200066c565b6000604051806020016200034c906200066f565b6020820181038252601f19601f82011660405250905062000378676d2a7d1af0cb32e860c01b6200066c565b6200038e672dc28a79057fb20d60c01b6200066c565b6000817f0000000000000000000000000000000000000000000000000000000000000000604051602001620003c491906200069a565b604051602081830303815290604052604051602001620003e6929190620009b7565b60405160208183030381529060405290506200040d677b1527cd22e38a1360c01b6200066c565b6200042367a9c553c5f18ef56560c01b6200066c565b60006200042f620001bd565b60001b90506200044a6706b4c98551655e8d60c01b6200066c565b808251602084016000f593506200046c6794b04ecf035cfcfd60c01b6200066c565b62000482672f8c1e0180c43aad60c01b6200066c565b8373ffffffffffffffffffffffffffffffffffffffff1663a55137147f00000000000000000000000000000000000000000000000000000000000000008a8a8a8a6040518663ffffffff1660e01b8152600401620004e595949392919062000a5b565b600060405180830381600087803b1580156200050057600080fd5b505af115801562000515573d6000803e3d6000fd5b505050506200052f672332929b55284d3260c01b6200066c565b6200054567e6449472788fee4e60c01b6200066c565b6000849080600181540180825580915050600190039060005260206000200160009091909190916101000a81548173ffffffffffffffffffffffffffffffffffffffff021916908373ffffffffffffffffffffffffffffffffffffffff160217905550620005be67aad6570f808d26d960c01b6200066c565b620005d467739cf4f7ca4e6a5d60c01b6200066c565b8460200151604051620005e8919062000b3f565b6040518091039020856000015160405162000604919062000b3f565b6040518091039020896040516200061c919062000b3f565b60405180910390207ff14f8a9be5ae13caa49eebdc156977e43eb72d90175f92f6202d266b1b9a68108a8a89604051620006599392919062000b5f565b60405180910390a4505050949350505050565b50565b6115798062000b8b83390190565b6000602082840312156200069057600080fd5b8135905092915050565b600060208201905060018060a01b038316825292915050565b600060208201905082825292915050565b634e487b7160e01b600052604160045260246000fd5b60006040519050610100810181811067ffffffffffffffff82111715620007065762000705620006c4565b5b806040525090565b600082601f8301126200072057600080fd5b813567ffffffffffffffff808211156200073f576200073e620006c4565b5b601f1960405181603f83601f87011601168101915080821083831117156200076c576200076b620006c4565b5b816040528381528660208588010111156200078657600080fd5b836020870160208301376000602085830101528094505050505092915050565b6000813590506bffffffffffffffffffffffff81168114620007c757600080fd5b919050565b60008135905060038110620007e057600080fd5b919050565b60008060008060808587031215620007fc57600080fd5b843567ffffffffffffffff808211156200081557600080fd5b62000823888389016200070e565b95506020870135915060018060a01b03821682146200084157600080fd5b8194506040870135935060608701359150808211156200086057600080fd5b818701915061010082890312156200087757600080fd5b62000881620006da565b8235828111156200089157600080fd5b6200089f8a8286016200070e565b825250602083013582811115620008b557600080fd5b620008c38a8286016200070e565b602083015250604083013582811115620008dc57600080fd5b620008ea8a8286016200070e565b604083015250606083013560608201526080830135608082015260a083013560a08201526200091c60c08401620007a6565b60c08201526200092f60e08401620007cc565b60e082015280935050505092959194509250565b60208152601460208201527f466163746f72793a204d6173746572206f6e6c7900000000000000000000000060408201526000606082019050919050565b60005b83811015620009a157808201518184015260208101905062000984565b83811115620009b1576000848401525b50505050565b60008351620009cb81846020880162000981565b80830190508351620009e281836020880162000981565b808201925050509392505050565b6000815180845262000a0a81602086016020860162000981565b6020601f19601f83011685010191505092915050565b6bffffffffffffffffffffffff811682525050565b6003811062000a5457634e487b7160e01b600052602160045260246000fd5b8082525050565b600060018060a01b03808816835260a0602084015262000a7f60a0840188620009f0565b818716604085015285606085015283810360808501526101009150845182825262000aad83830182620009f0565b9250506020850151818303602083015262000ac98382620009f0565b9250506040850151818303604083015262000ae58382620009f0565b925050606085015160608201526080850151608082015260a085015160a082015260c085015162000b1a60c083018262000a20565b5060e085015162000b2f60e083018262000a35565b5050809150509695505050505050565b6000825162000b5381846020870162000981565b80830191505092915050565b600060608201905060018060a01b03808616835284602084015280841660408401525094935050505056fe60806040523480156200001157600080fd5b506040516200157938038062001579833981810160405281019062000037919062000590565b80336040518060200160405280600081525082816200005f828260006200009860201b60201c565b50506200007282620000db60201b60201c565b50505062000091672d8667d9d612dcea60c01b6200013960201b60201c565b506200077b565b620000a9836200013c60201b60201c565b600082511180620000b75750805b15620000d657620000d483836200019360201b620004cc1760201c565b505b505050565b7f7e644d79422f17c01e4894b5f4f588d331ebfa28653d42ae832dc59e38c9798f6200010c620001c960201b60201c565b826040516200011d929190620005c4565b60405180910390a162000136816200022d60201b60201c565b50565b50565b6200014d816200031d60201b60201c565b8073ffffffffffffffffffffffffffffffffffffffff167fbc7cd75a20ee27fd9adebab32041f755214dbc6bffa90cc0225b39da2e5c2d3b60405160405180910390a250565b6060620001c183836040518060600160405280602781526020016200155260279139620003f360201b60201c565b905092915050565b6000620002047fb53127684a568b3173ae13b9f8a6016e243e63b6e8ee1178d6a717850b5d610360001b6200048560201b620004f91760201c565b60000160009054906101000a900473ffffffffffffffffffffffffffffffffffffffff16905090565b600073ffffffffffffffffffffffffffffffffffffffff168173ffffffffffffffffffffffffffffffffffffffff16036200029f576040517f08c379a00000000000000000000000000000000000000000000000000000000081526004016200029690620005e8565b60405180910390fd5b80620002d97fb53127684a568b3173ae13b9f8a6016e243e63b6e8ee1178d6a717850b5d610360001b6200048560201b620004f91760201c565b60000160006101000a81548173ffffffffffffffffffffffffffffffffffffffff021916908373ffffffffffffffffffffffffffffffffffffffff16021790555050565b62000333816200048f60201b620005031760201c565b62000375576040517f08c379a00000000000000000000000000000000000000000000000000000000081526004016200036c906200064c565b60405180910390fd5b80620003af7f360894a13ba1a3210667c828492db98dca3e2076cc3735a920a3ca505d382bbc60001b6200048560201b620004f91760201c565b60000160006101000a81548173ffffffffffffffffffffffffffffffffffffffff021916908373ffffffffffffffffffffffffffffffffffffffff16021790555050565b60606000808573ffffffffffffffffffffffffffffffffffffffff16856040516200041f9190620006e6565b600060405180830381855af49150503d80600081146200045c576040519150601f19603f3d011682016040523d82523d6000602084013e62000461565b606091505b50915091506200047a86838387620004b260201b60201c565b925050509392505050565b6000819050919050565b6000808273ffffffffffffffffffffffffffffffffffffffff163b119050919050565b60608315620005225760008351036200051957620004d6856200048f60201b60201c565b62000518576040517f08c379a00000000000000000000000000000000000000000000000000000000081526004016200050f9062000706565b60405180910390fd5b5b82905062000535565b6200053483836200053d60201b60201c565b5b949350505050565b600082511115620005515781518083602001fd5b806040517f08c379a000000000000000000000000000000000000000000000000000000000815260040162000587919062000744565b60405180910390fd5b600060208284031215620005a357600080fd5b815160018060a01b0381168114620005ba57600080fd5b8091505092915050565b600060408201905060018060a01b0380851683528084166020840152509392505050565b60208152602660208201527f455243313936373a206e65772061646d696e20697320746865207a65726f206160408201527f646472657373000000000000000000000000000000000000000000000000000060608201526000608082019050919050565b60208152602d60208201527f455243313936373a206e657720696d706c656d656e746174696f6e206973206e60408201527f6f74206120636f6e74726163740000000000000000000000000000000000000060608201526000608082019050919050565b60005b83811015620006d0578082015181840152602081019050620006b3565b83811115620006e0576000848401525b50505050565b60008251620006fa818460208701620006b0565b80830191505092915050565b60208152601d60208201527f416464726573733a2063616c6c20746f206e6f6e2d636f6e747261637400000060408201526000606082019050919050565b602081526000825180602084015262000765816040850160208701620006b0565b6040601f19601f83011684010191505092915050565b610dc7806200078b6000396000f3fe60806040526004361061004e5760003560e01c80633659cfe6146100675780634f1ef286146100905780635c60da1b146100ac5780638f283970146100d7578063f851a440146101005761005d565b3661005d5761005b61012b565b005b61006561012b565b005b34801561007357600080fd5b5061008e60048036038101906100899190610a71565b6102c7565b005b6100aa60048036038101906100a59190610a94565b61032d565b005b3480156100b857600080fd5b506100c16103ca565b6040516100ce9190610b17565b60405180910390f35b3480156100e357600080fd5b506100fe60048036038101906100f99190610a71565b610421565b005b34801561010c57600080fd5b50610115610475565b6040516101229190610b17565b60405180910390f35b61013f6795462665ee21ca7b60c01b610526565b6101536770e9fc51ee3a938960c01b610526565b61016767d0f49929416d6c9a60c01b610526565b600080357fffffffff000000000000000000000000000000000000000000000000000000001690506101a3676620d2fa6035fcfa60c01b610526565b6101b767bbeda79bcb5c251160c01b610526565b6101bf610529565b73ffffffffffffffffffffffffffffffffffffffff163373ffffffffffffffffffffffffffffffffffffffff1614801561023d575063a551371460e01b7bffffffffffffffffffffffffffffffffffffffffffffffffffffffff1916817bffffffffffffffffffffffffffffffffffffffffffffffffffffffff1916145b156102935761025667e3d5040716d00b4b60c01b610526565b61026a673ba9a6549485c22a60c01b610526565b61027e67366ea0d92f6834c360c01b610526565b61028e610289610580565b61058f565b6102c4565b6102a7677b967fc26f6ab0ee60c01b610526565b6102bb67e171f52a94336d8060c01b610526565b6102c36105b5565b5b50565b6102cf610529565b73ffffffffffffffffffffffffffffffffffffffff163373ffffffffffffffffffffffffffffffffffffffff16036103215761031c816040518060200160405280600081525060006105cf565b61032a565b61032961012b565b5b50565b610335610529565b73ffffffffffffffffffffffffffffffffffffffff163373ffffffffffffffffffffffffffffffffffffffff16036103bc576103b78383838080601f016020809104026020016040519081016040528093929190818152602001838380828437600081840152601f19601f8201169050808301925050505050505060016105cf565b6103c5565b6103c461012b565b5b505050565b60006103d4610529565b73ffffffffffffffffffffffffffffffffffffffff163373ffffffffffffffffffffffffffffffffffffffff16036104155761040e610580565b905061041e565b61041d61012b565b5b90565b610429610529565b73ffffffffffffffffffffffffffffffffffffffff163373ffffffffffffffffffffffffffffffffffffffff160361046957610464816105fb565b610472565b61047161012b565b5b50565b600061047f610529565b73ffffffffffffffffffffffffffffffffffffffff163373ffffffffffffffffffffffffffffffffffffffff16036104c0576104b9610529565b90506104c9565b6104c861012b565b5b90565b60606104f18383604051806060016040528060278152602001610d6b60279139610647565b905092915050565b6000819050919050565b6000808273ffffffffffffffffffffffffffffffffffffffff163b119050919050565b50565b60006105577fb53127684a568b3173ae13b9f8a6016e243e63b6e8ee1178d6a717850b5d610360001b6104f9565b60000160009054906101000a900473ffffffffffffffffffffffffffffffffffffffff16905090565b600061058a6106cd565b905090565b3660008037600080366000845af43d6000803e80600081146105b0573d6000f35b3d6000fd5b6105bd610724565b6105cd6105c8610580565b61058f565b565b6105d8836107a3565b6000825111806105e55750805b156105f6576105f483836104cc565b505b505050565b7f7e644d79422f17c01e4894b5f4f588d331ebfa28653d42ae832dc59e38c9798f610624610529565b82604051610633929190610b30565b60405180910390a1610644816107f2565b50565b60606000808573ffffffffffffffffffffffffffffffffffffffff16856040516106719190610b87565b600060405180830381855af49150503d80600081146106ac576040519150601f19603f3d011682016040523d82523d6000602084013e6106b1565b606091505b50915091506106c2868383876108d2565b925050509392505050565b60006106fb7f360894a13ba1a3210667c828492db98dca3e2076cc3735a920a3ca505d382bbc60001b6104f9565b60000160009054906101000a900473ffffffffffffffffffffffffffffffffffffffff16905090565b61072c610529565b73ffffffffffffffffffffffffffffffffffffffff163373ffffffffffffffffffffffffffffffffffffffff1603610799576040517f08c379a000000000000000000000000000000000000000000000000000000000815260040161079090610ba5565b60405180910390fd5b6107a1610947565b565b6107ac81610949565b8073ffffffffffffffffffffffffffffffffffffffff167fbc7cd75a20ee27fd9adebab32041f755214dbc6bffa90cc0225b39da2e5c2d3b60405160405180910390a250565b600073ffffffffffffffffffffffffffffffffffffffff168173ffffffffffffffffffffffffffffffffffffffff1603610861576040517f08c379a000000000000000000000000000000000000000000000000000000000815260040161085890610c2f565b60405180910390fd5b8061088e7fb53127684a568b3173ae13b9f8a6016e243e63b6e8ee1178d6a717850b5d610360001b6104f9565b60000160006101000a81548173ffffffffffffffffffffffffffffffffffffffff021916908373ffffffffffffffffffffffffffffffffffffffff16021790555050565b6060831561093457600083510361092c576108ec85610503565b61092b576040517f08c379a000000000000000000000000000000000000000000000000000000000815260040161092290610c93565b60405180910390fd5b5b82905061093f565b61093e8383610a02565b5b949350505050565b565b61095281610503565b610991576040517f08c379a000000000000000000000000000000000000000000000000000000000815260040161098890610cd1565b60405180910390fd5b806109be7f360894a13ba1a3210667c828492db98dca3e2076cc3735a920a3ca505d382bbc60001b6104f9565b60000160006101000a81548173ffffffffffffffffffffffffffffffffffffffff021916908373ffffffffffffffffffffffffffffffffffffffff16021790555050565b600082511115610a155781518083602001fd5b806040517f08c379a0000000000000000000000000000000000000000000000000000000008152600401610a499190610d35565b60405180910390fd5b60008135905060018060a01b0381168114610a6c57600080fd5b919050565b600060208284031215610a8357600080fd5b610a8c82610a52565b905092915050565b600080600060408486031215610aa957600080fd5b610ab284610a52565b9250602084013567ffffffffffffffff80821115610acf57600080fd5b818601915086601f830112610ae357600080fd5b813581811115610af257600080fd5b876020828501011115610b0457600080fd5b6020830194508093505050509250925092565b600060208201905060018060a01b038316825292915050565b600060408201905060018060a01b0380851683528084166020840152509392505050565b60005b83811015610b72578082015181840152602081019050610b57565b83811115610b81576000848401525b50505050565b60008251610b99818460208701610b54565b80830191505092915050565b60208152604260208201527f5472616e73706172656e745570677261646561626c6550726f78793a2061646d60408201527f696e2063616e6e6f742066616c6c6261636b20746f2070726f7879207461726760608201527f65740000000000000000000000000000000000000000000000000000000000006080820152600060a082019050919050565b60208152602660208201527f455243313936373a206e65772061646d696e20697320746865207a65726f206160408201527f646472657373000000000000000000000000000000000000000000000000000060608201526000608082019050919050565b60208152601d60208201527f416464726573733a2063616c6c20746f206e6f6e2d636f6e747261637400000060408201526000606082019050919050565b60208152602d60208201527f455243313936373a206e657720696d706c656d656e746174696f6e206973206e60408201527f6f74206120636f6e74726163740000000000000000000000000000000000000060608201526000608082019050919050565b6020815260008251806020840152610d54816040850160208701610b54565b6040601f19601f8301168401019150509291505056fe416464726573733a206c6f772d6c6576656c2064656c65676174652063616c6c206661696c6564a2646970667358221220c202905cae271ab752434727ae84cb4c58863040a0e00a58bd32386aa5a5e37c64736f6c634300080d0033416464726573733a206c6f772d6c6576656c2064656c65676174652063616c6c206661696c6564a2646970667358221220d41a84e5272f5a91b0b7d78996057f534b108b8c4fd9c3dad4e7a9516bd45a3a64736f6c634300080d0033",
  "linkReferences": {},
  "deployedLinkReferences": {}
}