{
  "_format": "hh-sol-artifact-1",
  "contractName": "Collection",
  "sourceName": "contracts/develompent/token/Collection.sol",
  "abi": [
    {
      "inputs": [],
      "stateMutability": "nonpayable",
      "type": "constructor"
    },
    {
      "anonymous": false,
      "inputs": [
        {
          "indexed": true,
          "internalType": "address",
          "name": "sender",
          "type": "address"
        },
        {
          "indexed": true,
          "internalType": "address",
          "name": "receiver",
          "type": "address"
        },
        {
          "indexed": true,
          "internalType": "uint256",
          "name": "tokenId",
          "type": "uint256"
        }
      ],
      "name": "AdminBookedTokenMinted",
      "type": "event"
    },
    {
      "anonymous": false,
      "inputs": [
        {
          "indexed": true,
          "internalType": "address",
          "name": "owner",
          "type": "address"
        },
        {
          "indexed": true,
          "internalType": "address",
          "name": "approved",
          "type": "address"
        },
        {
          "indexed": true,
          "internalType": "uint256",
          "name": "tokenId",
          "type": "uint256"
        }
      ],
      "name": "Approval",
      "type": "event"
    },
    {
      "anonymous": false,
      "inputs": [
        {
          "indexed": true,
          "internalType": "address",
          "name": "owner",
          "type": "address"
        },
        {
          "indexed": true,
          "internalType": "address",
          "name": "operator",
          "type": "address"
        },
        {
          "indexed": false,
          "internalType": "bool",
          "name": "approved",
          "type": "bool"
        }
      ],
      "name": "ApprovalForAll",
      "type": "event"
    },
    {
      "anonymous": false,
      "inputs": [
        {
          "indexed": true,
          "internalType": "address",
          "name": "sender",
          "type": "address"
        },
        {
          "indexed": true,
          "internalType": "address",
          "name": "receiver",
          "type": "address"
        },
        {
          "indexed": true,
          "internalType": "uint256",
          "name": "tokenId",
          "type": "uint256"
        }
      ],
      "name": "BookedTokenMinted",
      "type": "event"
    },
    {
      "anonymous": false,
      "inputs": [
        {
          "indexed": true,
          "internalType": "address",
          "name": "sender",
          "type": "address"
        },
        {
          "indexed": true,
          "internalType": "bytes32",
          "name": "previousMerkleRoot",
          "type": "bytes32"
        },
        {
          "indexed": true,
          "internalType": "bytes32",
          "name": "actualMerkleRoot",
          "type": "bytes32"
        }
      ],
      "name": "BookingListUpdated",
      "type": "event"
    },
    {
      "anonymous": false,
      "inputs": [
        {
          "indexed": true,
          "internalType": "uint256",
          "name": "token",
          "type": "uint256"
        },
        {
          "indexed": false,
          "internalType": "address[]",
          "name": "creators",
          "type": "address[]"
        },
        {
          "indexed": false,
          "internalType": "uint96[]",
          "name": "creatorsFees",
          "type": "uint96[]"
        }
      ],
      "name": "CreatorsRoyaltyChanged",
      "type": "event"
    },
    {
      "anonymous": false,
      "inputs": [
        {
          "indexed": true,
          "internalType": "address",
          "name": "sender",
          "type": "address"
        },
        {
          "indexed": true,
          "internalType": "enum ICollectionData.MintStage",
          "name": "previousMintStage",
          "type": "uint8"
        },
        {
          "indexed": true,
          "internalType": "enum ICollectionData.MintStage",
          "name": "actualMintStage",
          "type": "uint8"
        }
      ],
      "name": "MintStageChanged",
      "type": "event"
    },
    {
      "anonymous": false,
      "inputs": [
        {
          "indexed": true,
          "internalType": "address",
          "name": "previousOwner",
          "type": "address"
        },
        {
          "indexed": true,
          "internalType": "address",
          "name": "newOwner",
          "type": "address"
        }
      ],
      "name": "OwnershipTransferred",
      "type": "event"
    },
    {
      "anonymous": false,
      "inputs": [
        {
          "indexed": true,
          "internalType": "uint256",
          "name": "token",
          "type": "uint256"
        },
        {
          "indexed": false,
          "internalType": "uint256",
          "name": "paymentAmount",
          "type": "uint256"
        },
        {
          "indexed": false,
          "internalType": "address[]",
          "name": "receivers",
          "type": "address[]"
        },
        {
          "indexed": false,
          "internalType": "uint96[]",
          "name": "shares",
          "type": "uint96[]"
        }
      ],
      "name": "PaymentDistributed",
      "type": "event"
    },
    {
      "anonymous": false,
      "inputs": [
        {
          "indexed": true,
          "internalType": "uint256",
          "name": "previousLimit",
          "type": "uint256"
        },
        {
          "indexed": true,
          "internalType": "uint256",
          "name": "actualLimit",
          "type": "uint256"
        }
      ],
      "name": "PublicMintTokensLimitUpdated",
      "type": "event"
    },
    {
      "anonymous": false,
      "inputs": [
        {
          "indexed": true,
          "internalType": "address",
          "name": "receiver",
          "type": "address"
        },
        {
          "indexed": true,
          "internalType": "uint256",
          "name": "tokenId",
          "type": "uint256"
        }
      ],
      "name": "PublicTokenMinted",
      "type": "event"
    },
    {
      "anonymous": false,
      "inputs": [
        {
          "indexed": true,
          "internalType": "uint256",
          "name": "token",
          "type": "uint256"
        },
        {
          "indexed": true,
          "internalType": "address",
          "name": "receiver",
          "type": "address"
        },
        {
          "indexed": false,
          "internalType": "uint256",
          "name": "amount",
          "type": "uint256"
        }
      ],
      "name": "RoyaltySended",
      "type": "event"
    },
    {
      "anonymous": false,
      "inputs": [
        {
          "indexed": true,
          "internalType": "uint256",
          "name": "token",
          "type": "uint256"
        },
        {
          "indexed": true,
          "internalType": "address",
          "name": "investor",
          "type": "address"
        },
        {
          "indexed": false,
          "internalType": "uint96",
          "name": "investorFee",
          "type": "uint96"
        },
        {
          "indexed": false,
          "internalType": "address[]",
          "name": "creators",
          "type": "address[]"
        },
        {
          "indexed": false,
          "internalType": "uint96[]",
          "name": "creatorsFees",
          "type": "uint96[]"
        }
      ],
      "name": "RoyaltySetted",
      "type": "event"
    },
    {
      "anonymous": false,
      "inputs": [
        {
          "indexed": true,
          "internalType": "address",
          "name": "from",
          "type": "address"
        },
        {
          "indexed": true,
          "internalType": "address",
          "name": "to",
          "type": "address"
        },
        {
          "indexed": true,
          "internalType": "uint256",
          "name": "tokenId",
          "type": "uint256"
        }
      ],
      "name": "Transfer",
      "type": "event"
    },
    {
      "anonymous": false,
      "inputs": [
        {
          "indexed": true,
          "internalType": "address",
          "name": "sender",
          "type": "address"
        },
        {
          "indexed": true,
          "internalType": "bytes32",
          "name": "previousMerkleRoot",
          "type": "bytes32"
        },
        {
          "indexed": true,
          "internalType": "bytes32",
          "name": "actualMerkleRoot",
          "type": "bytes32"
        }
      ],
      "name": "WhitelistUpdated",
      "type": "event"
    },
    {
      "anonymous": false,
      "inputs": [
        {
          "indexed": true,
          "internalType": "address",
          "name": "receiver",
          "type": "address"
        },
        {
          "indexed": true,
          "internalType": "uint256",
          "name": "tokenId",
          "type": "uint256"
        }
      ],
      "name": "WhitelistedTokenMinted",
      "type": "event"
    },
    {
      "anonymous": false,
      "inputs": [
        {
          "indexed": true,
          "internalType": "address",
          "name": "to",
          "type": "address"
        },
        {
          "indexed": true,
          "internalType": "address",
          "name": "token",
          "type": "address"
        },
        {
          "indexed": false,
          "internalType": "uint256",
          "name": "amount",
          "type": "uint256"
        }
      ],
      "name": "Withdrawn",
      "type": "event"
    },
    {
      "inputs": [],
      "name": "ADMINS_BOOKING_ADDRESS",
      "outputs": [
        {
          "internalType": "address",
          "name": "",
          "type": "address"
        }
      ],
      "stateMutability": "view",
      "type": "function"
    },
    {
      "inputs": [],
      "name": "BRAND_ADMIN_ROLE",
      "outputs": [
        {
          "internalType": "uint8",
          "name": "",
          "type": "uint8"
        }
      ],
      "stateMutability": "view",
      "type": "function"
    },
    {
      "inputs": [],
      "name": "COLLECTION_ADMIN_ROLE",
      "outputs": [
        {
          "internalType": "uint8",
          "name": "",
          "type": "uint8"
        }
      ],
      "stateMutability": "view",
      "type": "function"
    },
    {
      "inputs": [],
      "name": "DEFAULT_LIMIT",
      "outputs": [
        {
          "internalType": "uint256",
          "name": "",
          "type": "uint256"
        }
      ],
      "stateMutability": "view",
      "type": "function"
    },
    {
      "inputs": [],
      "name": "DENOMINATOR",
      "outputs": [
        {
          "internalType": "uint96",
          "name": "",
          "type": "uint96"
        }
      ],
      "stateMutability": "view",
      "type": "function"
    },
    {
      "inputs": [],
      "name": "EARNINGS_LIMIT",
      "outputs": [
        {
          "internalType": "uint96",
          "name": "",
          "type": "uint96"
        }
      ],
      "stateMutability": "view",
      "type": "function"
    },
    {
      "inputs": [],
      "name": "LIST_MODERATOR_ROLE",
      "outputs": [
        {
          "internalType": "uint8",
          "name": "",
          "type": "uint8"
        }
      ],
      "stateMutability": "view",
      "type": "function"
    },
    {
      "inputs": [],
      "name": "WHITELIST_ADDITION",
      "outputs": [
        {
          "internalType": "bytes32",
          "name": "",
          "type": "bytes32"
        }
      ],
      "stateMutability": "view",
      "type": "function"
    },
    {
      "inputs": [
        {
          "internalType": "address",
          "name": "to",
          "type": "address"
        },
        {
          "internalType": "uint256",
          "name": "tokenId",
          "type": "uint256"
        }
      ],
      "name": "approve",
      "outputs": [],
      "stateMutability": "nonpayable",
      "type": "function"
    },
    {
      "inputs": [
        {
          "internalType": "address",
          "name": "owner",
          "type": "address"
        }
      ],
      "name": "balanceOf",
      "outputs": [
        {
          "internalType": "uint256",
          "name": "",
          "type": "uint256"
        }
      ],
      "stateMutability": "view",
      "type": "function"
    },
    {
      "inputs": [
        {
          "internalType": "uint256[]",
          "name": "tokensId",
          "type": "uint256[]"
        },
        {
          "internalType": "uint256[]",
          "name": "mintLimits",
          "type": "uint256[]"
        },
        {
          "internalType": "bytes32[][]",
          "name": "bookingProofs",
          "type": "bytes32[][]"
        },
        {
          "internalType": "bytes32[][]",
          "name": "whitelistProofs",
          "type": "bytes32[][]"
        },
        {
          "components": [
            {
              "internalType": "uint96",
              "name": "investorFee",
              "type": "uint96"
            },
            {
              "internalType": "address[]",
              "name": "creators",
              "type": "address[]"
            },
            {
              "internalType": "uint96[]",
              "name": "creatorsFees",
              "type": "uint96[]"
            }
          ],
          "internalType": "struct Collection.InputRoyaltySettings[]",
          "name": "royaltySettings",
          "type": "tuple[]"
        },
        {
          "components": [
            {
              "internalType": "address",
              "name": "paymentToken",
              "type": "address"
            },
            {
              "internalType": "uint256",
              "name": "paymentAmount",
              "type": "uint256"
            },
            {
              "internalType": "address[]",
              "name": "paymentReceivers",
              "type": "address[]"
            },
            {
              "internalType": "uint96[]",
              "name": "receiversShares",
              "type": "uint96[]"
            }
          ],
          "internalType": "struct Collection.InputPaymentSettings[]",
          "name": "paymentSettings",
          "type": "tuple[]"
        }
      ],
      "name": "batchMint",
      "outputs": [],
      "stateMutability": "payable",
      "type": "function"
    },
    {
      "inputs": [
        {
          "internalType": "address[]",
          "name": "receivers",
          "type": "address[]"
        },
        {
          "internalType": "uint256[]",
          "name": "tokensId",
          "type": "uint256[]"
        },
        {
          "internalType": "bytes32[][]",
          "name": "bookingProofs",
          "type": "bytes32[][]"
        },
        {
          "components": [
            {
              "internalType": "uint96",
              "name": "investorFee",
              "type": "uint96"
            },
            {
              "internalType": "address[]",
              "name": "creators",
              "type": "address[]"
            },
            {
              "internalType": "uint96[]",
              "name": "creatorsFees",
              "type": "uint96[]"
            }
          ],
          "internalType": "struct Collection.InputRoyaltySettings[]",
          "name": "royaltySettings",
          "type": "tuple[]"
        },
        {
          "components": [
            {
              "internalType": "address",
              "name": "paymentToken",
              "type": "address"
            },
            {
              "internalType": "uint256",
              "name": "paymentAmount",
              "type": "uint256"
            },
            {
              "internalType": "address[]",
              "name": "paymentReceivers",
              "type": "address[]"
            },
            {
              "internalType": "uint96[]",
              "name": "receiversShares",
              "type": "uint96[]"
            }
          ],
          "internalType": "struct Collection.InputPaymentSettings[]",
          "name": "paymentSettings",
          "type": "tuple[]"
        }
      ],
      "name": "batchMintTo",
      "outputs": [],
      "stateMutability": "payable",
      "type": "function"
    },
    {
      "inputs": [
        {
          "internalType": "address[]",
          "name": "spenders",
          "type": "address[]"
        },
        {
          "internalType": "address[]",
          "name": "receivers",
          "type": "address[]"
        },
        {
          "internalType": "uint256[]",
          "name": "tokensId",
          "type": "uint256[]"
        }
      ],
      "name": "batchSafeTransferFrom",
      "outputs": [],
      "stateMutability": "nonpayable",
      "type": "function"
    },
    {
      "inputs": [
        {
          "internalType": "address[]",
          "name": "spenders",
          "type": "address[]"
        },
        {
          "internalType": "address[]",
          "name": "receivers",
          "type": "address[]"
        },
        {
          "internalType": "uint256[]",
          "name": "tokensId",
          "type": "uint256[]"
        }
      ],
      "name": "batchTransferFrom",
      "outputs": [],
      "stateMutability": "nonpayable",
      "type": "function"
    },
    {
      "inputs": [],
      "name": "bookingList",
      "outputs": [
        {
          "internalType": "bytes32",
          "name": "rootHash",
          "type": "bytes32"
        }
      ],
      "stateMutability": "view",
      "type": "function"
    },
    {
      "inputs": [
        {
          "internalType": "address",
          "name": "user",
          "type": "address"
        },
        {
          "internalType": "uint256",
          "name": "tokenId",
          "type": "uint256"
        },
        {
          "internalType": "uint256",
          "name": "mintLimit",
          "type": "uint256"
        },
        {
          "internalType": "bytes32[]",
          "name": "bookingProof",
          "type": "bytes32[]"
        },
        {
          "internalType": "bytes32[]",
          "name": "whitelistProof",
          "type": "bytes32[]"
        },
        {
          "internalType": "bytes32",
          "name": "creatorsHash",
          "type": "bytes32"
        },
        {
          "internalType": "bytes32",
          "name": "paymentHash",
          "type": "bytes32"
        },
        {
          "internalType": "bytes32",
          "name": "receiversHash",
          "type": "bytes32"
        }
      ],
      "name": "canMintToken",
      "outputs": [
        {
          "internalType": "bool",
          "name": "",
          "type": "bool"
        }
      ],
      "stateMutability": "view",
      "type": "function"
    },
    {
      "inputs": [
        {
          "internalType": "address",
          "name": "user",
          "type": "address"
        },
        {
          "internalType": "uint256",
          "name": "tokenId",
          "type": "uint256"
        },
        {
          "internalType": "uint256",
          "name": "mintLimit",
          "type": "uint256"
        },
        {
          "internalType": "bytes32[]",
          "name": "bookingProof",
          "type": "bytes32[]"
        },
        {
          "internalType": "bytes32[]",
          "name": "whitelistProof",
          "type": "bytes32[]"
        },
        {
          "internalType": "bytes32",
          "name": "creatorsHash",
          "type": "bytes32"
        },
        {
          "internalType": "bytes32",
          "name": "paymentHash",
          "type": "bytes32"
        },
        {
          "internalType": "bytes32",
          "name": "receiversHash",
          "type": "bytes32"
        }
      ],
      "name": "canMintWithWhitelist",
      "outputs": [
        {
          "internalType": "bool",
          "name": "",
          "type": "bool"
        }
      ],
      "stateMutability": "view",
      "type": "function"
    },
    {
      "inputs": [],
      "name": "earnings",
      "outputs": [
        {
          "internalType": "uint96",
          "name": "",
          "type": "uint96"
        }
      ],
      "stateMutability": "view",
      "type": "function"
    },
    {
      "inputs": [
        {
          "internalType": "uint256",
          "name": "tokenId",
          "type": "uint256"
        }
      ],
      "name": "getApproved",
      "outputs": [
        {
          "internalType": "address",
          "name": "",
          "type": "address"
        }
      ],
      "stateMutability": "view",
      "type": "function"
    },
    {
      "inputs": [
        {
          "internalType": "uint256",
          "name": "tokenId",
          "type": "uint256"
        }
      ],
      "name": "getRoyalySettings",
      "outputs": [
        {
          "components": [
            {
              "internalType": "address",
              "name": "account",
              "type": "address"
            },
            {
              "internalType": "uint96",
              "name": "fee",
              "type": "uint96"
            }
          ],
          "internalType": "struct Collection.FeeReceiver",
          "name": "investor",
          "type": "tuple"
        },
        {
          "components": [
            {
              "internalType": "address",
              "name": "account",
              "type": "address"
            },
            {
              "internalType": "uint96",
              "name": "fee",
              "type": "uint96"
            }
          ],
          "internalType": "struct Collection.FeeReceiver[]",
          "name": "creators",
          "type": "tuple[]"
        }
      ],
      "stateMutability": "view",
      "type": "function"
    },
    {
      "inputs": [
        {
          "internalType": "address",
          "name": "user",
          "type": "address"
        },
        {
          "internalType": "uint256",
          "name": "mintLimit",
          "type": "uint256"
        },
        {
          "internalType": "bytes32[]",
          "name": "whitelistProof",
          "type": "bytes32[]"
        }
      ],
      "name": "hasWhitelist",
      "outputs": [
        {
          "internalType": "bool",
          "name": "",
          "type": "bool"
        }
      ],
      "stateMutability": "view",
      "type": "function"
    },
    {
      "inputs": [
        {
          "internalType": "contract IMasterStation",
          "name": "_masterStation",
          "type": "address"
        },
        {
          "internalType": "string",
          "name": "_brand",
          "type": "string"
        },
        {
          "internalType": "address",
          "name": "_creator",
          "type": "address"
        },
        {
          "internalType": "uint256",
          "name": "_supplyLimit",
          "type": "uint256"
        },
        {
          "components": [
            {
              "internalType": "string",
              "name": "name",
              "type": "string"
            },
            {
              "internalType": "string",
              "name": "symbol",
              "type": "string"
            },
            {
              "internalType": "string",
              "name": "baseURI",
              "type": "string"
            },
            {
              "internalType": "bytes32",
              "name": "whitelist",
              "type": "bytes32"
            },
            {
              "internalType": "bytes32",
              "name": "bookingList",
              "type": "bytes32"
            },
            {
              "internalType": "uint256",
              "name": "publicMintTokensLimit",
              "type": "uint256"
            },
            {
              "internalType": "uint96",
              "name": "earnings",
              "type": "uint96"
            },
            {
              "internalType": "enum ICollectionData.MintStage",
              "name": "mintStage",
              "type": "uint8"
            }
          ],
          "internalType": "struct ICollectionData.CollectionData",
          "name": "_data",
          "type": "tuple"
        }
      ],
      "name": "initialize",
      "outputs": [],
      "stateMutability": "nonpayable",
      "type": "function"
    },
    {
      "inputs": [
        {
          "internalType": "address",
          "name": "owner",
          "type": "address"
        },
        {
          "internalType": "address",
          "name": "operator",
          "type": "address"
        }
      ],
      "name": "isApprovedForAll",
      "outputs": [
        {
          "internalType": "bool",
          "name": "",
          "type": "bool"
        }
      ],
      "stateMutability": "view",
      "type": "function"
    },
    {
      "inputs": [
        {
          "internalType": "address",
          "name": "addr",
          "type": "address"
        }
      ],
      "name": "isOwner",
      "outputs": [
        {
          "internalType": "bool",
          "name": "",
          "type": "bool"
        }
      ],
      "stateMutability": "view",
      "type": "function"
    },
    {
      "inputs": [
        {
          "internalType": "address",
          "name": "user",
          "type": "address"
        },
        {
          "internalType": "uint256",
          "name": "tokenId",
          "type": "uint256"
        },
        {
          "internalType": "bytes32[]",
          "name": "bookingProof",
          "type": "bytes32[]"
        },
        {
          "internalType": "bytes32",
          "name": "creatorsHash",
          "type": "bytes32"
        },
        {
          "internalType": "bytes32",
          "name": "paymentHash",
          "type": "bytes32"
        },
        {
          "internalType": "bytes32",
          "name": "receiversHash",
          "type": "bytes32"
        }
      ],
      "name": "isTokenBookedFrom",
      "outputs": [
        {
          "internalType": "bool",
          "name": "",
          "type": "bool"
        }
      ],
      "stateMutability": "view",
      "type": "function"
    },
    {
      "inputs": [
        {
          "internalType": "uint256",
          "name": "tokenId",
          "type": "uint256"
        },
        {
          "internalType": "bytes32[]",
          "name": "bookingProof",
          "type": "bytes32[]"
        },
        {
          "internalType": "bytes32",
          "name": "creatorsHash",
          "type": "bytes32"
        },
        {
          "internalType": "bytes32",
          "name": "paymentHash",
          "type": "bytes32"
        },
        {
          "internalType": "bytes32",
          "name": "receiversHash",
          "type": "bytes32"
        }
      ],
      "name": "isTokenBookedFromAdmin",
      "outputs": [
        {
          "internalType": "bool",
          "name": "",
          "type": "bool"
        }
      ],
      "stateMutability": "view",
      "type": "function"
    },
    {
      "inputs": [
        {
          "internalType": "uint256",
          "name": "tokenId",
          "type": "uint256"
        },
        {
          "internalType": "bytes32[]",
          "name": "bookingProof",
          "type": "bytes32[]"
        },
        {
          "internalType": "bytes32",
          "name": "creatorsHash",
          "type": "bytes32"
        },
        {
          "internalType": "bytes32",
          "name": "paymentHash",
          "type": "bytes32"
        },
        {
          "internalType": "bytes32",
          "name": "receiversHash",
          "type": "bytes32"
        }
      ],
      "name": "isTokenNotBooked",
      "outputs": [
        {
          "internalType": "bool",
          "name": "",
          "type": "bool"
        }
      ],
      "stateMutability": "view",
      "type": "function"
    },
    {
      "inputs": [],
      "name": "masterStation",
      "outputs": [
        {
          "internalType": "contract IMasterStation",
          "name": "",
          "type": "address"
        }
      ],
      "stateMutability": "view",
      "type": "function"
    },
    {
      "inputs": [
        {
          "internalType": "uint256",
          "name": "tokenId",
          "type": "uint256"
        },
        {
          "internalType": "uint256",
          "name": "mintLimit",
          "type": "uint256"
        },
        {
          "internalType": "bytes32[]",
          "name": "bookingProof",
          "type": "bytes32[]"
        },
        {
          "internalType": "bytes32[]",
          "name": "whitelistProof",
          "type": "bytes32[]"
        },
        {
          "components": [
            {
              "internalType": "uint96",
              "name": "investorFee",
              "type": "uint96"
            },
            {
              "internalType": "address[]",
              "name": "creators",
              "type": "address[]"
            },
            {
              "internalType": "uint96[]",
              "name": "creatorsFees",
              "type": "uint96[]"
            }
          ],
          "internalType": "struct Collection.InputRoyaltySettings",
          "name": "royaltySettings",
          "type": "tuple"
        },
        {
          "components": [
            {
              "internalType": "address",
              "name": "paymentToken",
              "type": "address"
            },
            {
              "internalType": "uint256",
              "name": "paymentAmount",
              "type": "uint256"
            },
            {
              "internalType": "address[]",
              "name": "paymentReceivers",
              "type": "address[]"
            },
            {
              "internalType": "uint96[]",
              "name": "receiversShares",
              "type": "uint96[]"
            }
          ],
          "internalType": "struct Collection.InputPaymentSettings",
          "name": "paymentSettings",
          "type": "tuple"
        }
      ],
      "name": "mint",
      "outputs": [],
      "stateMutability": "payable",
      "type": "function"
    },
    {
      "inputs": [],
      "name": "mintStage",
      "outputs": [
        {
          "internalType": "enum ICollectionData.MintStage",
          "name": "",
          "type": "uint8"
        }
      ],
      "stateMutability": "view",
      "type": "function"
    },
    {
      "inputs": [
        {
          "internalType": "address",
          "name": "receiver",
          "type": "address"
        },
        {
          "internalType": "uint256",
          "name": "tokenId",
          "type": "uint256"
        },
        {
          "internalType": "bytes32[]",
          "name": "bookingProof",
          "type": "bytes32[]"
        },
        {
          "components": [
            {
              "internalType": "uint96",
              "name": "investorFee",
              "type": "uint96"
            },
            {
              "internalType": "address[]",
              "name": "creators",
              "type": "address[]"
            },
            {
              "internalType": "uint96[]",
              "name": "creatorsFees",
              "type": "uint96[]"
            }
          ],
          "internalType": "struct Collection.InputRoyaltySettings",
          "name": "royaltySettings",
          "type": "tuple"
        },
        {
          "components": [
            {
              "internalType": "address",
              "name": "paymentToken",
              "type": "address"
            },
            {
              "internalType": "uint256",
              "name": "paymentAmount",
              "type": "uint256"
            },
            {
              "internalType": "address[]",
              "name": "paymentReceivers",
              "type": "address[]"
            },
            {
              "internalType": "uint96[]",
              "name": "receiversShares",
              "type": "uint96[]"
            }
          ],
          "internalType": "struct Collection.InputPaymentSettings",
          "name": "paymentSettings",
          "type": "tuple"
        }
      ],
      "name": "mintTo",
      "outputs": [],
      "stateMutability": "payable",
      "type": "function"
    },
    {
      "inputs": [],
      "name": "name",
      "outputs": [
        {
          "internalType": "string",
          "name": "",
          "type": "string"
        }
      ],
      "stateMutability": "view",
      "type": "function"
    },
    {
      "inputs": [],
      "name": "ownedByBrand",
      "outputs": [
        {
          "internalType": "string",
          "name": "",
          "type": "string"
        }
      ],
      "stateMutability": "view",
      "type": "function"
    },
    {
      "inputs": [],
      "name": "owner",
      "outputs": [
        {
          "internalType": "address",
          "name": "",
          "type": "address"
        }
      ],
      "stateMutability": "view",
      "type": "function"
    },
    {
      "inputs": [
        {
          "internalType": "uint256",
          "name": "tokenId",
          "type": "uint256"
        }
      ],
      "name": "ownerOf",
      "outputs": [
        {
          "internalType": "address",
          "name": "",
          "type": "address"
        }
      ],
      "stateMutability": "view",
      "type": "function"
    },
    {
      "inputs": [],
      "name": "publicMintTokensLimit",
      "outputs": [
        {
          "internalType": "uint256",
          "name": "",
          "type": "uint256"
        }
      ],
      "stateMutability": "view",
      "type": "function"
    },
    {
      "inputs": [
        {
          "internalType": "address",
          "name": "",
          "type": "address"
        }
      ],
      "name": "publicMintsCounter",
      "outputs": [
        {
          "internalType": "uint256",
          "name": "",
          "type": "uint256"
        }
      ],
      "stateMutability": "view",
      "type": "function"
    },
    {
      "inputs": [
        {
          "internalType": "uint256",
          "name": "_tokenId",
          "type": "uint256"
        },
        {
          "internalType": "uint256",
          "name": "_salePrice",
          "type": "uint256"
        }
      ],
      "name": "royaltyInfo",
      "outputs": [
        {
          "internalType": "address",
          "name": "",
          "type": "address"
        },
        {
          "internalType": "uint256",
          "name": "",
          "type": "uint256"
        }
      ],
      "stateMutability": "view",
      "type": "function"
    },
    {
      "inputs": [
        {
          "internalType": "address",
          "name": "from",
          "type": "address"
        },
        {
          "internalType": "address",
          "name": "to",
          "type": "address"
        },
        {
          "internalType": "uint256",
          "name": "tokenId",
          "type": "uint256"
        }
      ],
      "name": "safeTransferFrom",
      "outputs": [],
      "stateMutability": "nonpayable",
      "type": "function"
    },
    {
      "inputs": [
        {
          "internalType": "address",
          "name": "from",
          "type": "address"
        },
        {
          "internalType": "address",
          "name": "to",
          "type": "address"
        },
        {
          "internalType": "uint256",
          "name": "tokenId",
          "type": "uint256"
        },
        {
          "internalType": "bytes",
          "name": "data",
          "type": "bytes"
        }
      ],
      "name": "safeTransferFrom",
      "outputs": [],
      "stateMutability": "nonpayable",
      "type": "function"
    },
    {
      "inputs": [
        {
          "internalType": "address",
          "name": "operator",
          "type": "address"
        },
        {
          "internalType": "bool",
          "name": "approved",
          "type": "bool"
        }
      ],
      "name": "setApprovalForAll",
      "outputs": [],
      "stateMutability": "nonpayable",
      "type": "function"
    },
    {
      "inputs": [],
      "name": "supplyLimit",
      "outputs": [
        {
          "internalType": "uint256",
          "name": "",
          "type": "uint256"
        }
      ],
      "stateMutability": "view",
      "type": "function"
    },
    {
      "inputs": [
        {
          "internalType": "bytes4",
          "name": "interfaceId",
          "type": "bytes4"
        }
      ],
      "name": "supportsInterface",
      "outputs": [
        {
          "internalType": "bool",
          "name": "",
          "type": "bool"
        }
      ],
      "stateMutability": "view",
      "type": "function"
    },
    {
      "inputs": [],
      "name": "symbol",
      "outputs": [
        {
          "internalType": "string",
          "name": "",
          "type": "string"
        }
      ],
      "stateMutability": "view",
      "type": "function"
    },
    {
      "inputs": [
        {
          "internalType": "uint256",
          "name": "index",
          "type": "uint256"
        }
      ],
      "name": "tokenByIndex",
      "outputs": [
        {
          "internalType": "uint256",
          "name": "",
          "type": "uint256"
        }
      ],
      "stateMutability": "view",
      "type": "function"
    },
    {
      "inputs": [
        {
          "internalType": "address",
          "name": "owner",
          "type": "address"
        },
        {
          "internalType": "uint256",
          "name": "index",
          "type": "uint256"
        }
      ],
      "name": "tokenOfOwnerByIndex",
      "outputs": [
        {
          "internalType": "uint256",
          "name": "",
          "type": "uint256"
        }
      ],
      "stateMutability": "view",
      "type": "function"
    },
    {
      "inputs": [
        {
          "internalType": "uint256",
          "name": "tokenId",
          "type": "uint256"
        }
      ],
      "name": "tokenURI",
      "outputs": [
        {
          "internalType": "string",
          "name": "",
          "type": "string"
        }
      ],
      "stateMutability": "view",
      "type": "function"
    },
    {
      "inputs": [],
      "name": "totalSupply",
      "outputs": [
        {
          "internalType": "uint256",
          "name": "",
          "type": "uint256"
        }
      ],
      "stateMutability": "view",
      "type": "function"
    },
    {
      "inputs": [
        {
          "internalType": "address",
          "name": "from",
          "type": "address"
        },
        {
          "internalType": "address",
          "name": "to",
          "type": "address"
        },
        {
          "internalType": "uint256",
          "name": "tokenId",
          "type": "uint256"
        }
      ],
      "name": "transferFrom",
      "outputs": [],
      "stateMutability": "nonpayable",
      "type": "function"
    },
    {
      "inputs": [
        {
          "internalType": "address",
          "name": "newOwner",
          "type": "address"
        }
      ],
      "name": "transferOwnership",
      "outputs": [],
      "stateMutability": "nonpayable",
      "type": "function"
    },
    {
      "inputs": [
        {
          "internalType": "uint256",
          "name": "_publicMintTokensLimit",
          "type": "uint256"
        }
      ],
      "name": "updatePublicMintTokensLimit",
      "outputs": [],
      "stateMutability": "nonpayable",
      "type": "function"
    },
    {
      "inputs": [
        {
          "internalType": "uint256",
          "name": "tokenId",
          "type": "uint256"
        },
        {
          "internalType": "address[]",
          "name": "creators",
          "type": "address[]"
        },
        {
          "internalType": "uint96[]",
          "name": "creatorsFees",
          "type": "uint96[]"
        }
      ],
      "name": "updateRoyaltySettings",
      "outputs": [],
      "stateMutability": "nonpayable",
      "type": "function"
    },
    {
      "inputs": [
        {
          "internalType": "bytes32",
          "name": "whitelistHash",
          "type": "bytes32"
        },
        {
          "internalType": "bytes32",
          "name": "bookingHash",
          "type": "bytes32"
        },
        {
          "internalType": "enum ICollectionData.MintStage",
          "name": "_mintStage",
          "type": "uint8"
        }
      ],
      "name": "updateTreesAndMintStage",
      "outputs": [],
      "stateMutability": "nonpayable",
      "type": "function"
    },
    {
      "inputs": [],
      "name": "whitelist",
      "outputs": [
        {
          "internalType": "bytes32",
          "name": "rootHash",
          "type": "bytes32"
        }
      ],
      "stateMutability": "view",
      "type": "function"
    },
    {
      "inputs": [
        {
          "internalType": "address",
          "name": "tokenAddress",
          "type": "address"
        }
      ],
      "name": "withdraw",
      "outputs": [],
      "stateMutability": "nonpayable",
      "type": "function"
    },
    {
      "stateMutability": "payable",
      "type": "receive"
    }
  ],
  "bytecode": "0x60806040523480156200001157600080fd5b5060405180602001604052806000815250604051806020016040528060008152506200004e67ad278adfdf46e9da60c01b620000ac60201b60201c565b816003908051906020019062000066929190620000b2565b5080600490805190602001906200007f929190620000b2565b5050506001600d81905550620000a6670152238a8598091960c01b620000af60201b60201c565b620001a2565b50565b50565b828054620000c09062000162565b90600052602060002090601f016020900481019282620000e4576000855562000130565b82601f10620000ff57805160ff191683800117855562000130565b8280016001018555821562000130579182015b828111156200012f57825182559160200191906001019062000112565b5b5090506200013f919062000143565b5090565b5b808211156200015e57600081600090555060010162000144565b5090565b60008160011c905060018216806200017b57607f821691505b6020821081036200019c57634e487b7160e01b600052602260045260246000fd5b50919050565b61c22d80620001b26000396000f3fe6080604052600436106103545760003560e01c806364908380116101c6578063af3f578f116100f7578063e09934b311610095578063eab47aeb1161006f578063eab47aeb14610dcb578063f150a04914610e08578063f2fde38b14610e33578063f36c000714610e5c57610467565b8063e09934b314610d26578063e8dc29e914610d63578063e985e9c514610d8e57610467565b8063b818f9e4116100d1578063b818f9e414610c6e578063b88d4fde14610c97578063c7978d9614610cc0578063c87b56dd14610ce957610467565b8063af3f578f14610bf3578063b31f002814610c1c578063b46aefef14610c4557610467565b8063918f86741161016457806395d89b411161013e57806395d89b4114610b4b578063a06d001f14610b76578063a22cb46514610ba1578063a551371414610bca57610467565b8063918f867414610aca57806393e59dc114610af557806395d643a814610b2057610467565b806370b3e49a116101a057806370b3e49a14610a0b57806377dda05b14610a3657806388aa07c214610a745780638da5cb5b14610a9f57610467565b806364908380146109875780636d929422146109a357806370a08231146109ce57610467565b80632f745c59116102a05780634768600a1161023e57806351cff8d91161021857806351cff8d9146108b95780635bbbedfa146108e25780635c55dba71461090d5780636352211e1461094a57610467565b80634768600a146108235780634c08f5cf1461083f5780634f6ccce71461087c57610467565b80633cb98a2d1161027a5780633cb98a2d146107885780633d1ac905146107a4578063418fc808146107cf57806342842e0e146107fa57610467565b80632f745c59146107045780633232e37a1461074157806335742d741461075d57610467565b806319d1997a1161030d57806325eec632116102e757806325eec632146106215780632a55205a1461064c5780632b8cbd731461068a5780632f54bf6e146106c757610467565b806319d1997a146105a257806323aa7873146105cd57806323b872dd146105f857610467565b806301ffc9a71461046c578063059c9462146104a957806306fdde03146104e6578063081812fc14610511578063095ea7b31461054e57806318160ddd1461057757610467565b366104675761036d674eeb4a9019d80ebb60c01b610e99565b6000340361038e5761038967954cb87943e373aa60c01b610e99565b610465565b6103a2672dd70ae8c902117e60c01b610e99565b6103b66717fd8c8aa108c96060c01b610e99565b6103be610e9c565b6103d2679c434bf2b697ba2760c01b610e99565b34601b60010160008282546103e79190619dea565b9250508190555061040267f8a9604e9cb2998e60c01b610e99565b601b60030160009054906101000a900460ff161561044f5761042e6747bc108aab2f7bc560c01b610e99565b61044267299ba2a57803d15f60c01b610e99565b61044a610fc1565b610464565b6104636767c98ddd2729f07560c01b610e99565b5b5b005b600080fd5b34801561047857600080fd5b50610493600480360381019061048e9190619e21565b611651565b6040516104a09190619e48565b60405180910390f35b3480156104b557600080fd5b506104d060048036038101906104cb9190619ebf565b61169f565b6040516104dd9190619e48565b60405180910390f35b3480156104f257600080fd5b506104fb6117be565b6040516105089190619fb3565b60405180910390f35b34801561051d57600080fd5b5061053860048036038101906105339190619fce565b61188c565b6040516105459190619fea565b60405180910390f35b34801561055a57600080fd5b506105756004803603810190610570919061a003565b6118d2565b005b34801561058357600080fd5b5061058c6119e9565b604051610599919061a033565b60405180910390f35b3480156105ae57600080fd5b506105b76119f6565b6040516105c4919061a033565b60405180910390f35b3480156105d957600080fd5b506105e26119fc565b6040516105ef919061a033565b60405180910390f35b34801561060457600080fd5b5061061f600480360381019061061a919061a044565b611a02565b005b34801561062d57600080fd5b50610636611a62565b604051610643919061a088565b60405180910390f35b34801561065857600080fd5b50610673600480360381019061066e919061a09c565b611a67565b60405161068192919061a0c1565b60405180910390f35b34801561069657600080fd5b506106b160048036038101906106ac919061a0e1565b611c51565b6040516106be9190619e48565b60405180910390f35b3480156106d357600080fd5b506106ee60048036038101906106e9919061a146565b611d70565b6040516106fb9190619e48565b60405180910390f35b34801561071057600080fd5b5061072b6004803603810190610726919061a003565b611deb565b604051610738919061a033565b60405180910390f35b61075b6004803603810190610756919061a1a3565b611e90565b005b34801561076957600080fd5b506107726121a1565b60405161077f919061a088565b60405180910390f35b6107a2600480360381019061079d919061a276565b6121a6565b005b3480156107b057600080fd5b506107b96126fd565b6040516107c6919061a3c8565b60405180910390f35b3480156107db57600080fd5b506107e4612709565b6040516107f19190619fea565b60405180910390f35b34801561080657600080fd5b50610821600480360381019061081c919061a044565b612721565b005b61083d6004803603810190610838919061a3d9565b612741565b005b34801561084b57600080fd5b506108666004803603810190610861919061a488565b612aad565b6040516108739190619e48565b60405180910390f35b34801561088857600080fd5b506108a3600480360381019061089e9190619fce565b612b1a565b6040516108b0919061a033565b60405180910390f35b3480156108c557600080fd5b506108e060048036038101906108db919061a146565b612b8b565b005b3480156108ee57600080fd5b506108f7612ff3565b604051610904919061a3c8565b60405180910390f35b34801561091957600080fd5b50610934600480360381019061092f919061a4f4565b61301a565b6040516109419190619e48565b60405180910390f35b34801561095657600080fd5b50610971600480360381019061096c9190619fce565b613109565b60405161097e9190619fea565b60405180910390f35b6109a1600480360381019061099c919061a5b0565b61318f565b005b3480156109af57600080fd5b506109b86135e7565b6040516109c59190619fb3565b60405180910390f35b3480156109da57600080fd5b506109f560048036038101906109f0919061a146565b613675565b604051610a02919061a033565b60405180910390f35b348015610a1757600080fd5b50610a2061372c565b604051610a2d919061a6b1565b60405180910390f35b348015610a4257600080fd5b50610a5d6004803603810190610a589190619fce565b613732565b604051610a6b92919061a6f8565b60405180910390f35b348015610a8057600080fd5b50610a8961396d565b604051610a96919061a75e565b60405180910390f35b348015610aab57600080fd5b50610ab4613993565b604051610ac19190619fea565b60405180910390f35b348015610ad657600080fd5b50610adf6139f7565b604051610aec919061a6b1565b60405180910390f35b348015610b0157600080fd5b50610b0a6139fd565b604051610b17919061a3c8565b60405180910390f35b348015610b2c57600080fd5b50610b35613a09565b604051610b42919061a6b1565b60405180910390f35b348015610b5757600080fd5b50610b60613a27565b604051610b6d9190619fb3565b60405180910390f35b348015610b8257600080fd5b50610b8b613af5565b604051610b98919061a033565b60405180910390f35b348015610bad57600080fd5b50610bc86004803603810190610bc3919061a788565b613afa565b005b348015610bd657600080fd5b50610bf16004803603810190610bec919061a8e8565b613b10565b005b348015610bff57600080fd5b50610c1a6004803603810190610c159190619fce565b613f68565b005b348015610c2857600080fd5b50610c436004803603810190610c3e919061aa3a565b6141cb565b005b348015610c5157600080fd5b50610c6c6004803603810190610c67919061aabb565b6147e6565b005b348015610c7a57600080fd5b50610c956004803603810190610c90919061aaf0565b614c4f565b005b348015610ca357600080fd5b50610cbe6004803603810190610cb9919061ab94565b614d93565b005b348015610ccc57600080fd5b50610ce76004803603810190610ce2919061aaf0565b614df5565b005b348015610cf557600080fd5b50610d106004803603810190610d0b9190619fce565b614f52565b604051610d1d9190619fb3565b60405180910390f35b348015610d3257600080fd5b50610d4d6004803603810190610d48919061a4f4565b61504c565b604051610d5a9190619e48565b60405180910390f35b348015610d6f57600080fd5b50610d786151e7565b604051610d85919061a088565b60405180910390f35b348015610d9a57600080fd5b50610db56004803603810190610db0919061ac1b565b6151ec565b604051610dc29190619e48565b60405180910390f35b348015610dd757600080fd5b50610df26004803603810190610ded919061a488565b615280565b604051610dff9190619e48565b60405180910390f35b348015610e1457600080fd5b50610e1d6152da565b604051610e2a919061ac6c565b60405180910390f35b348015610e3f57600080fd5b50610e5a6004803603810190610e55919061a146565b6152ed565b005b348015610e6857600080fd5b50610e836004803603810190610e7e919061a146565b615610565b604051610e90919061a033565b60405180910390f35b50565b610eb06732c77191c868d29360c01b610e99565b610ec467717ecbec561dba8460c01b610e99565b610ed8673a084b00e0a3ea4a60c01b610e99565b6000610ee2615628565b9050610ef867af70e4efe621234060c01b610e99565b610f0c671f4dd51913e63d3260c01b610e99565b80601b6000015403610f4657610f2c67d7d9382ff9847fcf60c01b610e99565b610f40673e3380533b22512760c01b610e99565b50610fbf565b610f5a67f9f9f2307807b3eb60c01b610e99565b610f6e67488d0a53b5eea58960c01b610e99565b601b600080820160009055600182016000905560028201600090556003820160006101000a81549060ff02191690555050610fb36781a24f3f13785eb060c01b610e99565b80601b60000181905550505b565b610fd567b98945e7d934086360c01b610e99565b610fdd615696565b610ff1670a5328010de266a460c01b610e99565b611005676b024af3de1f52df60c01b610e99565b6110196783898441825817ae60c01b610e99565b61102d6777f764c3070ba83060c01b610e99565b6000601b60020154905061104b678790fe80bc46072760c01b610e99565b61105f674dc0f1a22027ef0f60c01b610e99565b6000601b60010154905061107d671f85e813dc83118460c01b610e99565b601b600080820160009055600182016000905560028201600090556003820160006101000a81549060ff021916905550506110c2676f754f2f738a918160c01b610e99565b6110d6673078f69784f5440660c01b610e99565b60008190506110ef67533447fb69c6744c60c01b610e99565b61110367e389b2fea9301ac960c01b610e99565b6000601f6000858152602001908152602001600020604051806040016040529081600082016040518060400160405290816000820160009054906101000a900473ffffffffffffffffffffffffffffffffffffffff1673ffffffffffffffffffffffffffffffffffffffff1673ffffffffffffffffffffffffffffffffffffffff1681526020016000820160149054906101000a90046bffffffffffffffffffffffff166bffffffffffffffffffffffff166bffffffffffffffffffffffff1681525050815260200160018201805480602002602001604051908101604052809291908181526020016000905b828210156112b2578382906000526020600020016040518060400160405290816000820160009054906101000a900473ffffffffffffffffffffffffffffffffffffffff1673ffffffffffffffffffffffffffffffffffffffff1673ffffffffffffffffffffffffffffffffffffffff1681526020016000820160149054906101000a90046bffffffffffffffffffffffff166bffffffffffffffffffffffff166bffffffffffffffffffffffff1681525050815260200190600101906111f0565b505050508152505090506112d06720be1e1af4698da260c01b610e99565b6112e467b49263ba6df946e060c01b610e99565b600081602001515190506113026742ca37553f04642660c01b610e99565b611316677acbc2078d143d3260c01b610e99565b60005b8181101561150a5761133567aaf96724b3f29af260c01b610e99565b611349677373581b0934209760c01b610e99565b6000601760009054906101000a90046bffffffffffffffffffffffff166bffffffffffffffffffffffff168460200151838151811061138b5761138a61ac9b565b5b6020026020010151602001516bffffffffffffffffffffffff16876113b0919061acb1565b6113ba919061aced565b90506113d067313ec36b87903f5a60c01b610e99565b80856113dc919061ad15565b94506113f2672c437acf91705a4a60c01b610e99565b61140667e6442c6f77a9ccdf60c01b610e99565b61145181856020015184815181106114215761142061ac9b565b5b60200260200101516000015173ffffffffffffffffffffffffffffffffffffffff166156e590919063ffffffff16565b61146567139bde094b35a40c60c01b610e99565b61147967b5f87c6a732b044560c01b610e99565b836020015182815181106114905761148f61ac9b565b5b60200260200101516000015173ffffffffffffffffffffffffffffffffffffffff16877f7d63a26f0b9348c485dbd7e39527c562a105b2a3f7b51949a20be4c5792868b8836040516114e2919061a033565b60405180910390a36114fe6790c3abfcc45e6c5e60c01b610e99565b81600101915050611319565b5061151f678565833486f3ea4d60c01b610e99565b61153367fe4c0ae8d1934ce560c01b610e99565b600083111561162d576115506746de10508d04d5c460c01b610e99565b6115646736d4e492feea5fa860c01b610e99565b611578670b86a58cee58f5b260c01b610e99565b6115a98383600001516000015173ffffffffffffffffffffffffffffffffffffffff166156e590919063ffffffff16565b6115bd67c7ec9ac0eb05556460c01b610e99565b6115d1677a6e08edb28bf55160c01b610e99565b81600001516000015173ffffffffffffffffffffffffffffffffffffffff16857f7d63a26f0b9348c485dbd7e39527c562a105b2a3f7b51949a20be4c5792868b885604051611620919061a033565b60405180910390a3611642565b611641670dc1c56d4259e22260c01b610e99565b5b505050505061164f6157d9565b565b60006116676715b30f6c7dcd1cc760c01b610e99565b61167b67abb8d652329414c660c01b610e99565b61168f67ee2f6400098b83a360c01b610e99565b611698826157e3565b9050919050565b60006116b567b73929ae90e90e2a60c01b610e99565b6116c96725d501ffad0988bc60c01b610e99565b6116dd67ed25f68263c2cb1a60c01b610e99565b6116f167389c90e3a94acd0d60c01b610e99565b6116fa8761585d565b1561173a576040517f08c379a00000000000000000000000000000000000000000000000000000000081526004016117319061ad33565b60405180910390fd5b61174e675426c5f02e8c353360c01b610e99565b61176267bfe6d0571b432ef060c01b610e99565b611776677fcbb3822b6e1e8860c01b610e99565b6117b16012898987878760405160200161179495949392919061ad71565b60405160208183030381529060405280519060200120888861589e565b9050979650505050505050565b60606117d467161ec855f5b8aad560c01b610e99565b6117e86732937138d22611d860c01b610e99565b6117fc67a2f20bf5b14a1efb60c01b610e99565b601980546118099061ada6565b80601f01602080910402602001604051908101604052809291908181526020018280546118359061ada6565b80156118825780601f1061185757610100808354040283529160200191611882565b820191906000526020600020905b81548152906001019060200180831161186557829003601f168201915b5050505050905090565b600061189782615936565b6007600083815260200190815260200160002060009054906101000a900473ffffffffffffffffffffffffffffffffffffffff169050919050565b60006118dd82613109565b90508073ffffffffffffffffffffffffffffffffffffffff168373ffffffffffffffffffffffffffffffffffffffff160361194d576040517f08c379a00000000000000000000000000000000000000000000000000000000081526004016119449061ade4565b60405180910390fd5b8073ffffffffffffffffffffffffffffffffffffffff1661196c615981565b73ffffffffffffffffffffffffffffffffffffffff16148061199b575061199a81611995615981565b6151ec565b5b6119da576040517f08c379a00000000000000000000000000000000000000000000000000000000081526004016119d19061ae48565b60405180910390fd5b6119e48383615989565b505050565b6000600b80549050905090565b60155481565b60165481565b611a13611a0d615981565b82615a42565b611a52576040517f08c379a0000000000000000000000000000000000000000000000000000000008152600401611a499061aeac565b60405180910390fd5b611a5d838383615c2b565b505050565b608081565b6000806000600260008681526020019081526020016000206040518060400160405290816000820160009054906101000a900473ffffffffffffffffffffffffffffffffffffffff1673ffffffffffffffffffffffffffffffffffffffff1673ffffffffffffffffffffffffffffffffffffffff1681526020016000820160149054906101000a90046bffffffffffffffffffffffff166bffffffffffffffffffffffff166bffffffffffffffffffffffff16815250509050600073ffffffffffffffffffffffffffffffffffffffff16816000015173ffffffffffffffffffffffffffffffffffffffff1603611bfc5760016040518060400160405290816000820160009054906101000a900473ffffffffffffffffffffffffffffffffffffffff1673ffffffffffffffffffffffffffffffffffffffff1673ffffffffffffffffffffffffffffffffffffffff1681526020016000820160149054906101000a90046bffffffffffffffffffffffff166bffffffffffffffffffffffff166bffffffffffffffffffffffff168152505090505b6000611c06615f24565b6bffffffffffffffffffffffff1682602001516bffffffffffffffffffffffff1686611c32919061acb1565b611c3c919061aced565b90508160000151819350935050509250929050565b6000611c6767c1d97518dfb4dad660c01b610e99565b611c7b675132efa2934767fd60c01b610e99565b611c8f677c1f18c4f556da9460c01b610e99565b6000611ca567b36dfe2368fb499e60c01b610e99565b7f77686974656c697374000000000000000000000000000000000000000000000086019050611cde67eac953c3e4a9b29d60c01b610e99565b611cf267c03362be6236868b60c01b610e99565b611d0881866010615f2e9092919063ffffffff16565b611d1c67fd9a2724adc1408960c01b610e99565b611d30678ea70b7e0e5a54a560c01b610e99565b611d6560108787604051602001611d4892919061a0c1565b60405160208183030381529060405280519060200120868661589e565b915050949350505050565b6000611d8667291403a459b2f3f560c01b615fee565b611d9a6777fa5eb9b90f79cc60c01b615fee565b611dae675ffb7146a616490e60c01b615fee565b611db6613993565b73ffffffffffffffffffffffffffffffffffffffff168273ffffffffffffffffffffffffffffffffffffffff16149050919050565b6000611df683613675565b8210611e37576040517f08c379a0000000000000000000000000000000000000000000000000000000008152600401611e2e9061af10565b60405180910390fd5b600960008473ffffffffffffffffffffffffffffffffffffffff1673ffffffffffffffffffffffffffffffffffffffff168152602001908152602001600020600083815260200190815260200160002054905092915050565b611ea4670865b1f0f00cec6460c01b610e99565b611eac615696565b611ec067b495247c742b21ff60c01b610e99565b611ed46768ce52093935caf160c01b610e99565b80611ee96752fac50a68c4f8e960c01b610e99565b611efd672d46dea689296ae660c01b610e99565b611f1167b62fcca85e13e52e60c01b610e99565b611f256764d9a93ccd81e0ef60c01b610e99565b600073ffffffffffffffffffffffffffffffffffffffff16816000016020810190611f50919061a146565b73ffffffffffffffffffffffffffffffffffffffff16148015611f835750611f82678dad17ba10bd5b3b60c01b615ff1565b5b80611faa5750600034148015611fa95750611fa867adfdbfa1eec8d2c660c01b615ff1565b5b5b611fe9576040517f08c379a0000000000000000000000000000000000000000000000000000000008152600401611fe09061af74565b60405180910390fd5b611ffd6752294516351d16b060c01b610e99565b61201167f5f717c6baa584f560c01b610e99565b612025679619bf687dd717ac60c01b610e99565b61203967d350aaac3913846460c01b610e99565b61204d6735e87437d390bd2060c01b610e99565b61206167532a53caacca8d9a60c01b610e99565b61207b61206c615981565b8a8a8a8a8a8a8a8a6000615ffc565b61208f670b1d06675a30a14260c01b610e99565b6120a367f1f4c9deeb32b26260c01b610e99565b600073ffffffffffffffffffffffffffffffffffffffff168160000160208101906120ce919061a146565b73ffffffffffffffffffffffffffffffffffffffff161480156120f45750806020013534115b156121795761210d67d3dbc72002e704f160c01b610e99565b612121676e3345c42ab562f660c01b610e99565b612135675882a72fedc6cabc60c01b610e99565b612174816020013534612148919061ad15565b612150615981565b73ffffffffffffffffffffffffffffffffffffffff166156e590919063ffffffff16565b61218e565b61218d67019d728686b921a460c01b610e99565b5b506121976157d9565b5050505050505050565b606081565b6121ba67d5a12a40a2c2d5c160c01b610e99565b6121c2615696565b6121d66704501025b8d584b460c01b610e99565b6121ea67daaa1811f6aa56de60c01b610e99565b6121fe67300d0b2630321a1f60c01b610e99565b61221267694f59afc34f511a60c01b610e99565b61221a619c53565b61222e672a71b07ada66affb60c01b610e99565b8c8c9050816000600281106122465761224561ac9b565b5b60200201818152505061226367822c6d3e7dc4086060c01b610e99565b612277672f006de777e40c9960c01b610e99565b61228b678beb04a81b17b98760c01b610e99565b8060006002811061229f5761229e61ac9b565b5b6020020151898990501480156122cf5750806000600281106122c4576122c361ac9b565b5b602002015187879050145b80156122f55750806000600281106122ea576122e961ac9b565b5b60200201518b8b9050145b612334576040517f08c379a000000000000000000000000000000000000000000000000000000000815260040161232b9061afb2565b60405180910390fd5b61234867789d2ec2644f375760c01b610e99565b61235c67079842bf3a4b64c460c01b610e99565b612370674ca792ecafcbd02960c01b610e99565b60005b816000600281106123875761238661ac9b565b5b60200201518110156125f4576123a7676e657beecbfb2b1260c01b610e99565b6123bb67908abfa5fe317a7560c01b610e99565b6124ac6123c6615981565b8f8f848181106123d9576123d861ac9b565b5b905060200201358e8e858181106123f3576123f261ac9b565b5b905060200201358d8d8681811061240d5761240c61ac9b565b5b905060200281019061241f919061b016565b8d8d888181106124325761243161ac9b565b5b9050602002810190612444919061b016565b8d8d8a8181106124575761245661ac9b565b5b9050602002810190612469919061b06b565b8c8c8b81811061247c5761247b61ac9b565b5b905060200281019061248e919061b08d565b8b6001600281106124a2576124a161ac9b565b5b6020020151615ffc565b6124c067633afc861df434a160c01b610e99565b6124d467b3986a004d6d5d8060c01b610e99565b600073ffffffffffffffffffffffffffffffffffffffff168484838181106124ff576124fe61ac9b565b5b9050602002810190612511919061b08d565b6000016020810190612523919061a146565b73ffffffffffffffffffffffffffffffffffffffff16036125c057612552674beeae3ce45b3ac960c01b610e99565b61256667bfa33139a83c619660c01b610e99565b8383828181106125795761257861ac9b565b5b905060200281019061258b919061b08d565b60200135826001600281106125a3576125a261ac9b565b5b602002018181516125b49190619dea565b915081815250506125d5565b6125d467d2aae17bb7f406ab60c01b610e99565b5b6125e9671f3521f2af834f3b60c01b610e99565b806001019050612373565b506126096786322ebaa0f2d51360c01b610e99565b61261d67b48beb8bf8527d7260c01b610e99565b806001600281106126315761263061ac9b565b5b60200201513411156126d1576126516735e1472ae7c7272560c01b610e99565b61266567dce022289e978cda60c01b610e99565b612679671663936fb13f017b60c01b610e99565b6126cc816001600281106126905761268f61ac9b565b5b6020020151346126a0919061ad15565b6126a8615981565b73ffffffffffffffffffffffffffffffffffffffff166156e590919063ffffffff16565b6126e6565b6126e5677e2dcce45fcc6b0c60c01b610e99565b5b506126ef6157d9565b505050505050505050505050565b60128060000154905081565b73ffffffffffffffffffffffffffffffffffffffff81565b61273c83838360405180602001604052806000815250614d93565b505050565b61275567e6e87fbee01cb14f60c01b610e99565b61275d615696565b612771670c1eb5afb449de4760c01b610e99565b6127856798e296fe6908044460c01b610e99565b8061279a6752fac50a68c4f8e960c01b610e99565b6127ae672d46dea689296ae660c01b610e99565b6127c267b62fcca85e13e52e60c01b610e99565b6127d66764d9a93ccd81e0ef60c01b610e99565b600073ffffffffffffffffffffffffffffffffffffffff16816000016020810190612801919061a146565b73ffffffffffffffffffffffffffffffffffffffff161480156128345750612833678dad17ba10bd5b3b60c01b615ff1565b5b8061285b575060003414801561285a575061285967adfdbfa1eec8d2c660c01b615ff1565b5b5b61289a576040517f08c379a00000000000000000000000000000000000000000000000000000000081526004016128919061af74565b60405180910390fd5b6128ae6752294516351d16b060c01b610e99565b6128c267f5f717c6baa584f560c01b610e99565b6128d667c9624d7a0230a72b60c01b610e99565b6128ea671893737462d5466060c01b610e99565b6128fe678d314e029ce0164960c01b610e99565b6129126795ad07e032395efa60c01b610e99565b612926678084c4cec25b127460c01b610e99565b612936878787878787600061674e565b612975576040517f08c379a000000000000000000000000000000000000000000000000000000000815260040161296c9061b0af565b60405180910390fd5b61298967f168921bb38b1ecb60c01b610e99565b61299d670b1d06675a30a14260c01b610e99565b6129b167f1f4c9deeb32b26260c01b610e99565b600073ffffffffffffffffffffffffffffffffffffffff168160000160208101906129dc919061a146565b73ffffffffffffffffffffffffffffffffffffffff16148015612a025750806020013534115b15612a8757612a1b67d3dbc72002e704f160c01b610e99565b612a2f676e3345c42ab562f660c01b610e99565b612a43675882a72fedc6cabc60c01b610e99565b612a82816020013534612a56919061ad15565b612a5e615981565b73ffffffffffffffffffffffffffffffffffffffff166156e590919063ffffffff16565b612a9c565b612a9b67019d728686b921a460c01b610e99565b5b50612aa56157d9565b505050505050565b6000612ac36724e7d38fe220689960c01b610e99565b612ad767c206420c573e225160c01b610e99565b612aeb6720cb9c47529dee7460c01b610e99565b612b0e73ffffffffffffffffffffffffffffffffffffffff88888888888861169f565b90509695505050505050565b6000612b246119e9565b8210612b65576040517f08c379a0000000000000000000000000000000000000000000000000000000008152600401612b5c9061b0ed565b60405180910390fd5b600b8281548110612b7957612b7861ac9b565b5b90600052602060002001549050919050565b612b9f67a740f892e1ed4c1060c01b610e99565b612ba7615696565b612bbb677ff8e03a26605d1060c01b610e99565b612bcf67cf8d74999d34edca60c01b610e99565b612be367b2caabcd11901e1d60c01b615fee565b612bf7677f9141d11d3d74d160c01b615fee565b612c0b67aace8ad572f7e1f060c01b615fee565b612c13617d82565b612c2767a8b43d5db73dbf7060c01b615fee565b612c3b6717e4060f24de0bf260c01b610e99565b612c4f67821666bc8828be5e60c01b610e99565b612c63670436075914febbf960c01b610e99565b612c77678ae2211adfd958f760c01b610e99565b6000612c8d673e9647f4109c05b960c01b610e99565b612ca167cc3dd59e9abb4cf560c01b610e99565b600073ffffffffffffffffffffffffffffffffffffffff168273ffffffffffffffffffffffffffffffffffffffff1603612e0057612ce9679e2fba0cac97bba660c01b610e99565b612cfd67cf1269c47b2699b360c01b610e99565b601b6001015447612d0e919061ad15565b9050612d2467a3ec226ef37ef0e260c01b610e99565b612d3867e8dbfe11972cf37660c01b610e99565b612d4c67f0a30178af5b267460c01b610e99565b60008111612d8f576040517f08c379a0000000000000000000000000000000000000000000000000000000008152600401612d869061b151565b60405180910390fd5b612da36752936da6edbf3b0f60c01b610e99565b612db767c201d8034ed1d36060c01b610e99565b612dcb67d68009707436bc1160c01b610e99565b612dfb81612dd7615981565b73ffffffffffffffffffffffffffffffffffffffff166156e590919063ffffffff16565b612f53565b612e14677820f64979fc068f60c01b610e99565b612e2867c86b7b88e948107960c01b610e99565b8173ffffffffffffffffffffffffffffffffffffffff166370a08231306040518263ffffffff1660e01b8152600401612e619190619fea565b602060405180830381865afa158015612e7e573d6000803e3d6000fd5b505050506040513d601f19601f82011682018060405250810190612ea2919061b18f565b9050612eb867af32aec3248125a460c01b610e99565b612ecc671c0dce6b503d158e60c01b610e99565b8173ffffffffffffffffffffffffffffffffffffffff1663a9059cbb612ef0615981565b836040518363ffffffff1660e01b8152600401612f0e92919061a0c1565b6020604051808303816000875af1158015612f2d573d6000803e3d6000fd5b505050506040513d601f19601f82011682018060405250810190612f51919061b1ab565b505b612f67676145e0f1d285023960c01b610e99565b612f7b67c9fe8e79fe044b0460c01b610e99565b8173ffffffffffffffffffffffffffffffffffffffff16612f9a615981565b73ffffffffffffffffffffffffffffffffffffffff167fd1c19fbcd4551a5edfb66d43d2e337c04837afda3482b42bdf569a8fccdae5fb83604051612fdf919061a033565b60405180910390a350612ff06157d9565b50565b7f77686974656c697374000000000000000000000000000000000000000000000060001b81565b600061303067d6ea7ee127e7dea360c01b610e99565b6130446725cd73ef3c276dc260c01b610e99565b613058671db27b6bd18ee96c60c01b610e99565b6130648b8a8888611c51565b156130ba5761307d67cca423a96492d12960c01b610e99565b61309167cd4acc78653a1dc260c01b610e99565b6130a5678842b28fe82260a760c01b610e99565b6130b38a8989878787615280565b90506130fb565b6130ce67d3d679c1dc1e1d1d60c01b610e99565b6130e267a1122dd39d6d8fe560c01b610e99565b6130f667a6a331e9dff3e70760c01b610e99565b600090505b9a9950505050505050505050565b60008061311583617e37565b9050600073ffffffffffffffffffffffffffffffffffffffff168173ffffffffffffffffffffffffffffffffffffffff1603613186576040517f08c379a000000000000000000000000000000000000000000000000000000000815260040161317d9061b1d2565b60405180910390fd5b80915050919050565b6131a3676ab5e14cc21b74b460c01b610e99565b6131ab615696565b6131bf67396af41541bc560760c01b610e99565b6131d367cea9c96be5f4117f60c01b610e99565b6131e7677fe626d7dc4e3ccd60c01b610e99565b6131fb67eec11471fc98f54e60c01b610e99565b6000888890509050613217677aabf4bb33523cfd60c01b610e99565b61322b67604c0424d293387b60c01b610e99565b61323f67f33aa7cf615005d860c01b610e99565b808b8b905014801561325357508087879050145b613292576040517f08c379a00000000000000000000000000000000000000000000000000000000081526004016132899061afb2565b60405180910390fd5b6132a6671ebc6c21809ce8da60c01b610e99565b6132ba6777f925663af3b44c60c01b610e99565b6132ce670c552cbff0ae78f360c01b610e99565b60006132e46739212fbe6a9df67f60c01b610e99565b6132f867e4392ba029d2df8360c01b610e99565b60005b8281101561350f57613317679c27abc9763fd81060c01b610e99565b61332b6769871f038aff134760c01b610e99565b6133e58d8d838181106133415761334061ac9b565b5b9050602002016020810190613356919061a146565b8c8c848181106133695761336861ac9b565b5b905060200201358b8b858181106133835761338261ac9b565b5b9050602002810190613395919061b016565b8b8b878181106133a8576133a761ac9b565b5b90506020028101906133ba919061b06b565b8a8a888181106133cd576133cc61ac9b565b5b90506020028101906133df919061b08d565b8861674e565b506133fa672bf3c1c6d670cb7460c01b610e99565b61340e67ea1aae9cc7ea56d860c01b610e99565b600073ffffffffffffffffffffffffffffffffffffffff168585838181106134395761343861ac9b565b5b905060200281019061344b919061b08d565b600001602081019061345d919061a146565b73ffffffffffffffffffffffffffffffffffffffff16036134db5761348c679d2a44bc69f42b6d60c01b610e99565b6134a067f5f6db9e75687c9460c01b610e99565b8484828181106134b3576134b261ac9b565b5b90506020028101906134c5919061b08d565b60200135826134d49190619dea565b91506134f0565b6134ef67eebdef0c890c5a8760c01b610e99565b5b613504671002cac4b38cc86860c01b610e99565b8060010190506132fb565b5061352467a112ecc2a76d678e60c01b610e99565b613538670674fd9fc3ad43c160c01b610e99565b803411156135bc5761355467d53a6d65323d839c60c01b610e99565b613568676ce73c4a4661cb9660c01b610e99565b61357c670d11a755cd62735f60c01b610e99565b6135b7813461358b919061ad15565b613593615981565b73ffffffffffffffffffffffffffffffffffffffff166156e590919063ffffffff16565b6135d1565b6135d0675f191461fba8841360c01b610e99565b5b50506135db6157d9565b50505050505050505050565b600f80546135f49061ada6565b80601f01602080910402602001604051908101604052809291908181526020018280546136209061ada6565b801561366d5780601f106136425761010080835404028352916020019161366d565b820191906000526020600020905b81548152906001019060200180831161365057829003601f168201915b505050505081565b60008073ffffffffffffffffffffffffffffffffffffffff168273ffffffffffffffffffffffffffffffffffffffff16036136e5576040517f08c379a00000000000000000000000000000000000000000000000000000000081526004016136dc9061b210565b60405180910390fd5b600660008373ffffffffffffffffffffffffffffffffffffffff1673ffffffffffffffffffffffffffffffffffffffff168152602001908152602001600020549050919050565b6103e881565b61373a619c75565b606061375067233cd874a158a5b960c01b610e99565b6137646753e68068d4fde39060c01b610e99565b613778671aef1857e67a586b60c01b610e99565b6000601f6000858152602001908152602001600020604051806040016040529081600082016040518060400160405290816000820160009054906101000a900473ffffffffffffffffffffffffffffffffffffffff1673ffffffffffffffffffffffffffffffffffffffff1673ffffffffffffffffffffffffffffffffffffffff1681526020016000820160149054906101000a90046bffffffffffffffffffffffff166bffffffffffffffffffffffff166bffffffffffffffffffffffff1681525050815260200160018201805480602002602001604051908101604052809291908181526020016000905b82821015613927578382906000526020600020016040518060400160405290816000820160009054906101000a900473ffffffffffffffffffffffffffffffffffffffff1673ffffffffffffffffffffffffffffffffffffffff1673ffffffffffffffffffffffffffffffffffffffff1681526020016000820160149054906101000a90046bffffffffffffffffffffffff166bffffffffffffffffffffffff166bffffffffffffffffffffffff168152505081526020019060010190613865565b5050505081525050905061394567d9c439a1995dd9ea60c01b610e99565b80600001519250613960677237b9636ae924a760c01b610e99565b8060200151915050915091565b600e60009054906101000a900473ffffffffffffffffffffffffffffffffffffffff1681565b60006139a967962224a4737c782060c01b615fee565b6139bd678cea3f9a452a859960c01b615fee565b6139d167565542654643f54c60c01b615fee565b60008054906101000a900473ffffffffffffffffffffffffffffffffffffffff16905090565b61271081565b60108060000154905081565b601760009054906101000a90046bffffffffffffffffffffffff1681565b6060613a3d67ff8592c042e0e32760c01b610e99565b613a5167112be03b5baf3a0e60c01b610e99565b613a65674f02f517627d99ff60c01b610e99565b601a8054613a729061ada6565b80601f0160208091040260200160405190810160405280929190818152602001828054613a9e9061ada6565b8015613aeb5780601f10613ac057610100808354040283529160200191613aeb565b820191906000526020600020905b815481529060010190602001808311613ace57829003601f168201915b5050505050905090565b600181565b613b0c613b05615981565b8383617e74565b5050565b613b24677be6775a0392c94860c01b610e99565b613b3867f751d9f25cfef45560c01b610e99565b613b4c67679dc056a8e0f84360c01b610e99565b613b6067533941704389ae6360c01b610e99565b602060009054906101000a900460ff1615613bb0576040517f08c379a0000000000000000000000000000000000000000000000000000000008152600401613ba79061b274565b60405180910390fd5b613bc467fd84dd7bc9584c7260c01b610e99565b613bd867e03a8382c51263e660c01b610e99565b613bec671f2cababd002199360c01b610e99565b613c0067c25180d71108f58260c01b610e99565b6103e86bffffffffffffffffffffffff168160c001516bffffffffffffffffffffffff161115613c65576040517f08c379a0000000000000000000000000000000000000000000000000000000008152600401613c5c9061b2b2565b60405180910390fd5b613c79673d4195ccd13d10ce60c01b610e99565b613c8d67f51bd71cf70d8d4960c01b610e99565b6001602060006101000a81548160ff021916908315150217905550613cbc675e7c81a42f423f9660c01b610e99565b613cd067b6e0d2e33759b32b60c01b610e99565b613cd983617fe0565b613ced67047d0ebf2437b2ae60c01b610e99565b613d0167d166e371ca98a8fa60c01b610e99565b613d0f308260c00151618028565b613d2367f279ce2622d81b0660c01b610e99565b81601581905550613d3e67ff4234978331cbfa60c01b610e99565b84600e60006101000a81548173ffffffffffffffffffffffffffffffffffffffff021916908373ffffffffffffffffffffffffffffffffffffffff160217905550613d936760d3582b3c16709060c01b610e99565b83600f9080519060200190613da9929190619cb3565b50613dbe67e2c9dc2a250e179960c01b610e99565b8060c00151601760006101000a8154816bffffffffffffffffffffffff02191690836bffffffffffffffffffffffff160217905550613e0767b7e8dd11a5695a2e60c01b610e99565b806000015160199080519060200190613e21929190619cb3565b50613e3667625b2be1109dbc6860c01b610e99565b8060200151601a9080519060200190613e50929190619cb3565b50613e6567eef20f29ddf0c43160c01b610e99565b806040015160189080519060200190613e7f929190619cb3565b50613e946793d1b4aaedb74aa860c01b610e99565b613ea867a095304fe3993cd860c01b610e99565b613ec0816060015160106181bd90919063ffffffff16565b613ed4673c466264e01bde3c60c01b610e99565b613ee8670588d4c852b5555f60c01b610e99565b613f00816080015160126181bd90919063ffffffff16565b613f146788a1a627256f434860c01b610e99565b8060a00151601681905550613f3367e59cbcdc0ba562a560c01b610e99565b8060e001516017600c6101000a81548160ff02191690836002811115613f5c57613f5b61ac56565b5b02179055505050505050565b613f7c67e46466ebbcbb738860c01b610e99565b613f9067a3f84e49a704359a60c01b610e99565b613fa467d1ac35b49aa239a760c01b610e99565b613fb867e699209a47353a6160c01b610e99565b613fcc6774257e846922fe2260c01b610e99565b600e60009054906101000a900473ffffffffffffffffffffffffffffffffffffffff1673ffffffffffffffffffffffffffffffffffffffff16630a6429a1600f306040614017615981565b6040518563ffffffff1660e01b8152600401614036949392919061b3d3565b602060405180830381865afa158015614053573d6000803e3d6000fd5b505050506040513d601f19601f82011682018060405250810190614077919061b1ab565b8015614093575061409267aff890fbade94fe560c01b615ff1565b5b806140c657506140a96140a4615981565b611d70565b80156140c557506140c467056c0c3a6fd1a0b960c01b615ff1565b5b5b614105576040517f08c379a00000000000000000000000000000000000000000000000000000000081526004016140fc9061b412565b60405180910390fd5b6141196794b2e517b40582e160c01b610e99565b61412d67db35ebce03a44cc160c01b610e99565b6141416798a0e897c4f75e9d60c01b610e99565b614155670d5b80f54b48390860c01b610e99565b61416967e069b58d482b735b60c01b610e99565b61417d6787cf5cdda5b93be860c01b610e99565b806016547f72dc4de058a449acfcef74e6d5f4b5a6ac6d29105bb0a7f7d5d7cca839599b3860405160405180910390a36141c16789d6ccd1038b6b0860c01b610e99565b8060168190555050565b6141df6777b0fa088fc93d3560c01b610e99565b6141f367b2caabcd11901e1d60c01b615fee565b614207677f9141d11d3d74d160c01b615fee565b61421b67aace8ad572f7e1f060c01b615fee565b614223617d82565b61423767a8b43d5db73dbf7060c01b615fee565b61424b67aa2d2a8ec60e371260c01b610e99565b61425f6778bc301ce0a64a0960c01b610e99565b6142736746c00963b6f53ad060c01b610e99565b614287673c8127d1bce63d2e60c01b610e99565b61429b670b9014040856767e60c01b610e99565b6142a48561585d565b6142e3576040517f08c379a00000000000000000000000000000000000000000000000000000000081526004016142da9061b450565b60405180910390fd5b6142f7676dceca3bf6a2180260c01b610e99565b61430b67f4d95c5f9d2fda5960c01b610e99565b601f6000868152602001908152602001600020600101600061432d9190619d39565b61434167c1e280ed04ca8c8a60c01b610e99565b61435567100ad6579ba1757860c01b610e99565b600061436b67e42915046705a23360c01b610e99565b61437f678d789eceb9a4f95a60c01b610e99565b600085859050905061439b674d4a00df44b88e7f60c01b610e99565b6143af67949ba5a49b41076d60c01b610e99565b60005b81811015614672576143ce672faba9e0244adc0a60c01b610e99565b6143e267d25fdd835e8e507760c01b610e99565b6143f66742c64b1854aa659b60c01b610e99565b600073ffffffffffffffffffffffffffffffffffffffff168787838181106144215761442061ac9b565b5b9050602002016020810190614436919061a146565b73ffffffffffffffffffffffffffffffffffffffff160361448c576040517f08c379a00000000000000000000000000000000000000000000000000000000081526004016144839061b48e565b60405180910390fd5b6144a067b29a3fb30cde1d6960c01b610e99565b6144b4679ba197df7cb3261260c01b610e99565b6144c8678a30c1b79ded151a60c01b610e99565b601f600089815260200190815260200160002060010160405180604001604052808989858181106144fc576144fb61ac9b565b5b9050602002016020810190614511919061a146565b73ffffffffffffffffffffffffffffffffffffffff16815260200187878581811061453f5761453e61ac9b565b5b9050602002016020810190614554919061b4cc565b6bffffffffffffffffffffffff168152509080600181540180825580915050600190039060005260206000200160009091909190915060008201518160000160006101000a81548173ffffffffffffffffffffffffffffffffffffffff021916908373ffffffffffffffffffffffffffffffffffffffff16021790555060208201518160000160146101000a8154816bffffffffffffffffffffffff02191690836bffffffffffffffffffffffff160217905550505061461e67320e8592f7d1804760c01b610e99565b8484828181106146315761463061ac9b565b5b9050602002016020810190614646919061b4cc565b83614651919061b4ef565b92506146676732471c78674ab5c160c01b610e99565b8060010190506143b2565b5061468767a4223101362e418c60c01b610e99565b61469b674e9d1631cd721e8d60c01b610e99565b6146af671abc1eb732f50e2660c01b610e99565b601760009054906101000a90046bffffffffffffffffffffffff166bffffffffffffffffffffffff16601f600089815260200190815260200160002060000160000160149054906101000a90046bffffffffffffffffffffffff1683614715919061b4ef565b6bffffffffffffffffffffffff1614614763576040517f08c379a000000000000000000000000000000000000000000000000000000000815260040161475a9061b525565b60405180910390fd5b61477767a1d518640304624060c01b610e99565b61478b672d4fd1824e4fd2b260c01b610e99565b61479f67061e16ecf42b5a4f60c01b610e99565b867f3f40e7db073ad175821f3dd1c5055aa865c521a69b0420d57add25e0fc028335878787876040516147d5949392919061b607565b60405180910390a250505050505050565b6147fa67ff1ca158b9c026d060c01b610e99565b61480e67a3f84e49a704359a60c01b610e99565b61482267d1ac35b49aa239a760c01b610e99565b61483667e699209a47353a6160c01b610e99565b61484a6774257e846922fe2260c01b610e99565b600e60009054906101000a900473ffffffffffffffffffffffffffffffffffffffff1673ffffffffffffffffffffffffffffffffffffffff16630a6429a1600f306040614895615981565b6040518563ffffffff1660e01b81526004016148b4949392919061b3d3565b602060405180830381865afa1580156148d1573d6000803e3d6000fd5b505050506040513d601f19601f820116820180604052508101906148f5919061b1ab565b8015614911575061491067aff890fbade94fe560c01b615ff1565b5b806149445750614927614922615981565b611d70565b8015614943575061494267056c0c3a6fd1a0b960c01b615ff1565b5b5b614983576040517f08c379a000000000000000000000000000000000000000000000000000000000815260040161497a9061b412565b60405180910390fd5b6149976794b2e517b40582e160c01b610e99565b6149ab67db35ebce03a44cc160c01b610e99565b6149bf676bd715303681902e60c01b610e99565b6149d3671c6d4e0ae42843c160c01b610e99565b6149e767b020eb9cbd9d20fb60c01b610e99565b6149fb674d3e4e03958cb9e060c01b610e99565b6000614a05615981565b9050614a1b6705568de439ab47ff60c01b610e99565b614a2f67c03f68e9bc71918060c01b610e99565b82614a3a60126181f2565b8273ffffffffffffffffffffffffffffffffffffffff167f3f3565a750a6a9fc124d0b1d0818b81f06b002b2b25802927c401b283e7992be60405160405180910390a4614a91674705447791dd458d60c01b610e99565b614aa567ceb034aad17eee2560c01b610e99565b83614ab060106181f2565b8273ffffffffffffffffffffffffffffffffffffffff167f0176f6303ca34644f76b802a3bddbf978331a7efcf638e176b56cc4e18436b5e60405160405180910390a4614b0767cf4676acf122564860c01b610e99565b614b1b6713e8c59502338bf560c01b610e99565b816002811115614b2e57614b2d61ac56565b5b6017600c9054906101000a900460ff166002811115614b5057614b4f61ac56565b5b8273ffffffffffffffffffffffffffffffffffffffff167fc9409f4993f9e6e75e82797e535c043ba70bd9af2f41c26ace4a1a38e6ac066160405160405180910390a4614ba767016f3c4c7ed7bdd860c01b610e99565b614bbb67e69bce8e68ec17b060c01b610e99565b614bcf8360126181bd90919063ffffffff16565b614be3671d578e0af49c7ae660c01b610e99565b614bf76792a877d6db90068660c01b610e99565b614c0b8460106181bd90919063ffffffff16565b614c1f674b987b58ea6d892d60c01b610e99565b816017600c6101000a81548160ff02191690836002811115614c4457614c4361ac56565b5b021790555050505050565b614c63672cbc8d6e0b51f34b60c01b610e99565b614c7767e88779d2ab7b252760c01b610e99565b614c8b6736a7daa24b9c5d7560c01b610e99565b6000614c9b87878787878761823c565b9050614cb16736a9e851c2444b7c60c01b610e99565b614cc567afd912392fb1659860c01b610e99565b60005b81811015614d8957614ce4670e3b9163d96c556060c01b610e99565b614cf8673cb79a9b42f252f160c01b610e99565b614d6a888883818110614d0e57614d0d61ac9b565b5b9050602002016020810190614d23919061a146565b878784818110614d3657614d3561ac9b565b5b9050602002016020810190614d4b919061a146565b868685818110614d5e57614d5d61ac9b565b5b90506020020135611a02565b614d7e670d69d9827122a93460c01b610e99565b806001019050614cc8565b5050505050505050565b614da4614d9e615981565b83615a42565b614de3576040517f08c379a0000000000000000000000000000000000000000000000000000000008152600401614dda9061aeac565b60405180910390fd5b614def84848484618319565b50505050565b614e09677df10e3a54719dce60c01b610e99565b614e1d670cfaa47285049e4860c01b610e99565b614e3167f66cb5bf3176d0e560c01b610e99565b6000614e4187878787878761823c565b9050614e5767a6a8166908b14e5d60c01b610e99565b614e6b6722120203f82e63c760c01b610e99565b60005b81811015614f4857614e8a67fa9851cc8d6e1c4b60c01b610e99565b614e9e67a300e7c5bed6501660c01b610e99565b614f29888883818110614eb457614eb361ac9b565b5b9050602002016020810190614ec9919061a146565b878784818110614edc57614edb61ac9b565b5b9050602002016020810190614ef1919061a146565b868685818110614f0457614f0361ac9b565b5b9050602002013560405180606001604052806023815260200161c1d560239139614d93565b614f3d67df29709cc5b880e060c01b610e99565b806001019050614e6e565b5050505050505050565b6060614f6867f497a10dd67c3ad360c01b610e99565b614f7c670f80ce0a5fda44ed60c01b610e99565b614f9067b6c25ee00e32e93760c01b610e99565b6000614f9a618375565b9050614fb06785af6daba3e5a9bc60c01b610e99565b614fc46793c7f3d7b865af1660c01b610e99565b60008151118015614fe55750614fe46727cc1fc05c8881f860c01b615ff1565b5b806150005750614fff67a2c0a6c581ecd20960c01b618443565b5b6150195760405180602001604052806000815250615044565b806150238461844a565b60405160200161503492919061b63a565b6040516020818303038152906040525b915050919050565b600061506267d46f4ca6f6ff71a660c01b610e99565b61507667e000cf7e5ea98ce260c01b610e99565b61508a672ad56aaf8866630160c01b610e99565b6150998b8b8a8a88888861169f565b156150e3576150b267f0100dbea75567e460c01b610e99565b6150c66767a5d7be05bdccf160c01b610e99565b6150da671ce88752f7e8da1660c01b610e99565b600190506151d9565b6150f767982084255759c68c60c01b610e99565b61510b67ae07967d76f0e6f560c01b610e99565b61511f67f657162c6fbf2d4a60c01b610e99565b61512d8a8989878787612aad565b801561513e575061513d8b618518565b5b15615188576151576740d5d9fa2e09f57060c01b610e99565b61516b6799c584e05d92533f60c01b610e99565b61517f67793cf5e54948ed0060c01b610e99565b600190506151d9565b61519c67b84c3d7fe0dbfc6d60c01b610e99565b6151b067b3c93574df1eda7e60c01b610e99565b6151c4673fc5982076571c8a60c01b610e99565b6151d68b8b8b8b8b8b8b8b8b8b61301a565b90505b9a9950505050505050505050565b604081565b6000600860008473ffffffffffffffffffffffffffffffffffffffff1673ffffffffffffffffffffffffffffffffffffffff16815260200190815260200160002060008373ffffffffffffffffffffffffffffffffffffffff1673ffffffffffffffffffffffffffffffffffffffff16815260200190815260200160002060009054906101000a900460ff16905092915050565b600061529667b43f635739f58f2f60c01b610e99565b6152aa67102b959cdfd39e6160c01b610e99565b6152be679e2ceb6c1030573c60c01b610e99565b6152ce600088888888888861169f565b90509695505050505050565b6017600c9054906101000a900460ff1681565b61530167498d717f7343e75060c01b610e99565b61531567b2caabcd11901e1d60c01b615fee565b615329677f9141d11d3d74d160c01b615fee565b61533d67aace8ad572f7e1f060c01b615fee565b615345617d82565b61535967a8b43d5db73dbf7060c01b615fee565b61536d67b25d436f2e40c5ed60c01b610e99565b6153806615bf3c40b2ef9960c01b610e99565b61539467bece00293b49422760c01b610e99565b6153a86724a9727537705d3860c01b610e99565b6153bc67b0ebed7387dea74e60c01b610e99565b600e60009054906101000a900473ffffffffffffffffffffffffffffffffffffffff1673ffffffffffffffffffffffffffffffffffffffff1663df02612f306040518263ffffffff1660e01b81526004016154179190619fea565b602060405180830381865afa158015615434573d6000803e3d6000fd5b505050506040513d601f19601f82011682018060405250810190615458919061b1ab565b615497576040517f08c379a000000000000000000000000000000000000000000000000000000000815260040161548e9061b698565b60405180910390fd5b6154ab670c4145e08af51e2e60c01b610e99565b6154bf67da4831239afacfa360c01b610e99565b6154d3677f944c873e0864ff60c01b610e99565b6154e7679d729ad1aa3eec3260c01b610e99565b600e60009054906101000a900473ffffffffffffffffffffffffffffffffffffffff1673ffffffffffffffffffffffffffffffffffffffff1663218af469600f6080846040518463ffffffff1660e01b81526004016155489392919061b6fc565b602060405180830381865afa158015615565573d6000803e3d6000fd5b505050506040513d601f19601f82011682018060405250810190615589919061b1ab565b6155c8576040517f08c379a00000000000000000000000000000000000000000000000000000000081526004016155bf9061b730565b60405180910390fd5b6155dc67fcf6f973bcbd5c9e60c01b610e99565b6155f06709fbb54aa53e835d60c01b610e99565b6156046770888455978eba8c60c01b610e99565b61560d81618650565b50565b60146020528060005260406000206000915090505481565b600061563e677f4eceefec38185560c01b610e99565b61565267e625a54452764e2260c01b610e99565b61566667b6142daa99f0930860c01b610e99565b32434260405160200161567b9392919061b794565b60405160208183030381529060405280519060200120905090565b6002600d54036156db576040517f08c379a00000000000000000000000000000000000000000000000000000000081526004016156d29061b7bb565b60405180910390fd5b6002600d81905550565b80471015615728576040517f08c379a000000000000000000000000000000000000000000000000000000000815260040161571f9061b7f9565b60405180910390fd5b60008273ffffffffffffffffffffffffffffffffffffffff168260405161574e9061b837565b60006040518083038185875af1925050503d806000811461578b576040519150601f19603f3d011682016040523d82523d6000602084013e615790565b606091505b50509050806157d4576040517f08c379a00000000000000000000000000000000000000000000000000000000081526004016157cb9061b841565b60405180910390fd5b505050565b6001600d81905550565b60007f780e9d63000000000000000000000000000000000000000000000000000000007bffffffffffffffffffffffffffffffffffffffffffffffffffffffff1916827bffffffffffffffffffffffffffffffffffffffffffffffffffffffff191614806158565750615855826187d7565b5b9050919050565b60008073ffffffffffffffffffffffffffffffffffffffff1661587f83617e37565b73ffffffffffffffffffffffffffffffffffffffff1614159050919050565b60006158b467532554fb74d4b71660c01b6188b9565b6158c867eaef3d1d74ebf4d160c01b6188b9565b6158dc6726d19b3eb333231860c01b6188b9565b61592c838380806020026020016040519081016040528093929190818152602001838360200280828437600081840152601f19601f820116905080830192505050505050508660000154866188bc565b9050949350505050565b61593f8161585d565b61597e576040517f08c379a00000000000000000000000000000000000000000000000000000000081526004016159759061b1d2565b60405180910390fd5b50565b600033905090565b816007600083815260200190815260200160002060006101000a81548173ffffffffffffffffffffffffffffffffffffffff021916908373ffffffffffffffffffffffffffffffffffffffff160217905550808273ffffffffffffffffffffffffffffffffffffffff166159fc83613109565b73ffffffffffffffffffffffffffffffffffffffff167f8c5be1e5ebec7d5bd14f71427d1e84f3dd0314c0f7b2291e5b200ac8c7c3b92560405160405180910390a45050565b6000615a58671ef228119c1c0fac60c01b610e99565b615a6c67eb389471d85ff1f160c01b610e99565b615a806709134677f5ccb7ba60c01b610e99565b6000615a8b83613109565b9050615aa167d40644643b6fa91860c01b610e99565b615ab567fdaabe24a1f9b9d660c01b610e99565b8073ffffffffffffffffffffffffffffffffffffffff168473ffffffffffffffffffffffffffffffffffffffff16148015615b005750615aff674843bdc9722391ab60c01b615ff1565b5b80615b495750615b1081856151ec565b8015615b2c5750615b2b67bde73c9fa34308e460c01b615ff1565b5b8015615b485750615b47672735e14a36844af760c01b615ff1565b5b5b80615bbf57508373ffffffffffffffffffffffffffffffffffffffff16615b6f8461188c565b73ffffffffffffffffffffffffffffffffffffffff16148015615ba25750615ba167fe49289aea85f67a60c01b615ff1565b5b8015615bbe5750615bbd67f7b35763c689f07e60c01b615ff1565b5b5b80615c2257503073ffffffffffffffffffffffffffffffffffffffff168173ffffffffffffffffffffffffffffffffffffffff16148015615c055750615c0484618518565b5b8015615c215750615c2067f26aeb00e035bc3860c01b615ff1565b5b5b91505092915050565b8273ffffffffffffffffffffffffffffffffffffffff16615c4b82613109565b73ffffffffffffffffffffffffffffffffffffffff1614615ca1576040517f08c379a0000000000000000000000000000000000000000000000000000000008152600401615c989061b8a5565b60405180910390fd5b600073ffffffffffffffffffffffffffffffffffffffff168273ffffffffffffffffffffffffffffffffffffffff1603615d10576040517f08c379a0000000000000000000000000000000000000000000000000000000008152600401615d079061b909565b60405180910390fd5b615d1d83838360016188d3565b8273ffffffffffffffffffffffffffffffffffffffff16615d3d82613109565b73ffffffffffffffffffffffffffffffffffffffff1614615d93576040517f08c379a0000000000000000000000000000000000000000000000000000000008152600401615d8a9061b8a5565b60405180910390fd5b6007600082815260200190815260200160002060006101000a81549073ffffffffffffffffffffffffffffffffffffffff02191690556001600660008573ffffffffffffffffffffffffffffffffffffffff1673ffffffffffffffffffffffffffffffffffffffff168152602001908152602001600020600082825403925050819055506001600660008473ffffffffffffffffffffffffffffffffffffffff1673ffffffffffffffffffffffffffffffffffffffff16815260200190815260200160002060008282540192505081905550816005600083815260200190815260200160002060006101000a81548173ffffffffffffffffffffffffffffffffffffffff021916908373ffffffffffffffffffffffffffffffffffffffff160217905550808273ffffffffffffffffffffffffffffffffffffffff168473ffffffffffffffffffffffffffffffffffffffff167fddf252ad1be2c89b69c2b068fc378daa952ba7f163c4a11628f55a4df523b3ef60405160405180910390a4615f1f8383836001618c08565b505050565b6000612710905090565b615f426788342da54b22aeb460c01b6188b9565b615f5667aa8bb6ac0d9a98b660c01b6188b9565b615f6a67dd75ccd554090f5260c01b6188b9565b615f7e67a59af08985efae7c60c01b6188b9565b808360010160008481526020019081526020016000205410615fd5576040517f08c379a0000000000000000000000000000000000000000000000000000000008152600401615fcc9061b96d565b60405180910390fd5b615fe9678323f253bbb16a1b60c01b6188b9565b505050565b50565b600060019050919050565b61601067b8c00545e54a5dbc60c01b610e99565b616024674848e7b633ed121260c01b610e99565b616038678622ff5704f8471960c01b610e99565b6160478a8a898987878761674e565b1561608d576160606782cc3379b9612ce660c01b610e99565b61607467e80a66728cbe19b460c01b610e99565b616088675533824f97bb18e260c01b610e99565b616742565b6160a1672e0f2a334cbb7a9d60c01b610e99565b6160b5675b8659f199e02af260c01b610e99565b6160c9675b7695865d5c131460c01b610e99565b600160028111156160dd576160dc61ac56565b5b6017600c9054906101000a900460ff1660028111156160ff576160fe61ac56565b5b0361631d576161186711410e6a23a7f8b160c01b610e99565b61612c67cad5be30ea5fc9b060c01b610e99565b61614067fe48211d778a0d8860c01b610e99565b616154676ce92a3cb676568060c01b610e99565b601654601460008c73ffffffffffffffffffffffffffffffffffffffff1673ffffffffffffffffffffffffffffffffffffffff16815260200190815260200160002054106161d7576040517f08c379a00000000000000000000000000000000000000000000000000000000081526004016161ce9061b9d1565b60405180910390fd5b6161eb67857db3d0ac674a7260c01b610e99565b6161ff672a4b66b802a4ffb860c01b610e99565b601460008b73ffffffffffffffffffffffffffffffffffffffff1673ffffffffffffffffffffffffffffffffffffffff1681526020019081526020016000206000815461624b9061ba35565b91905081905550616266678c956a8464867e1860c01b610e99565b61627a67976fa2f5a70b0b4460c01b610e99565b6162848a8a618c0e565b616298676c758be27861123e60c01b610e99565b6162ac67bae86be958e2079b60c01b610e99565b888a73ffffffffffffffffffffffffffffffffffffffff167f354f2a7902a1ccd45558fd30bbcb6aeb95271f6b8d19fbcb8bc35a92cc315e1760405160405180910390a3616304674d413149d39b8d2a60c01b610e99565b6163186755348dc065e628ae60c01b610e99565b616742565b61633167b7fec5a4cf63665660c01b610e99565b61634567ee3cd66c997a450060c01b610e99565b616359679bf90eb064811cd360c01b610e99565b600083806020019061636b919061ba53565b85806040019061637b919061baa8565b87600001602081019061638e919061b4cc565b6040516020016163a295949392919061bafd565b6040516020818303038152906040528051906020012090506163ce6712492c9f34fe780560c01b610e99565b6163e267aea4afb43f3ebb1d60c01b610e99565b60008360000160208101906163f7919061a146565b846020013560405160200161640d92919061a0c1565b60405160208183030381529060405280519060200120905061643967e2ad30531fb3341460c01b610e99565b61644d67b0df249b97cf778960c01b610e99565b600084806040019061645f919061ba53565b86806060019061646f919061baa8565b604051602001616482949392919061b607565b6040516020818303038152906040528051906020012090506164ae6793063f86da70590760c01b610e99565b6164c2675c93fd43b14a93a360c01b610e99565b6164d48d8d8d8d8d8d8d8a8a8a61301a565b156166cb576164ed676ac9babba6e76d1b60c01b610e99565b61650167e6dd3cffe931355860c01b610e99565b61651567f0f4ca1ae793100b60c01b610e99565b600061652b67d3dd04d17a5c1ae860c01b610e99565b7f77686974656c69737400000000000000000000000000000000000000000000008e01905061656467dc0961d040e416ee60c01b610e99565b6165786776dcd9d54df42f5060c01b610e99565b61658e818d6010618e2b9092919063ffffffff16565b6165a26760c45bf8377b3e2b60c01b610e99565b6165b66719dcc27c1fd4d95760c01b610e99565b6165fc60008e8686866040516020016165d395949392919061ad71565b6040516020818303038152906040528051906020012060016012618e2b9092919063ffffffff16565b61661067b7d4fca40e91172f60c01b610e99565b61662467319ed55eb770494360c01b610e99565b61662e8e8e618c0e565b616642673729c7fd0d39c69760c01b610e99565b61665667510264d14d452afe60c01b610e99565b8c8e73ffffffffffffffffffffffffffffffffffffffff167f2ae43f90ae9cfb71589f1d04827ceed9a9f3c6cd0dbe29cb5d584761b8c0098860405160405180910390a36166ae6786575eb10620d4c660c01b610e99565b6166c2670683fa612c4f22e560c01b610e99565b50505050616742565b6166df67f02cedc8d0b779e560c01b610e99565b6166f36729d0ff975cb09fb460c01b610e99565b616707676f38fc5c7c6289e760c01b610e99565b6040517f08c379a00000000000000000000000000000000000000000000000000000000081526004016167399061b0af565b60405180910390fd5b50505050505050505050565b600061676467b2f38dbc31ce61df60c01b610e99565b616778676c8b21abd6862a3f60c01b610e99565b61678c6704186854cd8742ba60c01b610e99565b6167a067c8f6075c64c04c5760c01b610e99565b6167b467e9ef254967ff12e360c01b610e99565b60006017600c9054906101000a900460ff1660028111156167d8576167d761ac56565b5b60ff161161681b576040517f08c379a00000000000000000000000000000000000000000000000000000000081526004016168129061bb45565b60405180910390fd5b61682f67801ef9dd406016a560c01b610e99565b616843676b1433733779acd960c01b610e99565b616857678480dacbae82954560c01b610e99565b61686b6786926a4c90b9948b60c01b610e99565b61687f67d0590900748ff0d960c01b610e99565b61689367a50e53b9e3b1470e60c01b610e99565b6168a7678bd396c2072f160760c01b610e99565b6168b08761585d565b156168f0576040517f08c379a00000000000000000000000000000000000000000000000000000000081526004016168e79061bb83565b60405180910390fd5b6169046781021671e4dc99c760c01b610e99565b61691867e6dcfc8b92b41e6f60c01b610e99565b61692c67b437e5a246e6ce9c60c01b610e99565b6169406778a76e622ed5a3bf60c01b610e99565b6000848060200190616952919061ba53565b9050905061696a675fdfb97aad0df18260c01b610e99565b61697e676a87143c7e3d16ad60c01b610e99565b61699267232859bb5500303a60c01b610e99565b8480604001906169a2919061baa8565b905081146169e5576040517f08c379a00000000000000000000000000000000000000000000000000000000081526004016169dc9061afb2565b60405180910390fd5b6169f967e68d5f8944d4f0d760c01b610e99565b616a0d678d8f30552ff9fd6060c01b610e99565b616a216720a13ef34eec958760c01b610e99565b6000601f60008a81526020019081526020016000209050616a4c672d57bd177b60317960c01b610e99565b616a606747df77497a25af5f60c01b610e99565b6000866000016020810190616a75919061b4cc565b9050616a8b675f24e86aef85679060c01b610e99565b616a9f677ba399e3e350f15e60c01b610e99565b60005b83811015616d8857616abe675c437dc0c0dba57c60c01b610e99565b616ad267e0adc42bcd2e1a4860c01b610e99565b616ae6677cd449d1655c358760c01b610e99565b600073ffffffffffffffffffffffffffffffffffffffff16888060200190616b0e919061ba53565b83818110616b1f57616b1e61ac9b565b5b9050602002016020810190616b34919061a146565b73ffffffffffffffffffffffffffffffffffffffff1603616b8a576040517f08c379a0000000000000000000000000000000000000000000000000000000008152600401616b819061b48e565b60405180910390fd5b616b9e67f4a1646a14c11a3d60c01b610e99565b616bb2671a5e7e44a436c82960c01b610e99565b616bc667e1f9195f741398f660c01b610e99565b8260010160405180604001604052808a8060200190616be5919061ba53565b85818110616bf657616bf561ac9b565b5b9050602002016020810190616c0b919061a146565b73ffffffffffffffffffffffffffffffffffffffff1681526020018a8060400190616c36919061baa8565b85818110616c4757616c4661ac9b565b5b9050602002016020810190616c5c919061b4cc565b6bffffffffffffffffffffffff168152509080600181540180825580915050600190039060005260206000200160009091909190915060008201518160000160006101000a81548173ffffffffffffffffffffffffffffffffffffffff021916908373ffffffffffffffffffffffffffffffffffffffff16021790555060208201518160000160146101000a8154816bffffffffffffffffffffffff02191690836bffffffffffffffffffffffff1602179055505050616d266768e7f3325add19e760c01b610e99565b878060400190616d36919061baa8565b82818110616d4757616d4661ac9b565b5b9050602002016020810190616d5c919061b4cc565b82616d67919061b4ef565b9150616d7d67cc0d02de59beaeeb60c01b610e99565b806001019050616aa2565b50616d9d67fe3c91432f23756e60c01b610e99565b616db167b05d0180d4cc68c560c01b610e99565b616dc5679d724ea73a1592d560c01b610e99565b601760009054906101000a90046bffffffffffffffffffffffff166bffffffffffffffffffffffff16816bffffffffffffffffffffffff1614616e3d576040517f08c379a0000000000000000000000000000000000000000000000000000000008152600401616e349061b525565b60405180910390fd5b616e51670e32ebea8e9bebe560c01b610e99565b616e6567a48aa0f391fdff9360c01b610e99565b8a8260000160000160006101000a81548173ffffffffffffffffffffffffffffffffffffffff021916908373ffffffffffffffffffffffffffffffffffffffff160217905550616ebf67a5e1308e258fbace60c01b610e99565b866000016020810190616ed2919061b4cc565b8260000160000160146101000a8154816bffffffffffffffffffffffff02191690836bffffffffffffffffffffffff160217905550616f1b67b81ccc162f7feec660c01b610e99565b616f2f672baa0abeeda831a960c01b610e99565b8a73ffffffffffffffffffffffffffffffffffffffff168a7faea702ed68e0a0aebf9e77580c1a2257343429627d37c0f25228c9fede39f6c8896000016020810190616f7b919061b4cc565b8a8060200190616f8b919061ba53565b8c8060400190616f9b919061baa8565b604051616fac95949392919061bbc0565b60405180910390a3505050616fcb673aa6f2a9ab15490c60c01b610e99565b616fdf6735b796d58087de3e60c01b610e99565b60008360200135111561781c5761700067568cbce1bbd119d060c01b610e99565b617014675854fd38c5a4c1d060c01b610e99565b61702867de9bba933fdd713160c01b610e99565b60008073ffffffffffffffffffffffffffffffffffffffff16846000016020810190617054919061a146565b73ffffffffffffffffffffffffffffffffffffffff1614905061708167beedc158e001de8f60c01b610e99565b61709567ba841d9b64d3abf660c01b610e99565b8015617156576170af678243b0c47e097d1c60c01b610e99565b6170c367be6e09142c0d446e60c01b610e99565b6170d76799a30f89c7f3bf9c60c01b610e99565b6170eb67ad1417c463ea88c260c01b610e99565b8360200135836170fb9190619dea565b34101561713d576040517f08c379a00000000000000000000000000000000000000000000000000000000081526004016171349061bc08565b60405180910390fd5b6171516710231ee70083a8aa60c01b610e99565b6171dd565b61716a67622ce05263e1c31060c01b610e99565b61717e67e6ecbc7c5c96e25b60c01b610e99565b617192677aedf9e0adba15d860c01b610e99565b6171dc61719d615981565b3086602001358760000160208101906171b6919061a146565b73ffffffffffffffffffffffffffffffffffffffff16618eb4909392919063ffffffff16565b5b6171f167ad48778785f0b6a360c01b610e99565b617205675836524642e5dfae60c01b610e99565b6000848060400190617217919061ba53565b9050905061722f67b5e2c20288af84b660c01b610e99565b61724367431659cf074a0d9f60c01b610e99565b61725767c1cb398da355316960c01b610e99565b848060600190617267919061baa8565b905081146172aa576040517f08c379a00000000000000000000000000000000000000000000000000000000081526004016172a19061afb2565b60405180910390fd5b6172be6708a64de9b9dd3ef860c01b610e99565b6172d2672c1699b41c33deb360c01b610e99565b6172e6672fe6848a81660cd560c01b610e99565b60006172fc67389d997fd3acc48260c01b610e99565b61731067ecd957653faf905860c01b610e99565b60005b828110156176db5761732f67a798d5a4131115f560c01b610e99565b61734367282bb33c4a4cf50560c01b610e99565b617357671af2d95e76b69ba160c01b610e99565b600073ffffffffffffffffffffffffffffffffffffffff1687806040019061737f919061ba53565b838181106173905761738f61ac9b565b5b90506020020160208101906173a5919061a146565b73ffffffffffffffffffffffffffffffffffffffff16036173fb576040517f08c379a00000000000000000000000000000000000000000000000000000000081526004016173f29061b48e565b60405180910390fd5b61740f67598292cd24decf7760c01b610e99565b617423673f230520fdbacfac60c01b610e99565b868060600190617433919061baa8565b828181106174445761744361ac9b565b5b9050602002016020810190617459919061b4cc565b82617464919061b4ef565b915061747a6773dff987af19592060c01b610e99565b61748e67b86628e86ee459b760c01b610e99565b83156175a0576174a8672b34a075f65410a860c01b610e99565b6174bc6714658707fd48634860c01b610e99565b6174d0675d73495a20b17ae660c01b610e99565b61759b6127106bffffffffffffffffffffffff168880606001906174f4919061baa8565b848181106175055761750461ac9b565b5b905060200201602081019061751a919061b4cc565b6bffffffffffffffffffffffff168960200135617537919061acb1565b617541919061aced565b888060400190617551919061ba53565b848181106175625761756161ac9b565b5b9050602002016020810190617577919061a146565b73ffffffffffffffffffffffffffffffffffffffff166156e590919063ffffffff16565b6176bc565b6175b467ca5dfec4724e119960c01b610e99565b6175c8679670bcd2f46e9ff960c01b610e99565b6175dc676696278fe74e4dff60c01b610e99565b6176bb8780604001906175ef919061ba53565b83818110617600576175ff61ac9b565b5b9050602002016020810190617615919061a146565b6127106bffffffffffffffffffffffff16898060600190617636919061baa8565b858181106176475761764661ac9b565b5b905060200201602081019061765c919061b4cc565b6bffffffffffffffffffffffff168a60200135617679919061acb1565b617683919061aced565b896000016020810190617696919061a146565b73ffffffffffffffffffffffffffffffffffffffff16618f3d9092919063ffffffff16565b5b6176d06752670d0e8691e9cb60c01b610e99565b806001019050617313565b506176f0676811976fcf960e1560c01b610e99565b61770467151b8a184823956360c01b610e99565b6177186775c786fc6f87d8ee60c01b610e99565b6127106bffffffffffffffffffffffff16816bffffffffffffffffffffffff1614617778576040517f08c379a000000000000000000000000000000000000000000000000000000000815260040161776f9061bc46565b60405180910390fd5b61778c673473d6463d9a3c7060c01b610e99565b6177a0672c8e20383d0fffbd60c01b610e99565b6177b467813a60e79ec5bfa160c01b610e99565b897f754744b851cc64c4750cecd440a117371b126548a8f25fae3a8725654a175e5a87602001358880604001906177eb919061ba53565b8a80606001906177fb919061baa8565b60405161780c95949392919061bcaa565b60405180910390a2505050617831565b617830676023c18f6602f5d060c01b610e99565b5b617845674e525c5be2cd114160c01b610e99565b617859673f20d4a94eebe96b60c01b610e99565b600084806020019061786b919061ba53565b86806040019061787b919061baa8565b88600001602081019061788e919061b4cc565b6040516020016178a295949392919061bafd565b6040516020818303038152906040528051906020012090506178ce6746bdef8dc94ea6fb60c01b610e99565b6178e2673da98c9fab3b5e8d60c01b610e99565b60008460000160208101906178f7919061a146565b856020013560405160200161790d92919061a0c1565b60405160208183030381529060405280519060200120905061793967bd4b9a12912b778860c01b610e99565b61794d67c57690dfe417f58960c01b610e99565b600085806040019061795f919061ba53565b87806060019061796f919061baa8565b604051602001617982949392919061b607565b6040516020818303038152906040528051906020012090506179ae67b5cf807fb5ee5eb060c01b610e99565b6179c26764baaf9a0e3de73760c01b610e99565b6179d18b8b8b8b87878761169f565b15617b47576179ea6790cd6bf8e375386360c01b610e99565b6179fe6733e1698fe7c8102460c01b610e99565b617a12675409630a4e2b2f2360c01b610e99565b617a578b8b858585604051602001617a2e95949392919061ad71565b6040516020818303038152906040528051906020012060016012618e2b9092919063ffffffff16565b617a6b67f2a5c57ab4c2c45060c01b610e99565b617a7f67396f55e4be34bcfb60c01b610e99565b617a898b8b618c0e565b617a9d6767976fe2fea8256f60c01b610e99565b617ab167eb53b8e491986a8e60c01b610e99565b898b73ffffffffffffffffffffffffffffffffffffffff16617ad1615981565b73ffffffffffffffffffffffffffffffffffffffff167fd98174efa32b0dce95f4179fbbdde7cfbb835a06653a1e49bd85be7e93163f7260405160405180910390a4617b2767644b079103acc7bd60c01b610e99565b617b3b676e6044aeb902db6f60c01b610e99565b60019350505050617d77565b617b5b679388bee8c78611af60c01b610e99565b617b6f67254492d13e85ad8860c01b610e99565b617b8367b236dee6841cf97860c01b610e99565b617b918a8a8a868686612aad565b8015617ba95750617ba8617ba3615981565b618518565b5b15617d3357617bc2678fe16b838f40393760c01b610e99565b617bd6673c7d540b972031da60c01b610e99565b617bea674960d662c4a2d71460c01b610e99565b617c4373ffffffffffffffffffffffffffffffffffffffff8b858585604051602001617c1a95949392919061ad71565b6040516020818303038152906040528051906020012060016012618e2b9092919063ffffffff16565b617c5767403b058f8a4d9dfe60c01b610e99565b617c6b670a4a6b761cb5ecc460c01b610e99565b617c758b8b618c0e565b617c8967e3f2fa0080f1f15c60c01b610e99565b617c9d6728dd13dff52aae2660c01b610e99565b898b73ffffffffffffffffffffffffffffffffffffffff16617cbd615981565b73ffffffffffffffffffffffffffffffffffffffff167f4496095fcc0c260dfd568b3a5a0c48fdc3784fbe6d9db7b99db2047254585b3d60405160405180910390a4617d1367d538c1c6f31a798160c01b610e99565b617d27674125c1e4f6bae90c60c01b610e99565b60019350505050617d77565b617d4767b55a148e5974d1c060c01b610e99565b617d5b678a109b948b3d932c60c01b610e99565b617d6f670252a9799e09221460c01b610e99565b600093505050505b979650505050505050565b617d9667d9f3487aab309b7a60c01b615fee565b617daa67ac37bf9dd395dc4560c01b615fee565b617dbe677b604ffdce59362a60c01b615fee565b617dd267909a54cda7fe969860c01b615fee565b617de2617ddd615981565b611d70565b617e21576040517f08c379a0000000000000000000000000000000000000000000000000000000008152600401617e189061bce4565b60405180910390fd5b617e35671ab04e1748af80ec60c01b615fee565b565b60006005600083815260200190815260200160002060009054906101000a900473ffffffffffffffffffffffffffffffffffffffff169050919050565b8173ffffffffffffffffffffffffffffffffffffffff168373ffffffffffffffffffffffffffffffffffffffff1603617ee2576040517f08c379a0000000000000000000000000000000000000000000000000000000008152600401617ed99061bd21565b60405180910390fd5b80600860008573ffffffffffffffffffffffffffffffffffffffff1673ffffffffffffffffffffffffffffffffffffffff16815260200190815260200160002060008473ffffffffffffffffffffffffffffffffffffffff1673ffffffffffffffffffffffffffffffffffffffff16815260200190815260200160002060006101000a81548160ff0219169083151502179055508173ffffffffffffffffffffffffffffffffffffffff168373ffffffffffffffffffffffffffffffffffffffff167f17307eab39ab6107e8899845ad3d59bd9653f200f220920489ca2b5937696c3183604051617fd39190619e48565b60405180910390a3505050565b617ff467afac0f23ecf02aee60c01b615fee565b61800867f9c9f84f12a226cb60c01b615fee565b61801c67648365238100ae4560c01b615fee565b61802581618fc3565b50565b618030615f24565b6bffffffffffffffffffffffff16816bffffffffffffffffffffffff16111561808e576040517f08c379a00000000000000000000000000000000000000000000000000000000081526004016180859061bd5f565b60405180910390fd5b600073ffffffffffffffffffffffffffffffffffffffff168273ffffffffffffffffffffffffffffffffffffffff16036180fd576040517f08c379a00000000000000000000000000000000000000000000000000000000081526004016180f49061bdc3565b60405180910390fd5b60405180604001604052808373ffffffffffffffffffffffffffffffffffffffff168152602001826bffffffffffffffffffffffff16815250600160008201518160000160006101000a81548173ffffffffffffffffffffffffffffffffffffffff021916908373ffffffffffffffffffffffffffffffffffffffff16021790555060208201518160000160146101000a8154816bffffffffffffffffffffffff02191690836bffffffffffffffffffffffff1602179055509050505050565b6181d16730d0da1ac735625460c01b6188b9565b6181e5678e31a676889f7a0760c01b6188b9565b8082600001819055505050565b6000618208678b10b49868c97c1360c01b6188b9565b61821c675e5643d8973b671f60c01b6188b9565b61823067256f88a52941a8df60c01b6188b9565b81600001549050919050565b600061825267c4536b33cd9a1ec360c01b610e99565b61826667d2345a02d5ae898560c01b610e99565b828290509050618280674b30eab4142fd51b60c01b610e99565b618294677898f48c86f72cd460c01b610e99565b6182a867061c76ee1678623f60c01b610e99565b80878790501480156182bc57508085859050145b6182fb576040517f08c379a00000000000000000000000000000000000000000000000000000000081526004016182f29061afb2565b60405180910390fd5b61830f67513b1b536c865fc660c01b610e99565b9695505050505050565b618324848484615c2b565b618330848484846190ff565b61836f576040517f08c379a00000000000000000000000000000000000000000000000000000000081526004016183669061be01565b60405180910390fd5b50505050565b606061838b67ee6eef1f5db8657260c01b610e99565b61839f670c594d3e635d2ac260c01b610e99565b6183b36742bc11de3485d18860c01b610e99565b601880546183c09061ada6565b80601f01602080910402602001604051908101604052809291908181526020018280546183ec9061ada6565b80156184395780601f1061840e57610100808354040283529160200191618439565b820191906000526020600020905b81548152906001019060200180831161841c57829003601f168201915b5050505050905090565b6000919050565b60606000600161845984619286565b01905060008167ffffffffffffffff8111156184785761847761a7c3565b5b6040519080825280601f01601f1916602001820160405280156184aa5781602001600182028036833780820191505090505b509050600082602001820190505b60011561850d578080600190039150507f3031323334353637383961626364656600000000000000000000000000000000600a86061a8153600a85816185015761850061acd7565b5b049450600085036184b8575b819350505050919050565b600061852e675655bfa3e0db3d4f60c01b610e99565b61854267c42f665104a67d9960c01b610e99565b618556671ab249ed9b3d283b60c01b610e99565b600e60009054906101000a900473ffffffffffffffffffffffffffffffffffffffff1673ffffffffffffffffffffffffffffffffffffffff16630a6429a1600f306060866040518563ffffffff1660e01b81526004016185b9949392919061b3d3565b602060405180830381865afa1580156185d6573d6000803e3d6000fd5b505050506040513d601f19601f820116820180604052508101906185fa919061b1ab565b80156186165750618615674f91d3c944c69f5e60c01b615ff1565b5b80618649575061862c618627615981565b611d70565b801561864857506186476728c8378bf6bb21b960c01b615ff1565b5b5b9050919050565b61866467d571101468c1107f60c01b615fee565b61867867b2caabcd11901e1d60c01b615fee565b61868c677f9141d11d3d74d160c01b615fee565b6186a067aace8ad572f7e1f060c01b615fee565b6186a8617d82565b6186bc67a8b43d5db73dbf7060c01b615fee565b6186d067997ad0c93d37be9060c01b615fee565b6186e467c3f6ed3272af477d60c01b615fee565b6186f867a9291f344712519260c01b615fee565b61870c6718e708f245d986cb60c01b615fee565b61872067a0b5cdb3aee4f21560c01b615fee565b600073ffffffffffffffffffffffffffffffffffffffff168173ffffffffffffffffffffffffffffffffffffffff160361878f576040517f08c379a00000000000000000000000000000000000000000000000000000000081526004016187869061be65565b60405180910390fd5b6187a3672f5137525f82cafb60c01b615fee565b6187b767d6f54b645882f22060c01b615fee565b6187cb67ccbc89b0d8639f6460c01b615fee565b6187d481618fc3565b50565b60007f80ac58cd000000000000000000000000000000000000000000000000000000007bffffffffffffffffffffffffffffffffffffffffffffffffffffffff1916827bffffffffffffffffffffffffffffffffffffffffffffffffffffffff191614806188a257507f5b5e139f000000000000000000000000000000000000000000000000000000007bffffffffffffffffffffffffffffffffffffffffffffffffffffffff1916827bffffffffffffffffffffffffffffffffffffffffffffffffffffffff1916145b806188b257506188b1826193d9565b5b9050919050565b50565b6000826188c98584619453565b1490509392505050565b6188e767c885fbd0f9d65d7260c01b610e99565b6188fb671212fdd666ff7f6860c01b610e99565b61890f6718a88ec991c28da060c01b610e99565b618923679eb6ee54bcadead660c01b610e99565b6015548210618967576040517f08c379a000000000000000000000000000000000000000000000000000000000815260040161895e9061bec9565b60405180910390fd5b61897b67683eb8429710b6ce60c01b610e99565b61898f6740bb157d6542af0460c01b610e99565b6189a3678a1c2f4a24bbc62460c01b610e99565b600073ffffffffffffffffffffffffffffffffffffffff168473ffffffffffffffffffffffffffffffffffffffff161480156189ef57506189ee6764b9a6e94c7ec99460c01b615ff1565b5b80618a425750600073ffffffffffffffffffffffffffffffffffffffff168373ffffffffffffffffffffffffffffffffffffffff16148015618a415750618a406756f60447ed522c2d60c01b615ff1565b5b5b15618aa557618a5b67f771f0df92916bb560c01b610e99565b618a6f67b41ad0fe9bf45c0e60c01b610e99565b601b600080820160009055600182016000905560028201600090556003820160006101000a81549060ff02191690555050618bce565b618ab96732344a942140f91860c01b610e99565b618acd672a55dcbea6bc82b060c01b610e99565b618ae16747299ec051930dc560c01b610e99565b618ae9610e9c565b618afd6766fa28643709794160c01b610e99565b81601b60020181905550618b1b677c438958062ee5ba60c01b610e99565b618b2f67cc3293cbd8061e9a60c01b610e99565b6000601b600101541115618b8657618b516731e5d32a9a3b54f860c01b610e99565b618b65673bc05fdd4987b94a60c01b610e99565b618b79674b6d03e864d58acd60c01b610e99565b618b81610fc1565b618bcd565b618b9a6720a2979f9e521ca160c01b610e99565b618bae67e510f9ebb5d97b9660c01b610e99565b6001601b60030160006101000a81548160ff0219169083151502179055505b5b618be267701abcdb0e77597e60c01b610e99565b618bf667ed18d23da3408bdb60c01b610e99565b618c02848484846194a9565b50505050565b50505050565b600073ffffffffffffffffffffffffffffffffffffffff168273ffffffffffffffffffffffffffffffffffffffff1603618c7d576040517f08c379a0000000000000000000000000000000000000000000000000000000008152600401618c749061bf2d565b60405180910390fd5b618c868161585d565b15618cc6576040517f08c379a0000000000000000000000000000000000000000000000000000000008152600401618cbd9061bf6a565b60405180910390fd5b618cd46000838360016188d3565b618cdd8161585d565b15618d1d576040517f08c379a0000000000000000000000000000000000000000000000000000000008152600401618d149061bf6a565b60405180910390fd5b6001600660008473ffffffffffffffffffffffffffffffffffffffff1673ffffffffffffffffffffffffffffffffffffffff16815260200190815260200160002060008282540192505081905550816005600083815260200190815260200160002060006101000a81548173ffffffffffffffffffffffffffffffffffffffff021916908373ffffffffffffffffffffffffffffffffffffffff160217905550808273ffffffffffffffffffffffffffffffffffffffff16600073ffffffffffffffffffffffffffffffffffffffff167fddf252ad1be2c89b69c2b068fc378daa952ba7f163c4a11628f55a4df523b3ef60405160405180910390a4618e27600083836001618c08565b5050565b618e3f67e0a6f976b9159b7f60c01b6188b9565b618e53672d64c081773cebac60c01b6188b9565b618e67678020493a8dab5a3d60c01b6188b9565b618e72838383615f2e565b618e866724b3cf3e3f887c1c60c01b6188b9565b82600101600083815260200190815260200160002060008154618ea89061ba35565b91905081905550505050565b618f37846323b872dd60e01b858585604051602401618ed59392919061bfa8565b604051602081830303815290604052907bffffffffffffffffffffffffffffffffffffffffffffffffffffffff19166020820180517bffffffffffffffffffffffffffffffffffffffffffffffffffffffff8381831617835250505050619607565b50505050565b618fbe8363a9059cbb60e01b8484604051602401618f5c92919061a0c1565b604051602081830303815290604052907bffffffffffffffffffffffffffffffffffffffffffffffffffffffff19166020820180517bffffffffffffffffffffffffffffffffffffffffffffffffffffffff8381831617835250505050619607565b505050565b618fd767c6206496878ff6c960c01b615fee565b618feb67cccf54abbe24f10b60c01b615fee565b618fff6747591617d493fa3060c01b615fee565b60008060009054906101000a900473ffffffffffffffffffffffffffffffffffffffff169050619039672877a4701b51070960c01b615fee565b816000806101000a81548173ffffffffffffffffffffffffffffffffffffffff021916908373ffffffffffffffffffffffffffffffffffffffff16021790555061908d67337323dfe7bd9e6e60c01b615fee565b6190a167a1d03c7d048db47660c01b615fee565b8173ffffffffffffffffffffffffffffffffffffffff168173ffffffffffffffffffffffffffffffffffffffff167f8be0079c531659141344cd1fd0a4f28419497f9722a3daafe3b4186f6b6457e060405160405180910390a35050565b60006191208473ffffffffffffffffffffffffffffffffffffffff166196ce565b15619279578373ffffffffffffffffffffffffffffffffffffffff1663150b7a02619149615981565b8786866040518563ffffffff1660e01b815260040161916b949392919061bfd3565b6020604051808303816000875af19250505080156191a757506040513d601f19601f820116820180604052508101906191a4919061c00f565b60015b619229573d80600081146191d7576040519150601f19603f3d011682016040523d82523d6000602084013e6191dc565b606091505b506000815103619221576040517f08c379a00000000000000000000000000000000000000000000000000000000081526004016192189061be01565b60405180910390fd5b805181602001fd5b63150b7a0260e01b7bffffffffffffffffffffffffffffffffffffffffffffffffffffffff1916817bffffffffffffffffffffffffffffffffffffffffffffffffffffffff19161491505061927e565b600190505b949350505050565b600080600090507a184f03e93ff9f4daa797ed6e38ed64bf6a1f01000000000000000083106192e4577a184f03e93ff9f4daa797ed6e38ed64bf6a1f01000000000000000083816192da576192d961acd7565b5b0492506040810190505b6d04ee2d6d415b85acef81000000008310619321576d04ee2d6d415b85acef810000000083816193175761931661acd7565b5b0492506020810190505b662386f26fc10000831061935057662386f26fc1000083816193465761934561acd7565b5b0492506010810190505b6305f5e1008310619379576305f5e100838161936f5761936e61acd7565b5b0492506008810190505b612710831061939e5761271083816193945761939361acd7565b5b0492506004810190505b606483106193c157606483816193b7576193b661acd7565b5b0492506002810190505b600a83106193d0576001810190505b80915050919050565b60007f2a55205a000000000000000000000000000000000000000000000000000000007bffffffffffffffffffffffffffffffffffffffffffffffffffffffff1916827bffffffffffffffffffffffffffffffffffffffffffffffffffffffff1916148061944c575061944b826196f1565b5b9050919050565b60008082905060005b845181101561949e576194898286838151811061947c5761947b61ac9b565b5b602002602001015161975b565b915080806194969061ba35565b91505061945c565b508091505092915050565b6194b584848484619786565b60018111156194f9576040517f08c379a00000000000000000000000000000000000000000000000000000000081526004016194f09061c036565b60405180910390fd5b6000829050600073ffffffffffffffffffffffffffffffffffffffff168573ffffffffffffffffffffffffffffffffffffffff16036195405761953b8161978c565b61957f565b8373ffffffffffffffffffffffffffffffffffffffff168573ffffffffffffffffffffffffffffffffffffffff161461957e5761957d85826197d5565b5b5b600073ffffffffffffffffffffffffffffffffffffffff168473ffffffffffffffffffffffffffffffffffffffff16036195c1576195bc81619942565b619600565b8473ffffffffffffffffffffffffffffffffffffffff168473ffffffffffffffffffffffffffffffffffffffff16146195ff576195fe8482619a13565b5b5b5050505050565b6000619669826040518060400160405280602081526020017f5361666545524332303a206c6f772d6c6576656c2063616c6c206661696c65648152508573ffffffffffffffffffffffffffffffffffffffff16619a929092919063ffffffff16565b90506000815111156196c95780806020019051810190619689919061b1ab565b6196c8576040517f08c379a00000000000000000000000000000000000000000000000000000000081526004016196bf9061c09a565b60405180910390fd5b5b505050565b6000808273ffffffffffffffffffffffffffffffffffffffff163b119050919050565b60007f01ffc9a7000000000000000000000000000000000000000000000000000000007bffffffffffffffffffffffffffffffffffffffffffffffffffffffff1916827bffffffffffffffffffffffffffffffffffffffffffffffffffffffff1916149050919050565b60008183106197735761976e8284619aaa565b61977e565b61977d8383619aaa565b5b905092915050565b50505050565b600b80549050600c600083815260200190815260200160002081905550600b81908060018154018082558091505060019003906000526020600020016000909190919091505550565b600060016197e284613675565b6197ec919061ad15565b90506000600a60008481526020019081526020016000205490508181146198d1576000600960008673ffffffffffffffffffffffffffffffffffffffff1673ffffffffffffffffffffffffffffffffffffffff168152602001908152602001600020600084815260200190815260200160002054905080600960008773ffffffffffffffffffffffffffffffffffffffff1673ffffffffffffffffffffffffffffffffffffffff16815260200190815260200160002060008481526020019081526020016000208190555081600a600083815260200190815260200160002081905550505b600a600084815260200190815260200160002060009055600960008573ffffffffffffffffffffffffffffffffffffffff1673ffffffffffffffffffffffffffffffffffffffff16815260200190815260200160002060008381526020019081526020016000206000905550505050565b60006001600b80549050619956919061ad15565b90506000600c60008481526020019081526020016000205490506000600b83815481106199865761998561ac9b565b5b9060005260206000200154905080600b83815481106199a8576199a761ac9b565b5b906000526020600020018190555081600c600083815260200190815260200160002081905550600c600085815260200190815260200160002060009055600b8054806199f7576199f661c0fe565b5b6001900381819060005260206000200160009055905550505050565b6000619a1e83613675565b905081600960008573ffffffffffffffffffffffffffffffffffffffff1673ffffffffffffffffffffffffffffffffffffffff16815260200190815260200160002060008381526020019081526020016000208190555080600a600084815260200190815260200160002081905550505050565b6060619aa18484600085619ac1565b90509392505050565b600082600052816020526040600020905092915050565b606082471015619b06576040517f08c379a0000000000000000000000000000000000000000000000000000000008152600401619afd9061c114565b60405180910390fd5b6000808673ffffffffffffffffffffffffffffffffffffffff168587604051619b2f919061c178565b60006040518083038185875af1925050503d8060008114619b6c576040519150601f19603f3d011682016040523d82523d6000602084013e619b71565b606091505b5091509150619b8287838387619b8e565b92505050949350505050565b60608315619bf0576000835103619be857619ba8856196ce565b619be7576040517f08c379a0000000000000000000000000000000000000000000000000000000008152600401619bde9061c196565b60405180910390fd5b5b829050619bfb565b619bfa8383619c03565b5b949350505050565b600082511115619c165781518083602001fd5b806040517f08c379a0000000000000000000000000000000000000000000000000000000008152600401619c4a9190619fb3565b60405180910390fd5b6040518060400160405280600290602082028036833780820191505090505090565b6040518060400160405280600073ffffffffffffffffffffffffffffffffffffffff16815260200160006bffffffffffffffffffffffff1681525090565b828054619cbf9061ada6565b90600052602060002090601f016020900481019282619ce15760008555619d28565b82601f10619cfa57805160ff1916838001178555619d28565b82800160010185558215619d28579182015b82811115619d27578251825591602001919060010190619d0c565b5b509050619d359190619d5a565b5090565b5080546000825590600052602060002090810190619d579190619d77565b50565b5b80821115619d73576000816000905550600101619d5b565b5090565b5b80821115619dd057600080820160006101000a81549073ffffffffffffffffffffffffffffffffffffffff02191690556000820160146101000a8154906bffffffffffffffffffffffff021916905550600101619d78565b5090565b634e487b7160e01b600052601160045260246000fd5b60008219821115619dfe57619dfd619dd4565b5b828201905092915050565b63ffffffff60e01b81168114619e1e57600080fd5b50565b600060208284031215619e3357600080fd5b8135619e3e81619e09565b8091505092915050565b6000602082019050821515825292915050565b60018060a01b0381168114619e6f57600080fd5b50565b60008083601f840112619e8457600080fd5b8235905067ffffffffffffffff811115619e9d57600080fd5b6020830191508360208260051b8501011115619eb857600080fd5b9250929050565b600080600080600080600060c0888a031215619eda57600080fd5b8735619ee581619e5b565b8097505060208801359550604088013567ffffffffffffffff811115619f0a57600080fd5b619f168a828b01619e72565b91508096505080945050606088013592506080880135915060a0880135905092959891949750929550565b818152600060208201905092915050565b60005b83811015619f70578082015181840152602081019050619f55565b83811115619f7f576000848401525b50505050565b60008151808452619f9d816020860160208601619f52565b6020601f19601f83011685010191505092915050565b602081526000619fc66020830184619f85565b905092915050565b600060208284031215619fe057600080fd5b8135905092915050565b600060208201905060018060a01b038316825292915050565b6000806040838503121561a01657600080fd5b823561a02181619e5b565b80925050602083013590509250929050565b600060208201905082825292915050565b60008060006060848603121561a05957600080fd5b833561a06481619e5b565b80935050602084013561a07681619e5b565b80925050604084013590509250925092565b600060208201905060ff8316825292915050565b6000806040838503121561a0af57600080fd5b82359150602083013590509250929050565b600060408201905060018060a01b03841682528260208301529392505050565b6000806000806060858703121561a0f757600080fd5b843561a10281619e5b565b8094505060208501359250604085013567ffffffffffffffff81111561a12757600080fd5b61a13387828801619e72565b9150809350508091505092959194509250565b60006020828403121561a15857600080fd5b813561a16381619e5b565b8091505092915050565b60006060828403121561a17f57600080fd5b81905092915050565b60006080828403121561a19a57600080fd5b81905092915050565b60008060008060008060008060c0898b03121561a1bf57600080fd5b8835975060208901359650604089013567ffffffffffffffff8082111561a1e557600080fd5b61a1f18c838d01619e72565b92508098505081965060608b013591508082111561a20e57600080fd5b61a21a8c838d01619e72565b92508096505081945060808b013591508082111561a23757600080fd5b61a2438c838d0161a16d565b935060a08b013591508082111561a25957600080fd5b5061a2668b828c0161a188565b9150509295985092959890939650565b60008060008060008060008060008060008060c08d8f03121561a29857600080fd5b67ffffffffffffffff8d35111561a2ae57600080fd5b61a2bb8e8e358f01619e72565b819d50809c50505067ffffffffffffffff60208e0135111561a2dc57600080fd5b61a2ec8e60208f01358f01619e72565b819b50809a50505067ffffffffffffffff60408e0135111561a30d57600080fd5b61a31d8e60408f01358f01619e72565b819950809850505067ffffffffffffffff60608e0135111561a33e57600080fd5b61a34e8e60608f01358f01619e72565b819750809650505067ffffffffffffffff60808e0135111561a36f57600080fd5b61a37f8e60808f01358f01619e72565b819550809450505067ffffffffffffffff60a08e0135111561a3a057600080fd5b61a3b08e60a08f01358f01619e72565b81935080925050509295989b509295989b509295989b565b600060208201905082825292915050565b60008060008060008060a0878903121561a3f257600080fd5b863561a3fd81619e5b565b8096505060208701359450604087013567ffffffffffffffff8082111561a42357600080fd5b61a42f8a838b01619e72565b925080965050819450606089013591508082111561a44c57600080fd5b61a4588a838b0161a16d565b9350608089013591508082111561a46e57600080fd5b5061a47b89828a0161a188565b9150509295509295509295565b60008060008060008060a0878903121561a4a157600080fd5b86359550602087013567ffffffffffffffff81111561a4bf57600080fd5b61a4cb89828a01619e72565b915080965050809450506040870135925060608701359150608087013590509295509295509295565b6000806000806000806000806000806101008b8d03121561a51457600080fd5b8a3561a51f81619e5b565b809a505060208b0135985060408b0135975060608b013567ffffffffffffffff8082111561a54c57600080fd5b61a5588e838f01619e72565b92508099505081975060808d013591508082111561a57557600080fd5b5061a5828d828e01619e72565b9150809650508094505060a08b0135925060c08b0135915060e08b013590509295989b9194979a5092959850565b60008060008060008060008060008060a08b8d03121561a5cf57600080fd5b8a3567ffffffffffffffff8082111561a5e757600080fd5b61a5f38e838f01619e72565b9250809c5050819a5060208d013591508082111561a61057600080fd5b61a61c8e838f01619e72565b9250809a505081985060408d013591508082111561a63957600080fd5b61a6458e838f01619e72565b92508098505081965060608d013591508082111561a66257600080fd5b61a66e8e838f01619e72565b92508096505081945060808d013591508082111561a68b57600080fd5b5061a6988d828e01619e72565b915080935050809150509295989b9194979a5092959850565b60006020820190506bffffffffffffffffffffffff8316825292915050565b60018060a01b0381511682526bffffffffffffffffffffffff60208201511660208301525050565b60006060820161a708838661a6d0565b60406060818501528185518084526080860191506020935083870160005b8281101561a74e5761a73984835161a6d0565b8484019350858201915060018101905061a726565b5050508093505050509392505050565b600060208201905060018060a01b038316825292915050565b801515811461a78557600080fd5b50565b6000806040838503121561a79b57600080fd5b823561a7a681619e5b565b80925050602083013561a7b88161a777565b809150509250929050565b634e487b7160e01b600052604160045260246000fd5b60006040519050610100810181811067ffffffffffffffff8211171561a8025761a80161a7c3565b5b806040525090565b600067ffffffffffffffff8084111561a8265761a82561a7c3565b5b601f1960405181603f83601f890116011681019150808210838311171561a8505761a84f61a7c3565b5b8160405280935085815286868601111561a86957600080fd5b858560208301376000602087830101525050509392505050565b600082601f83011261a89457600080fd5b61a8a38383356020850161a80a565b905092915050565b6000813590506bffffffffffffffffffffffff8116811461a8cb57600080fd5b919050565b6000813590506003811061a8e357600080fd5b919050565b600080600080600060a0868803121561a90057600080fd5b853561a90b81619e5b565b80955050602086013567ffffffffffffffff8082111561a92a57600080fd5b61a93689838a0161a883565b95506040880135915061a94882619e5b565b81945060608801359350608088013591508082111561a96657600080fd5b8188019150610100828a03121561a97c57600080fd5b61a98461a7d9565b82358281111561a99357600080fd5b61a99f8b82860161a883565b82525060208301358281111561a9b457600080fd5b61a9c08b82860161a883565b60208301525060408301358281111561a9d857600080fd5b61a9e48b82860161a883565b604083015250606083013560608201526080830135608082015260a083013560a082015261aa1460c0840161a8ab565b60c082015261aa2560e0840161a8d0565b60e08201528093505050509295509295909350565b60008060008060006060868803121561aa5257600080fd5b85359450602086013567ffffffffffffffff8082111561aa7157600080fd5b61aa7d89838a01619e72565b925080965050819450604088013591508082111561aa9a57600080fd5b5061aaa788828901619e72565b915080935050809150509295509295909350565b60008060006060848603121561aad057600080fd5b833592506020840135915061aae76040850161a8d0565b90509250925092565b6000806000806000806060878903121561ab0957600080fd5b863567ffffffffffffffff8082111561ab2157600080fd5b61ab2d8a838b01619e72565b925080985050819650602089013591508082111561ab4a57600080fd5b61ab568a838b01619e72565b925080965050819450604089013591508082111561ab7357600080fd5b5061ab8089828a01619e72565b915080935050809150509295509295509295565b6000806000806080858703121561abaa57600080fd5b843561abb581619e5b565b80945050602085013561abc781619e5b565b8093505060408501359150606085013567ffffffffffffffff81111561abec57600080fd5b808601905086601f82011261ac0057600080fd5b61ac0f8782356020840161a80a565b91505092959194509250565b6000806040838503121561ac2e57600080fd5b823561ac3981619e5b565b80925050602083013561ac4b81619e5b565b809150509250929050565b634e487b7160e01b600052602160045260246000fd5b60006020820190506003831061ac9257634e487b7160e01b600052602160045260246000fd5b82825292915050565b634e487b7160e01b600052603260045260246000fd5b600081600019048311821515161561accc5761accb619dd4565b5b828202905092915050565b634e487b7160e01b600052601260045260246000fd5b60008261ad0a57634e487b7160e01b600052601260045260246000fd5b828204905092915050565b60008282101561ad285761ad27619dd4565b5b828203905092915050565b60208152601460208201527f546f6b656e20616c7265616479206d696e74656400000000000000000000000060408201526000606082019050919050565b600060a08201905060018060a01b03871682528560208301528460408301528360608301528260808301529695505050505050565b60008160011c9050600182168061adbe57607f821691505b60208210810361adde57634e487b7160e01b600052602260045260246000fd5b50919050565b60208152602160208201527f4552433732313a20617070726f76616c20746f2063757272656e74206f776e6560408201527f720000000000000000000000000000000000000000000000000000000000000060608201526000608082019050919050565b60208152603d60208201527f4552433732313a20617070726f76652063616c6c6572206973206e6f7420746f60408201527f6b656e206f776e6572206f7220617070726f76656420666f7220616c6c00000060608201526000608082019050919050565b60208152602d60208201527f4552433732313a2063616c6c6572206973206e6f7420746f6b656e206f776e6560408201527f72206f7220617070726f7665640000000000000000000000000000000000000060608201526000608082019050919050565b60208152602b60208201527f455243373231456e756d657261626c653a206f776e657220696e646578206f7560408201527f74206f6620626f756e647300000000000000000000000000000000000000000060608201526000608082019050919050565b60208152601f60208201527f436f6c6c656374696f6e3a20455448206973206e6f742072657175697265640060408201526000606082019050919050565b60208152602360208201527f436f6c6c656374696f6e3a20496e636f727265637420617272617973206c656e60408201527f677468000000000000000000000000000000000000000000000000000000000060608201526000608082019050919050565b6000808335601e1984360301811261b02d57600080fd5b80840190508035915067ffffffffffffffff82111561b04b57600080fd5b602081019250508060051b360382131561b06457600080fd5b9250929050565b60008235605e1983360301811261b08157600080fd5b80830191505092915050565b60008235607e1983360301811261b0a357600080fd5b80830191505092915050565b60208152601d60208201527f436f6c6c656374696f6e3a204e6f2072696768747320746f206d696e7400000060408201526000606082019050919050565b60208152602c60208201527f455243373231456e756d657261626c653a20676c6f62616c20696e646578206f60408201527f7574206f6620626f756e6473000000000000000000000000000000000000000060608201526000608082019050919050565b60208152601f60208201527f436f6c6c656374696f6e3a204e6f7468696e6720746f2077697468647261770060408201526000606082019050919050565b60006020828403121561b1a157600080fd5b8151905092915050565b60006020828403121561b1bd57600080fd5b815161b1c88161a777565b8091505092915050565b60208152601860208201527f4552433732313a20696e76616c696420746f6b656e204944000000000000000060408201526000606082019050919050565b60208152602960208201527f4552433732313a2061646472657373207a65726f206973206e6f74206120766160408201527f6c6964206f776e6572000000000000000000000000000000000000000000000060608201526000608082019050919050565b60208152601f60208201527f436f6c6c656374696f6e3a20496e697469616c697a6174696f6e206f6e6c790060408201526000606082019050919050565b60208152602360208201527f436f6c6c656374696f6e3a204561726e696e6773206c696d697420657863656560408201527f646564000000000000000000000000000000000000000000000000000000000060608201526000608082019050919050565b806000525060006020600020905090565b600081546000600182811c91508083168061b34357607f831692505b6020808410820361b36457634e487b7160e01b600052602260045260246000fd5b61b36e8489619f41565b826000811461b384576001811461b3955761b3c6565b60ff1987168252828201975061b3c6565b61b39e8961b316565b60005b8781101561b3be578154818501528682019150848101905061b3a1565b808401995050505b5050505050505092915050565b60808152600061b3e6608083018761b327565b905060018060a01b03808616602084015260ff8516604084015280841660608401525095945050505050565b60208152601560208201527f436f6c6c656374696f6e3a204e6f20616363657373000000000000000000000060408201526000606082019050919050565b60208152601b60208201527f436f6c6c656374696f6e3a20546f6b656e206e6f74206578697374000000000060408201526000606082019050919050565b60208152601860208201527f436f6c6c656374696f6e3a205a65726f2061646472657373000000000000000060408201526000606082019050919050565b60006020828403121561b4de57600080fd5b61b4e78261a8ab565b905092915050565b60006bffffffffffffffffffffffff80831681851680830382111561b5175761b516619dd4565b5b808201935050505092915050565b60208152601d60208201527f436f6c6c656374696f6e3a204561726e696e677320657863656564656400000060408201526000606082019050919050565b8183526000602080850194508260005b8581101561b5a757813561b58681619e5b565b60018060a01b0381168852508287019650828201915060018101905061b573565b5050508390509392505050565b8183526000602080850194508260005b8581101561b5fa576bffffffffffffffffffffffff61b5e28361a8ab565b1687528287019650828201915060018101905061b5c4565b5050508390509392505050565b60408152600061b61b60408301868861b563565b828103602084015261b62e81858761b5b4565b91505095945050505050565b6000835161b64c818460208801619f52565b8083019050835161b661818360208801619f52565b8082019150507f2e6a736f6e0000000000000000000000000000000000000000000000000000008152600581019150509392505050565b60208152603e60208201527f436f6c6c656374696f6e3a204e6f7420706f737369626c65207768656e20636f60408201527f6c6c656374696f6e20697320706c6174666f726d206465636f75706c6564000060608201526000608082019050919050565b60608152600061b70f606083018661b327565b905060ff8416602083015260018060a01b0383166040830152949350505050565b60208152602f60208201527f436f6c6c656374696f6e3a20546865206e6577206f776e6572206d757374206260408201527f652061206272616e642061646d696e000000000000000000000000000000000060608201526000608082019050919050565b600060608201905060018060a01b0385168252836020830152826040830152949350505050565b60208152601f60208201527f5265656e7472616e637947756172643a207265656e7472616e742063616c6c0060408201526000606082019050919050565b60208152601d60208201527f416464726573733a20696e73756666696369656e742062616c616e636500000060408201526000606082019050919050565b6000819050919050565b60208152603a60208201527f416464726573733a20756e61626c6520746f2073656e642076616c75652c207260408201527f6563697069656e74206d6179206861766520726576657274656400000000000060608201526000608082019050919050565b60208152602560208201527f4552433732313a207472616e736665722066726f6d20696e636f72726563742060408201527f6f776e657200000000000000000000000000000000000000000000000000000060608201526000608082019050919050565b60208152602460208201527f4552433732313a207472616e7366657220746f20746865207a65726f2061646460408201527f726573730000000000000000000000000000000000000000000000000000000060608201526000608082019050919050565b60208152602460208201527f4d65726b6c65547265653a20416374696f6e20616c726561647920706572666f60408201527f726d65640000000000000000000000000000000000000000000000000000000060608201526000608082019050919050565b60208152602560208201527f436f6c6c656374696f6e3a205075626c6963206d696e74206c696d697420726560408201527f616368656400000000000000000000000000000000000000000000000000000060608201526000608082019050919050565b60008019820361ba485761ba47619dd4565b5b600182019050919050565b6000808335601e1984360301811261ba6a57600080fd5b80840190508035915067ffffffffffffffff82111561ba8857600080fd5b602081019250508060051b360382131561baa157600080fd5b9250929050565b6000808335601e1984360301811261babf57600080fd5b80840190508035915067ffffffffffffffff82111561badd57600080fd5b602081019250508060051b360382131561baf657600080fd5b9250929050565b60608152600061bb1160608301878961b563565b828103602084015261bb2481868861b5b4565b9150506bffffffffffffffffffffffff831660408301529695505050505050565b60208152601d60208201527f436f6c6c656374696f6e3a204d696e742064697361626c6564206e6f7700000060408201526000606082019050919050565b602081526020808201527f436f6c6c656374696f6e3a20546f6b656e20616c7265616479206d696e74656460408201526000606082019050919050565b6bffffffffffffffffffffffff8616815260606020820152600061bbe860608301868861b563565b828103604084015261bbfb81858761b5b4565b9150509695505050505050565b60208152601a60208201527f436f6c6c656374696f6e3a204e6f7420656e6f7567682045544800000000000060408201526000606082019050919050565b60208152602e60208201527f436f6c6c656374696f6e3a20496e636f7272656374207061796d656e7420726560408201527f636569766572732073686172657300000000000000000000000000000000000060608201526000608082019050919050565b85815260606020820152600061bcc460608301868861b563565b828103604084015261bcd781858761b5b4565b9150509695505050505050565b602081526020808201527f4f776e61626c653a2063616c6c6572206973206e6f7420746865206f776e657260408201526000606082019050919050565b60208152601960208201527f4552433732313a20617070726f766520746f2063616c6c65720000000000000060408201526000606082019050919050565b60208152602a60208201527f455243323938313a20726f79616c7479206665652077696c6c2065786365656460408201527f2073616c6550726963650000000000000000000000000000000000000000000060608201526000608082019050919050565b60208152601960208201527f455243323938313a20696e76616c69642072656365697665720000000000000060408201526000606082019050919050565b60208152603260208201527f4552433732313a207472616e7366657220746f206e6f6e20455243373231526560408201527f63656976657220696d706c656d656e746572000000000000000000000000000060608201526000608082019050919050565b60208152602660208201527f4f776e61626c653a206e6577206f776e657220697320746865207a65726f206160408201527f646472657373000000000000000000000000000000000000000000000000000060608201526000608082019050919050565b60208152602160208201527f436f6c6c656374696f6e3a20537570706c79206c696d6974206578636565646560408201527f640000000000000000000000000000000000000000000000000000000000000060608201526000608082019050919050565b602081526020808201527f4552433732313a206d696e7420746f20746865207a65726f206164647265737360408201526000606082019050919050565b60208152601c60208201527f4552433732313a20746f6b656e20616c7265616479206d696e7465640000000060408201526000606082019050919050565b600060608201905060018060a01b038086168352808516602084015250826040830152949350505050565b600060018060a01b0380871683528086166020840152508360408301526080606083015261c0046080830184619f85565b905095945050505050565b60006020828403121561c02157600080fd5b815161c02c81619e09565b8091505092915050565b60208152603560208201527f455243373231456e756d657261626c653a20636f6e736563757469766520747260408201527f616e7366657273206e6f7420737570706f72746564000000000000000000000060608201526000608082019050919050565b60208152602a60208201527f5361666545524332303a204552433230206f7065726174696f6e20646964206e60408201527f6f7420737563636565640000000000000000000000000000000000000000000060608201526000608082019050919050565b634e487b7160e01b600052603160045260246000fd5b60208152602660208201527f416464726573733a20696e73756666696369656e742062616c616e636520666f60408201527f722063616c6c000000000000000000000000000000000000000000000000000060608201526000608082019050919050565b6000825161c18a818460208701619f52565b80830191505092915050565b60208152601d60208201527f416464726573733a2063616c6c20746f206e6f6e2d636f6e74726163740000006040820152600060608201905091905056fe436f6c6c656374696f6e3a20496e636f727265637420617272617973206c656e677468a26469706673582212204d1c914101c65f11ea291c72f7a25e120e93495e4cbebf186631903981e5d06864736f6c634300080d0033",
  "linkReferences": {},
  "deployedLinkReferences": {}
}