{
  "_format": "hh-sol-artifact-1",
  "contractName": "Payments",
  "sourceName": "contracts/develompent/finance/Payments.sol",
  "abi": [
    {
      "inputs": [
        {
          "internalType": "contract ITreasury",
          "name": "_treasury",
          "type": "address"
        },
        {
          "internalType": "contract IMasterStation",
          "name": "_masterStation",
          "type": "address"
        }
      ],
      "stateMutability": "nonpayable",
      "type": "constructor"
    },
    {
      "anonymous": false,
      "inputs": [
        {
          "components": [
            {
              "internalType": "address",
              "name": "receiver",
              "type": "address"
            },
            {
              "internalType": "address",
              "name": "paymentToken",
              "type": "address"
            },
            {
              "internalType": "uint256",
              "name": "paymentAmount",
              "type": "uint256"
            },
            {
              "internalType": "uint256",
              "name": "amountOfCBCOINToPurchase",
              "type": "uint256"
            },
            {
              "internalType": "uint256",
              "name": "deadline",
              "type": "uint256"
            },
            {
              "internalType": "uint256",
              "name": "salt",
              "type": "uint256"
            }
          ],
          "indexed": false,
          "internalType": "struct IValidator.BuyTokensData",
          "name": "data",
          "type": "tuple"
        },
        {
          "indexed": false,
          "internalType": "uint256",
          "name": "verifications",
          "type": "uint256"
        }
      ],
      "name": "BuyTokensValidated",
      "type": "event"
    },
    {
      "anonymous": false,
      "inputs": [
        {
          "components": [
            {
              "internalType": "string",
              "name": "brandName",
              "type": "string"
            },
            {
              "internalType": "address",
              "name": "creator",
              "type": "address"
            },
            {
              "internalType": "uint256",
              "name": "supplyLimit",
              "type": "uint256"
            },
            {
              "internalType": "uint256",
              "name": "paymentAmount",
              "type": "uint256"
            },
            {
              "internalType": "uint256",
              "name": "deadline",
              "type": "uint256"
            },
            {
              "internalType": "uint256",
              "name": "salt",
              "type": "uint256"
            }
          ],
          "indexed": false,
          "internalType": "struct IValidator.CreateCollectionData",
          "name": "data",
          "type": "tuple"
        },
        {
          "indexed": false,
          "internalType": "uint256",
          "name": "verifications",
          "type": "uint256"
        }
      ],
      "name": "CreateCollectionValidated",
      "type": "event"
    },
    {
      "anonymous": false,
      "inputs": [
        {
          "indexed": true,
          "internalType": "address",
          "name": "receiver",
          "type": "address"
        },
        {
          "indexed": true,
          "internalType": "address",
          "name": "sender",
          "type": "address"
        },
        {
          "indexed": false,
          "internalType": "uint256",
          "name": "amount",
          "type": "uint256"
        }
      ],
      "name": "ETHWithdrawn",
      "type": "event"
    },
    {
      "anonymous": false,
      "inputs": [
        {
          "indexed": true,
          "internalType": "address",
          "name": "account",
          "type": "address"
        },
        {
          "indexed": true,
          "internalType": "uint256",
          "name": "paymentAmount",
          "type": "uint256"
        },
        {
          "indexed": true,
          "internalType": "uint256",
          "name": "supplyLimiy",
          "type": "uint256"
        }
      ],
      "name": "PayedForTheCreationOfACollection",
      "type": "event"
    },
    {
      "anonymous": false,
      "inputs": [
        {
          "indexed": true,
          "internalType": "address",
          "name": "receiver",
          "type": "address"
        },
        {
          "indexed": false,
          "internalType": "uint256",
          "name": "paymentAmount",
          "type": "uint256"
        },
        {
          "indexed": false,
          "internalType": "uint256",
          "name": "purchasedCBCOINAmount",
          "type": "uint256"
        }
      ],
      "name": "PurchasedCBCOINWithETH",
      "type": "event"
    },
    {
      "anonymous": false,
      "inputs": [
        {
          "indexed": true,
          "internalType": "address",
          "name": "paymentToken",
          "type": "address"
        },
        {
          "indexed": true,
          "internalType": "address",
          "name": "receiver",
          "type": "address"
        },
        {
          "indexed": false,
          "internalType": "uint256",
          "name": "paymentAmount",
          "type": "uint256"
        },
        {
          "indexed": false,
          "internalType": "uint256",
          "name": "purchasedCBCOINAmount",
          "type": "uint256"
        }
      ],
      "name": "PurchasedCBCOINWithToken",
      "type": "event"
    },
    {
      "anonymous": false,
      "inputs": [
        {
          "indexed": false,
          "internalType": "uint256",
          "name": "count",
          "type": "uint256"
        }
      ],
      "name": "SettedMinVerificationsCount",
      "type": "event"
    },
    {
      "anonymous": false,
      "inputs": [
        {
          "indexed": true,
          "internalType": "address",
          "name": "token",
          "type": "address"
        },
        {
          "indexed": true,
          "internalType": "address",
          "name": "receiver",
          "type": "address"
        },
        {
          "indexed": true,
          "internalType": "address",
          "name": "sender",
          "type": "address"
        },
        {
          "indexed": false,
          "internalType": "uint256",
          "name": "amount",
          "type": "uint256"
        }
      ],
      "name": "TokenWithdrawn",
      "type": "event"
    },
    {
      "anonymous": false,
      "inputs": [
        {
          "indexed": false,
          "internalType": "bytes32",
          "name": "hashData",
          "type": "bytes32"
        },
        {
          "indexed": false,
          "internalType": "address",
          "name": "validator",
          "type": "address"
        }
      ],
      "name": "ValidatedFrom",
      "type": "event"
    },
    {
      "inputs": [],
      "name": "BUY_TOKENS_TYPE_HASH",
      "outputs": [
        {
          "internalType": "bytes32",
          "name": "",
          "type": "bytes32"
        }
      ],
      "stateMutability": "view",
      "type": "function"
    },
    {
      "inputs": [],
      "name": "CACHED_DOMAIN_SEPARATOR",
      "outputs": [
        {
          "internalType": "bytes32",
          "name": "",
          "type": "bytes32"
        }
      ],
      "stateMutability": "view",
      "type": "function"
    },
    {
      "inputs": [],
      "name": "CBCOINTreasury",
      "outputs": [
        {
          "internalType": "contract ITreasury",
          "name": "",
          "type": "address"
        }
      ],
      "stateMutability": "view",
      "type": "function"
    },
    {
      "inputs": [],
      "name": "CHIEF_ADMIN_ROLE",
      "outputs": [
        {
          "internalType": "uint8",
          "name": "",
          "type": "uint8"
        }
      ],
      "stateMutability": "view",
      "type": "function"
    },
    {
      "inputs": [],
      "name": "CREATE_TOLLECTION_TYPE_HASH",
      "outputs": [
        {
          "internalType": "bytes32",
          "name": "",
          "type": "bytes32"
        }
      ],
      "stateMutability": "view",
      "type": "function"
    },
    {
      "inputs": [],
      "name": "DEFAULT_ADMIN_ROLE",
      "outputs": [
        {
          "internalType": "uint8",
          "name": "",
          "type": "uint8"
        }
      ],
      "stateMutability": "view",
      "type": "function"
    },
    {
      "inputs": [],
      "name": "DOMAIN_TYPE_HASH",
      "outputs": [
        {
          "internalType": "bytes32",
          "name": "",
          "type": "bytes32"
        }
      ],
      "stateMutability": "view",
      "type": "function"
    },
    {
      "inputs": [],
      "name": "PLATFORM_ADMIN_ROLE",
      "outputs": [
        {
          "internalType": "uint8",
          "name": "",
          "type": "uint8"
        }
      ],
      "stateMutability": "view",
      "type": "function"
    },
    {
      "inputs": [
        {
          "components": [
            {
              "internalType": "address",
              "name": "receiver",
              "type": "address"
            },
            {
              "internalType": "address",
              "name": "paymentToken",
              "type": "address"
            },
            {
              "internalType": "uint256",
              "name": "paymentAmount",
              "type": "uint256"
            },
            {
              "internalType": "uint256",
              "name": "amountOfCBCOINToPurchase",
              "type": "uint256"
            },
            {
              "internalType": "uint256",
              "name": "deadline",
              "type": "uint256"
            },
            {
              "internalType": "uint256",
              "name": "salt",
              "type": "uint256"
            }
          ],
          "internalType": "struct IValidator.BuyTokensData",
          "name": "_data",
          "type": "tuple"
        }
      ],
      "name": "getBuyTokensHash",
      "outputs": [
        {
          "internalType": "bytes32",
          "name": "",
          "type": "bytes32"
        }
      ],
      "stateMutability": "view",
      "type": "function"
    },
    {
      "inputs": [
        {
          "components": [
            {
              "internalType": "string",
              "name": "brandName",
              "type": "string"
            },
            {
              "internalType": "address",
              "name": "creator",
              "type": "address"
            },
            {
              "internalType": "uint256",
              "name": "supplyLimit",
              "type": "uint256"
            },
            {
              "internalType": "uint256",
              "name": "paymentAmount",
              "type": "uint256"
            },
            {
              "internalType": "uint256",
              "name": "deadline",
              "type": "uint256"
            },
            {
              "internalType": "uint256",
              "name": "salt",
              "type": "uint256"
            }
          ],
          "internalType": "struct IValidator.CreateCollectionData",
          "name": "_data",
          "type": "tuple"
        }
      ],
      "name": "getCreateCollectionHash",
      "outputs": [
        {
          "internalType": "bytes32",
          "name": "",
          "type": "bytes32"
        }
      ],
      "stateMutability": "view",
      "type": "function"
    },
    {
      "inputs": [],
      "name": "listValidators",
      "outputs": [
        {
          "internalType": "address[]",
          "name": "",
          "type": "address[]"
        }
      ],
      "stateMutability": "view",
      "type": "function"
    },
    {
      "inputs": [],
      "name": "masterStation",
      "outputs": [
        {
          "internalType": "contract IMasterStation",
          "name": "",
          "type": "address"
        }
      ],
      "stateMutability": "view",
      "type": "function"
    },
    {
      "inputs": [],
      "name": "minVerificationsCount",
      "outputs": [
        {
          "internalType": "uint256",
          "name": "",
          "type": "uint256"
        }
      ],
      "stateMutability": "view",
      "type": "function"
    },
    {
      "inputs": [],
      "name": "nonce",
      "outputs": [
        {
          "internalType": "uint256",
          "name": "",
          "type": "uint256"
        }
      ],
      "stateMutability": "view",
      "type": "function"
    },
    {
      "inputs": [
        {
          "components": [
            {
              "internalType": "string",
              "name": "brandName",
              "type": "string"
            },
            {
              "internalType": "address",
              "name": "creator",
              "type": "address"
            },
            {
              "internalType": "uint256",
              "name": "supplyLimit",
              "type": "uint256"
            },
            {
              "internalType": "uint256",
              "name": "paymentAmount",
              "type": "uint256"
            },
            {
              "internalType": "uint256",
              "name": "deadline",
              "type": "uint256"
            },
            {
              "internalType": "uint256",
              "name": "salt",
              "type": "uint256"
            }
          ],
          "internalType": "struct IValidator.CreateCollectionData",
          "name": "_data",
          "type": "tuple"
        },
        {
          "components": [
            {
              "internalType": "uint8",
              "name": "v",
              "type": "uint8"
            },
            {
              "internalType": "bytes32",
              "name": "r",
              "type": "bytes32"
            },
            {
              "internalType": "bytes32",
              "name": "s",
              "type": "bytes32"
            }
          ],
          "internalType": "struct IValidator.Signature[]",
          "name": "_signature",
          "type": "tuple[]"
        }
      ],
      "name": "paymentForTheCreationOfACollection",
      "outputs": [
        {
          "internalType": "bool",
          "name": "",
          "type": "bool"
        }
      ],
      "stateMutability": "nonpayable",
      "type": "function"
    },
    {
      "inputs": [
        {
          "components": [
            {
              "internalType": "address",
              "name": "receiver",
              "type": "address"
            },
            {
              "internalType": "address",
              "name": "paymentToken",
              "type": "address"
            },
            {
              "internalType": "uint256",
              "name": "paymentAmount",
              "type": "uint256"
            },
            {
              "internalType": "uint256",
              "name": "amountOfCBCOINToPurchase",
              "type": "uint256"
            },
            {
              "internalType": "uint256",
              "name": "deadline",
              "type": "uint256"
            },
            {
              "internalType": "uint256",
              "name": "salt",
              "type": "uint256"
            }
          ],
          "internalType": "struct IValidator.BuyTokensData",
          "name": "_data",
          "type": "tuple"
        },
        {
          "components": [
            {
              "internalType": "uint8",
              "name": "v",
              "type": "uint8"
            },
            {
              "internalType": "bytes32",
              "name": "r",
              "type": "bytes32"
            },
            {
              "internalType": "bytes32",
              "name": "s",
              "type": "bytes32"
            }
          ],
          "internalType": "struct IValidator.Signature[]",
          "name": "_signature",
          "type": "tuple[]"
        }
      ],
      "name": "purchaseCBCOINWithETH",
      "outputs": [
        {
          "internalType": "uint256",
          "name": "residue",
          "type": "uint256"
        }
      ],
      "stateMutability": "payable",
      "type": "function"
    },
    {
      "inputs": [
        {
          "components": [
            {
              "internalType": "address",
              "name": "receiver",
              "type": "address"
            },
            {
              "internalType": "address",
              "name": "paymentToken",
              "type": "address"
            },
            {
              "internalType": "uint256",
              "name": "paymentAmount",
              "type": "uint256"
            },
            {
              "internalType": "uint256",
              "name": "amountOfCBCOINToPurchase",
              "type": "uint256"
            },
            {
              "internalType": "uint256",
              "name": "deadline",
              "type": "uint256"
            },
            {
              "internalType": "uint256",
              "name": "salt",
              "type": "uint256"
            }
          ],
          "internalType": "struct IValidator.BuyTokensData",
          "name": "_data",
          "type": "tuple"
        },
        {
          "components": [
            {
              "internalType": "uint8",
              "name": "v",
              "type": "uint8"
            },
            {
              "internalType": "bytes32",
              "name": "r",
              "type": "bytes32"
            },
            {
              "internalType": "bytes32",
              "name": "s",
              "type": "bytes32"
            }
          ],
          "internalType": "struct IValidator.Signature[]",
          "name": "_signature",
          "type": "tuple[]"
        }
      ],
      "name": "purchaseCBCOINWithToken",
      "outputs": [],
      "stateMutability": "nonpayable",
      "type": "function"
    },
    {
      "inputs": [
        {
          "internalType": "uint256",
          "name": "_minVerificationsCount",
          "type": "uint256"
        }
      ],
      "name": "setMinVerificationsCount",
      "outputs": [],
      "stateMutability": "nonpayable",
      "type": "function"
    },
    {
      "inputs": [
        {
          "internalType": "bytes32",
          "name": "",
          "type": "bytes32"
        }
      ],
      "name": "validated",
      "outputs": [
        {
          "internalType": "bool",
          "name": "",
          "type": "bool"
        }
      ],
      "stateMutability": "view",
      "type": "function"
    },
    {
      "inputs": [
        {
          "internalType": "address",
          "name": "_tokenToWithdraw",
          "type": "address"
        },
        {
          "internalType": "address",
          "name": "_receiver",
          "type": "address"
        }
      ],
      "name": "withdrawFunds",
      "outputs": [],
      "stateMutability": "nonpayable",
      "type": "function"
    }
  ],
  "bytecode": "0x60e06040523480156200001157600080fd5b50604051620045ca380380620045ca833981810160405281019062000037919062000232565b62000053674222322ac958984b60c01b6200016d60201b60201c565b6200006f67c557b76abc55ff9d60c01b6200016d60201b60201c565b6200007f6200017060201b60201c565b60808181525050620000a2674ac1edbeaf83ced960c01b6200016d60201b60201c565b60018081905550620000c5670b38857072a37f6760c01b6200021760201b60201c565b620000e167a32a8cea8b68709560c01b6200021760201b60201c565b8173ffffffffffffffffffffffffffffffffffffffff1660c08173ffffffffffffffffffffffffffffffffffffffff1681525050620001316719267d8be4b9025760c01b6200021760201b60201c565b8073ffffffffffffffffffffffffffffffffffffffff1660a08173ffffffffffffffffffffffffffffffffffffffff1681525050505062000299565b50565b60006200018e67087c36401c321cf460c01b6200016d60201b60201c565b620001aa6719dbdb11d6b472e660c01b6200016d60201b60201c565b620001c667f30da08ecb6061f560c01b6200016d60201b60201c565b7efaf61068b5eb771d64783aba7a98ffebebf083ab00440364df46d0f1e01b364630604051602001620001fc9392919062000272565b60405160208183030381529060405280519060200120905090565b50565b60018060a01b03811681146200022f57600080fd5b50565b600080604083850312156200024657600080fd5b825162000253816200021a565b80925050602083015162000267816200021a565b809150509250929050565b600060608201905084825283602083015260018060a01b0383166040830152949350505050565b60805160a05160c0516142bb6200030f60003960008181610e0e01528181611124015281816113f90152611b14015260008181610504015281816109b901528181611003015281816111c4015281816116d40152612b5c01526000818161094c0152818161106501526115de01526142bb6000f3fe60806040526004361061011e5760003560e01c8063a217fddf116100a0578063c0993eea11610064578063c0993eea146103e1578063d2a4a2a91461040c578063e08e88ad14610437578063ec1b1eb414610474578063eebf1bf71461049d5761011e565b8063a217fddf146102f8578063ae098d1714610323578063affed0e01461034e578063b611ddcf14610379578063bf08b555146103a45761011e565b8063685d34ff116100e7578063685d34ff1461020a57806368d4e5441461023557806387d3d5c61461026057806388aa07c2146102905780639c36109f146102bb5761011e565b80620fa9fb1461012357806307b1d0e41461014c5780630fedf5ff146101775780631c2e4be8146101b4578063563d0911146101df575b600080fd5b34801561012f57600080fd5b5061014a60048036038101906101459190613088565b6104c6565b005b34801561015857600080fd5b50610161610925565b60405161016e91906130c3565b60405180910390f35b34801561018357600080fd5b5061019e600480360381019061019991906130d7565b61092a565b6040516101ab91906130f3565b60405180910390f35b3480156101c057600080fd5b506101c961094a565b6040516101d69190613106565b60405180910390f35b3480156101eb57600080fd5b506101f461096e565b6040516102019190613117565b60405180910390f35b34801561021657600080fd5b5061021f610974565b60405161022c91906130c3565b60405180910390f35b34801561024157600080fd5b5061024a610979565b6040516102579190613128565b60405180910390f35b61027a60048036038101906102759190613378565b610a50565b6040516102879190613117565b60405180910390f35b34801561029c57600080fd5b506102a5611001565b6040516102b291906133c7565b60405180910390f35b3480156102c757600080fd5b506102e260048036038101906102dd91906134b9565b611025565b6040516102ef9190613106565b60405180910390f35b34801561030457600080fd5b5061030d61111d565b60405161031a91906130c3565b60405180910390f35b34801561032f57600080fd5b50610338611122565b60405161034591906134f7565b60405180910390f35b34801561035a57600080fd5b50610363611146565b6040516103709190613117565b60405180910390f35b34801561038557600080fd5b5061038e61114c565b60405161039b9190613106565b60405180910390f35b3480156103b057600080fd5b506103cb60048036038101906103c69190613510565b611170565b6040516103d891906130f3565b60405180910390f35b3480156103ed57600080fd5b506103f6611557565b6040516104039190613106565b60405180910390f35b34801561041857600080fd5b5061042161157a565b60405161042e9190613106565b60405180910390f35b34801561044357600080fd5b5061045e60048036038101906104599190613574565b61159e565b60405161046b9190613106565b60405180910390f35b34801561048057600080fd5b5061049b60048036038101906104969190613598565b611696565b005b3480156104a957600080fd5b506104c460048036038101906104bf9190613378565b611792565b005b6104da67b644a1c07cd4c9b360c01b611c4a565b6104ee679351dd8271400d4e60c01b611c4a565b61050267940780fb3b458ed960c01b611c4a565b7f000000000000000000000000000000000000000000000000000000000000000073ffffffffffffffffffffffffffffffffffffffff16637317576560ff336040518363ffffffff1660e01b815260040161055e9291906135b4565b60006040518083038186803b15801561057657600080fd5b505afa15801561058a573d6000803e3d6000fd5b505050506105a267676025b03c75986d60c01b611c4a565b6105b667016ca2f924acff6660c01b611c4a565b600073ffffffffffffffffffffffffffffffffffffffff168273ffffffffffffffffffffffffffffffffffffffff16146107a1576105fe6727124d982d61ee3d60c01b611c4a565b6106126762c3cdf499a7e46560c01b611c4a565b6106266757b1e3a3414927f960c01b611c4a565b60008273ffffffffffffffffffffffffffffffffffffffff166370a08231306040518263ffffffff1660e01b815260040161066191906135d7565b602060405180830381865afa15801561067e573d6000803e3d6000fd5b505050506040513d601f19601f820116820180604052508101906106a291906135f0565b90506106b8670b0237f98b9f8c9c60c01b611c4a565b6106cc67aa395cb08229765460c01b611c4a565b6106f782828573ffffffffffffffffffffffffffffffffffffffff16611c4d9092919063ffffffff16565b61070b67598d27858a87771660c01b611c4a565b61071f6737de5d593769647360c01b611c4a565b3373ffffffffffffffffffffffffffffffffffffffff168273ffffffffffffffffffffffffffffffffffffffff168473ffffffffffffffffffffffffffffffffffffffff167ff398d9df386b57ebd82915250392590009e26ddacbed7a8c50a6016cc83d785c846040516107939190613117565b60405180910390a4506107b6565b6107b567efaf44258d275a4160c01b611c4a565b5b6107ca6737b67390a8e5689f60c01b611c4a565b6107de673cd9d5d91929e06260c01b611c4a565b60004790506107f76793f54f01370f404460c01b611c4a565b61080b671dbfe0b103fa885a60c01b611c4a565b600081111561090b5761082867177ce80bfd5693d560c01b611c4a565b61083c6796a4347f30245a3160c01b611c4a565b610850677af66bf89b11322b60c01b611c4a565b610879818373ffffffffffffffffffffffffffffffffffffffff16611cd390919063ffffffff16565b61088d676ed615411594835b60c01b611c4a565b6108a167dca12697cc8b46a360c01b611c4a565b3373ffffffffffffffffffffffffffffffffffffffff168273ffffffffffffffffffffffffffffffffffffffff167fc81b1761d304f16ef2aeae3a8611d9bd1d618adfff67d5157365cfb125139532836040516108fe9190613117565b60405180910390a3610920565b61091f67ac8b7e3949069bfb60c01b611c4a565b5b505050565b60e081565b60006020528060005260406000206000915054906101000a900460ff1681565b7f000000000000000000000000000000000000000000000000000000000000000081565b60015481565b60c081565b606061098f673c4f86ee7236d54e60c01b611c4a565b6109a367caa3cebf3b9eec5b60c01b611c4a565b6109b767d48426d533a5537760c01b611c4a565b7f000000000000000000000000000000000000000000000000000000000000000073ffffffffffffffffffffffffffffffffffffffff166368d4e5446040518163ffffffff1660e01b8152600401600060405180830381865afa158015610a22573d6000803e3d6000fd5b505050506040513d6000823e3d601f19601f82011682018060405250810190610a4b919061360c565b905090565b6000610a6667dd623fbadd5bd5e060c01b611c4a565b610a7a6772d465afb82425a160c01b611c4a565b610a8e679cb2884ff678738560c01b611c4a565b610aa267dc9b06efde74531760c01b611c4a565b600073ffffffffffffffffffffffffffffffffffffffff16836000015173ffffffffffffffffffffffffffffffffffffffff1603610b15576040517f08c379a0000000000000000000000000000000000000000000000000000000008152600401610b0c906136b7565b60405180910390fd5b610b29678a234a6b0b16f10d60c01b611c4a565b610b3d673150aa582b9351c160c01b611c4a565b610b5167235d4977cc80724860c01b611c4a565b610b65677d379a324d0ae9ad60c01b611c4a565b600073ffffffffffffffffffffffffffffffffffffffff16836020015173ffffffffffffffffffffffffffffffffffffffff1614610bd8576040517f08c379a0000000000000000000000000000000000000000000000000000000008152600401610bcf9061371b565b60405180910390fd5b610bec67e7177f565b3c28ce60c01b611c4a565b610c0067b1c3b768f1c9408160c01b611c4a565b610c146765d432a008f8994e60c01b611c4a565b610c28671eab5c5f744167b260c01b611c4a565b6000836040015111610c6f576040517f08c379a0000000000000000000000000000000000000000000000000000000008152600401610c669061377f565b60405180910390fd5b610c836705fa706e3979b46a60c01b611c4a565b610c9767d3233846c8627fb660c01b611c4a565b610cab6709da4aafeb3363be60c01b611c4a565b610cbf67c3ad1d5cfc6c5b2860c01b611c4a565b6000836060015111610d06576040517f08c379a0000000000000000000000000000000000000000000000000000000008152600401610cfd906137bd565b60405180910390fd5b610d1a67c6155d0fe390c06660c01b611c4a565b610d2e670b54792c4c71448360c01b611c4a565b610d4267fe8d023f6f90f27e60c01b611c4a565b610d5667aa36f77b7c0a4d0460c01b611c4a565b8260400151341015610d9d576040517f08c379a0000000000000000000000000000000000000000000000000000000008152600401610d9490613821565b60405180910390fd5b610db1674fd47332faf3cd1f60c01b611c4a565b610dc56703ffb3f0340ef49e60c01b611c4a565b610dd967d0ed504e260d86bb60c01b611c4a565b610de38383611dc7565b50610df86725c7f5d1535333bd60c01b611c4a565b610e0c672d3b4b61354c48ba60c01b611c4a565b7f000000000000000000000000000000000000000000000000000000000000000073ffffffffffffffffffffffffffffffffffffffff1663f3fef3a3846000015185606001516040518363ffffffff1660e01b8152600401610e6f92919061385f565b600060405180830381600087803b158015610e8957600080fd5b505af1158015610e9d573d6000803e3d6000fd5b50505050610eb567f92922583ac8dce860c01b611c4a565b826040015134610ec59190613895565b9050610edb67a14fcd84a169207360c01b611c4a565b610eef67a6c9383b8046bd3a60c01b611c4a565b6000811115610f6257610f0c6724c3f8e507eee6e960c01b611c4a565b610f2067e6241ba824e3146660c01b611c4a565b610f3467c7360fa42e3fd03260c01b611c4a565b610f5d813373ffffffffffffffffffffffffffffffffffffffff16611cd390919063ffffffff16565b610f77565b610f76676f446bfc49ed422860c01b611c4a565b5b610f8b67dc4836612e8deb9660c01b611c4a565b610f9f678f9c054cc42d805260c01b611c4a565b826000015173ffffffffffffffffffffffffffffffffffffffff167ff4674ff1d2eeb23f031b1757f8e963150912f54b73fca8f8a74eeca6619a9fa584604001518560600151604051610ff39291906138b3565b60405180910390a292915050565b7f000000000000000000000000000000000000000000000000000000000000000081565b600061103b6759e73b445c2ff66260c01b611f11565b61104f676990941e70fcf90e60c01b611f11565b61106367a24f65691b78961060c01b611f11565b7f00000000000000000000000000000000000000000000000000000000000000007f5abac5de5d2dfc12a2a7131a872fcc1fb484d073667732c324ccdf13a4473838836000015184602001518560400151866060015187608001518860a001516040516020016110d9979695949392919061392c565b60405160208183030381529060405280519060200120604051602001611100929190613979565b604051602081830303815290604052805190602001209050919050565b60ff81565b7f000000000000000000000000000000000000000000000000000000000000000081565b60025481565b7f5abac5de5d2dfc12a2a7131a872fcc1fb484d073667732c324ccdf13a447383881565b6000611186675d56c8ab73cb088d60c01b611c4a565b61119a67e4bd31b208334bd660c01b611c4a565b6111ae673fcb267f92fd304a60c01b611c4a565b6111c26787bc477e98d7e09860c01b611c4a565b7f000000000000000000000000000000000000000000000000000000000000000073ffffffffffffffffffffffffffffffffffffffff163373ffffffffffffffffffffffffffffffffffffffff1614611250576040517f08c379a000000000000000000000000000000000000000000000000000000000815260040161124790613991565b60405180910390fd5b611264672428934e3bc422f760c01b611c4a565b61127867adb2e8f0d2553b2160c01b611c4a565b61128c67a679977a82032f4d60c01b611c4a565b6112a0676175b601819a4ad460c01b611c4a565b60008360400151116112e7576040517f08c379a00000000000000000000000000000000000000000000000000000000081526004016112de906139f5565b60405180910390fd5b6112fb6717e14e047ed54f4760c01b611c4a565b61130f67a9efd187c9bcec6760c01b611c4a565b611323677f1cd408956199fa60c01b611c4a565b6113376737f84e58cc49e7ac60c01b611c4a565b600083606001511161137e576040517f08c379a000000000000000000000000000000000000000000000000000000000815260040161137590613a32565b60405180910390fd5b611392675e0f3f1c2996706c60c01b611c4a565b6113a66796d292f0a762ae1060c01b611c4a565b6113ba674abe3559ee41e99660c01b611c4a565b6113c48383611f14565b506113d96785a906438a26533d60c01b611c4a565b6113ed6777c7ebc5c9fff0e860c01b611c4a565b6114ac333085606001517f000000000000000000000000000000000000000000000000000000000000000073ffffffffffffffffffffffffffffffffffffffff16637a4d3e5f6040518163ffffffff1660e01b8152600401602060405180830381865afa158015611462573d6000803e3d6000fd5b505050506040513d601f19601f820116820180604052508101906114869190613a96565b73ffffffffffffffffffffffffffffffffffffffff1661205e909392919063ffffffff16565b6114c06728c357d1939b702760c01b611c4a565b6114d46780fe0b03078d212460c01b611c4a565b82604001518360600151846020015173ffffffffffffffffffffffffffffffffffffffff167f3a83637f964beb187bcf716c158414aa0bc9d113526b04331e27fb9faa503d6f60405160405180910390a4611539678a068b77c046105e60c01b611c4a565b61154d67d07f1d17b1a9844c60c01b611c4a565b6001905092915050565b7efaf61068b5eb771d64783aba7a98ffebebf083ab00440364df46d0f1e01b3681565b7f478c2a0072f1c3844a5087e085de7994d756327389dc3178a2d7973692bcd45481565b60006115b467e4b85f5be46ad5ef60c01b611f11565b6115c86707dafa93c729202360c01b611f11565b6115dc674d74ef61e409e1e860c01b611f11565b7f00000000000000000000000000000000000000000000000000000000000000007f478c2a0072f1c3844a5087e085de7994d756327389dc3178a2d7973692bcd454836000015184602001518560400151866060015187608001518860a001516040516020016116529796959493929190613abd565b60405160208183030381529060405280519060200120604051602001611679929190613979565b604051602081830303815290604052805190602001209050919050565b6116aa67e40d63e0390f483160c01b611c4a565b6116be6779cc170cf6b5c33160c01b611c4a565b6116d2670d1ad7718163012d60c01b611c4a565b7f000000000000000000000000000000000000000000000000000000000000000073ffffffffffffffffffffffffffffffffffffffff16637317576560ff336040518363ffffffff1660e01b815260040161172e9291906135b4565b60006040518083038186803b15801561174657600080fd5b505afa15801561175a573d6000803e3d6000fd5b50505050611772674b3e62c43e7c7fb160c01b611c4a565b61178667442551cb85bd06ec60c01b611c4a565b61178f816120e7565b50565b6117a66761f854b3d99bc9af60c01b611c4a565b6117ba6794b8002d47f0668460c01b611c4a565b6117ce673a8af9012a0bbf6360c01b611c4a565b6117e26784f8992205009f6b60c01b611c4a565b600073ffffffffffffffffffffffffffffffffffffffff16826000015173ffffffffffffffffffffffffffffffffffffffff1603611855576040517f08c379a000000000000000000000000000000000000000000000000000000000815260040161184c906136b7565b60405180910390fd5b6118696779d371737b5e023a60c01b611c4a565b61187d674b13c4081de64ff260c01b611c4a565b6118916788460a03008c23f160c01b611c4a565b6118a567e095bed73e1ae5fe60c01b611c4a565b600073ffffffffffffffffffffffffffffffffffffffff16826020015173ffffffffffffffffffffffffffffffffffffffff1603611918576040517f08c379a000000000000000000000000000000000000000000000000000000000815260040161190f90613b04565b60405180910390fd5b61192c6799e423621349f39260c01b611c4a565b611940674f9ce39b779eb9d860c01b611c4a565b61195467189f5f2f5ec164c760c01b611c4a565b61196867ec76a0eea6ea191260c01b611c4a565b60008260400151116119af576040517f08c379a00000000000000000000000000000000000000000000000000000000081526004016119a690613b68565b60405180910390fd5b6119c3673d4d886167da550f60c01b611c4a565b6119d767a86405fe18eeafc160c01b611c4a565b6119eb67bd32218590b5a82e60c01b611c4a565b6119ff6776b118fc8c9bbbe660c01b611c4a565b6000826060015111611a46576040517f08c379a0000000000000000000000000000000000000000000000000000000008152600401611a3d906137bd565b60405180910390fd5b611a5a674e3016059176903160c01b611c4a565b611a6e676ef4d924a61ee09560c01b611c4a565b611a8267350f3adfe404628060c01b611c4a565b611a8c8282611dc7565b50611aa167c8f438b5b7e4f8ed60c01b611c4a565b611ab567172da53bbacc2f9460c01b611c4a565b611aea33308460400151856020015173ffffffffffffffffffffffffffffffffffffffff1661205e909392919063ffffffff16565b611afe67e784e397fb2117cc60c01b611c4a565b611b12676f4273c1eef8dde460c01b611c4a565b7f000000000000000000000000000000000000000000000000000000000000000073ffffffffffffffffffffffffffffffffffffffff1663f3fef3a3836000015184606001516040518363ffffffff1660e01b8152600401611b7592919061385f565b600060405180830381600087803b158015611b8f57600080fd5b505af1158015611ba3573d6000803e3d6000fd5b50505050611bbb67aa5164465df3d7ee60c01b611c4a565b611bcf67e96b38dbdb9c102d60c01b611c4a565b816000015173ffffffffffffffffffffffffffffffffffffffff16826020015173ffffffffffffffffffffffffffffffffffffffff167f921b7ea42a53e3ea06e7845a866e40f1b221044c2f6814f5286a3c4105a28e8984604001518560600151604051611c3e9291906138b3565b60405180910390a35050565b50565b611cce8363a9059cbb60e01b8484604051602401611c6c92919061385f565b604051602081830303815290604052907bffffffffffffffffffffffffffffffffffffffffffffffffffffffff19166020820180517bffffffffffffffffffffffffffffffffffffffffffffffffffffffff838183161783525050505061220b565b505050565b80471015611d16576040517f08c379a0000000000000000000000000000000000000000000000000000000008152600401611d0d90613bcc565b60405180910390fd5b60008273ffffffffffffffffffffffffffffffffffffffff1682604051611d3c90613c0a565b60006040518083038185875af1925050503d8060008114611d79576040519150601f19603f3d011682016040523d82523d6000602084013e611d7e565b606091505b5050905080611dc2576040517f08c379a0000000000000000000000000000000000000000000000000000000008152600401611db990613c14565b60405180910390fd5b505050565b6000611ddd67c9f0a304b90ed6ea60c01b611f11565b611df167df7bb6f98a3e444e60c01b611f11565b611e0567fee4d34d8654cb2660c01b611f11565b611e1283608001516122d2565b611e26675f326c4feace1df660c01b611f11565b611e3a67653582b06ac551b860c01b611f11565b6000611e458461159e565b9050611e5b67f85228f21aca385760c01b611f11565b611e6f673e6add40f7c1342160c01b611f11565b6000611e7b828561237c565b9050611e91677876e8571c4b755f60c01b611f11565b611ea567ffcfe0700fbd8f9c60c01b611f11565b7fbfe69befb5499710569ab2f725ad1556881ca2095b5c2fa2039b61590b4b67c28582604051611ed6929190613c78565b60405180910390a1611ef267dd66a023f569441f60c01b611f11565b611f0667e1d286bc0ea283d060c01b611f11565b809250505092915050565b50565b6000611f2a67419a22985d1f060460c01b611f11565b611f3e67017e3a1b000f557060c01b611f11565b611f5267f1f22a1d1eea760e60c01b611f11565b611f5f83608001516122d2565b611f7367741ce78abd3bbb3160c01b611f11565b611f8767e7dc05a30c2f087160c01b611f11565b6000611f9284611025565b9050611fa86745d31a7963fa7a5c60c01b611f11565b611fbc67216dac95e4df605160c01b611f11565b6000611fc8828561237c565b9050611fde6760700c4ffe69e78060c01b611f11565b611ff26798d1f54766f31fcc60c01b611f11565b7f2263233f215185b1704ddb71954cfcd12cff31e22955d7e510d872228cc635538582604051612023929190613ccf565b60405180910390a161203f67e72de2fecf3063bf60c01b611f11565b61205367d5445ea6165895b260c01b611f11565b809250505092915050565b6120e1846323b872dd60e01b85858560405160240161207f93929190613d39565b604051602081830303815290604052907bffffffffffffffffffffffffffffffffffffffffffffffffffffffff19166020820180517bffffffffffffffffffffffffffffffffffffffffffffffffffffffff838183161783525050505061220b565b50505050565b6120fb67b1a73ffa6ab31e7a60c01b611f11565b61210f67460b443f6854d0d960c01b611f11565b6121236711b2cf336c05eb0860c01b611f11565b6121376701d8ae3bfe58ea6560c01b611f11565b6000811161217a576040517f08c379a000000000000000000000000000000000000000000000000000000000815260040161217190613d64565b60405180910390fd5b61218e6768b3a8b33cb5cd2360c01b611f11565b6121a2673357a5922466f81660c01b611f11565b806001819055506121bd67b0d8209bc240290760c01b611f11565b6121d16743ecfa7f7f0d2c6960c01b611f11565b7f4741be851e118f36d80db0b209d107ebf4f0da083d3ae2d70ab02308d5cf6437816040516122009190613117565b60405180910390a150565b600061226d826040518060400160405280602081526020017f5361666545524332303a206c6f772d6c6576656c2063616c6c206661696c65648152508573ffffffffffffffffffffffffffffffffffffffff166129909092919063ffffffff16565b90506000815111156122cd578080602001905181019061228d9190613dc8565b6122cc576040517f08c379a00000000000000000000000000000000000000000000000000000000081526004016122c390613df4565b60405180910390fd5b5b505050565b6122e667b962b5695addfa4b60c01b611f11565b6122fa670ee52c0e1806ad4460c01b611f11565b61230e67b4ffb020c006209d60c01b611f11565b61232267db6ad9e8a06bd46d60c01b611f11565b42811015612365576040517f08c379a000000000000000000000000000000000000000000000000000000000815260040161235c90613e58565b60405180910390fd5b61237967494978d882cdf0af60c01b611f11565b50565b60006123926741341fd9e72f02e560c01b611f11565b6123a6674325c3b859ef2d1960c01b611f11565b6123ba67e1eefab7c92e8c0560c01b611f11565b6123c3836129a8565b6123d767338a0d97ffa0668360c01b611f11565b6123eb6780867c5bacfd110060c01b611f11565b600082519050612405675d77728388ee490060c01b611f11565b6124196740cc9f8ea90ff81a60c01b611f11565b60008167ffffffffffffffff8111156124355761243461317d565b5b6040519080825280602002602001820160405280156124635781602001602082028036833780820191505090505b50905061247a67d41a48aa078b790960c01b611f11565b61248e67308238b233c3065a60c01b611f11565b60005b828110156127f7576124ad676d170bb352a330f760c01b611f11565b6124c16719c5cb06409f531560c01b611f11565b60006125316124cf88612ac1565b8784815181106124e2576124e1613e96565b5b60200260200101516000015188858151811061250157612500613e96565b5b6020026020010151602001518986815181106125205761251f613e96565b5b602002602001015160400151612af1565b905061254767f8260461a79711cf60c01b611f11565b61255b6755605283b1dbf97a60c01b611f11565b61256f67c7139aafb689509260c01b611f11565b61257881612b1c565b6125b7576040517f08c379a00000000000000000000000000000000000000000000000000000000081526004016125ae90613eac565b60405180910390fd5b6125cb676825a19db83b9f6e60c01b611f11565b6125df67079653412edc9d0a60c01b611f11565b6125f36764944cd5300dd39f60c01b611f11565b612607672078bdbac781573b60c01b611f11565b600360008273ffffffffffffffffffffffffffffffffffffffff1673ffffffffffffffffffffffffffffffffffffffff16815260200190815260200160002060009054906101000a900460ff1615612694576040517f08c379a000000000000000000000000000000000000000000000000000000000815260040161268b90613f10565b60405180910390fd5b6126a86735dfe05a2e050ba560c01b611f11565b6126bc67978ad429b9b7841860c01b611f11565b808383815181106126d0576126cf613e96565b5b602002602001019073ffffffffffffffffffffffffffffffffffffffff16908173ffffffffffffffffffffffffffffffffffffffff168152505061271e672351f0679d65327060c01b611f11565b6001600360008373ffffffffffffffffffffffffffffffffffffffff1673ffffffffffffffffffffffffffffffffffffffff16815260200190815260200160002060006101000a81548160ff02191690831515021790555061278a67b8c61b8969b3d29d60c01b611f11565b61279e670113f115c8d37cb760c01b611f11565b7f5328106a814c8291a29a1f5484ee270918b4f541705e2c0f59836a83216585c887826040516127cf929190613f4e565b60405180910390a16127eb67f4cf11fa02b6e9f360c01b611f11565b81600101915050612491565b5061280c676ecfd2c00138b01060c01b611f11565b61282067c4a0b7c2ca628cca60c01b611f11565b61283467535fd2bbedd6e1dc60c01b611f11565b600154821015612879576040517f08c379a000000000000000000000000000000000000000000000000000000000815260040161287090613f6e565b60405180910390fd5b61288d67b84085b5dfa3077b60c01b611f11565b6128a1672944d486ba35e7c760c01b611f11565b6128b5672ac1b2929dadaa4a60c01b611f11565b60005b8281101561295c576128d4671a712dca7a56351060c01b611f11565b600360008383815181106128eb576128ea613e96565b5b602002602001015173ffffffffffffffffffffffffffffffffffffffff1673ffffffffffffffffffffffffffffffffffffffff16815260200190815260200160002060006101000a81549060ff02191690556129516722791185efdabdb460c01b611f11565b8060010190506128b8565b5061297167e95fb9043d6bc46060c01b611f11565b612985674db4846aeca3818460c01b611f11565b819250505092915050565b606061299f8484600085612bfb565b90509392505050565b6129bc6717cbc85dd6e6af5360c01b611f11565b6129d0674fb635c5f4eccaa660c01b611f11565b6129e467641f3d23c225802f60c01b611f11565b6129f867036448e7c0d1199a60c01b611f11565b612a0181612cc8565b15612a41576040517f08c379a0000000000000000000000000000000000000000000000000000000008152600401612a3890613fd2565b60405180910390fd5b612a556750e97e063a3b61b060c01b611f11565b612a6967f5ef6fb765defd7260c01b611f11565b600160008083815260200190815260200160002060006101000a81548160ff021916908315150217905550612aa867f3d8f6553b8a78c360c01b611f11565b600260008154612ab790614036565b9190508190555050565b600081604051602001612ad49190614054565b604051602081830303815290604052805190602001209050919050565b6000806000612b0287878787612d2d565b91509150612b0f81612e0f565b8192505050949350505050565b6000612b32676c4cdc40cb48366860c01b611c4a565b612b4667fb945cdc52c11df360c01b611c4a565b612b5a67f6d2c849186c20fd60c01b611c4a565b7f000000000000000000000000000000000000000000000000000000000000000073ffffffffffffffffffffffffffffffffffffffff1663facd743b836040518263ffffffff1660e01b8152600401612bb391906135d7565b602060405180830381865afa158015612bd0573d6000803e3d6000fd5b505050506040513d601f19601f82011682018060405250810190612bf49190613dc8565b9050919050565b606082471015612c40576040517f08c379a0000000000000000000000000000000000000000000000000000000008152600401612c379061408b565b60405180910390fd5b6000808673ffffffffffffffffffffffffffffffffffffffff168587604051612c6991906140ef565b60006040518083038185875af1925050503d8060008114612ca6576040519150601f19603f3d011682016040523d82523d6000602084013e612cab565b606091505b5091509150612cbc87838387612f75565b92505050949350505050565b6000612cde67c14c35cab8ca6c6260c01b611f11565b612cf2679c89b17682e830bd60c01b611f11565b612d0667746527a795e73b6b60c01b611f11565b60008083815260200190815260200160002060009054906101000a900460ff169050919050565b6000807f7fffffffffffffffffffffffffffffff5d576e7357a4501ddfe92f46681b20a08360001c1115612d68576000600391509150612e06565b600060018787878760405160008152602001604052604051612d8d949392919061410d565b6020604051602081039080840390855afa158015612daf573d6000803e3d6000fd5b505050602060405103519050600073ffffffffffffffffffffffffffffffffffffffff168173ffffffffffffffffffffffffffffffffffffffff1603612dfd57600060019250925050612e06565b80600092509250505b94509492505050565b60006004811115612e2357612e22614136565b5b816004811115612e3657612e35614136565b5b0315612f725760016004811115612e5057612e4f614136565b5b816004811115612e6357612e62614136565b5b03612ea3576040517f08c379a0000000000000000000000000000000000000000000000000000000008152600401612e9a9061414c565b60405180910390fd5b60026004811115612eb757612eb6614136565b5b816004811115612eca57612ec9614136565b5b03612f0a576040517f08c379a0000000000000000000000000000000000000000000000000000000008152600401612f019061418a565b60405180910390fd5b60036004811115612f1e57612f1d614136565b5b816004811115612f3157612f30614136565b5b03612f71576040517f08c379a0000000000000000000000000000000000000000000000000000000008152600401612f68906141c8565b60405180910390fd5b5b50565b60608315612fd7576000835103612fcf57612f8f85612fea565b612fce576040517f08c379a0000000000000000000000000000000000000000000000000000000008152600401612fc59061422c565b60405180910390fd5b5b829050612fe2565b612fe1838361300d565b5b949350505050565b6000808273ffffffffffffffffffffffffffffffffffffffff163b119050919050565b6000825111156130205781518083602001fd5b806040517f08c379a0000000000000000000000000000000000000000000000000000000008152600401613054919061426a565b60405180910390fd5b60018060a01b038116811461307157600080fd5b50565b6000813590506130838161305d565b919050565b6000806040838503121561309b57600080fd5b82356130a68161305d565b8092505060208301356130b88161305d565b809150509250929050565b600060208201905060ff8316825292915050565b6000602082840312156130e957600080fd5b8135905092915050565b6000602082019050821515825292915050565b600060208201905082825292915050565b600060208201905082825292915050565b60006020808301818452808551808352604086019150838701925060005b8181101561316f5760018060a01b03845116835284830192508484019350600181019050613146565b505080935050505092915050565b634e487b7160e01b600052604160045260246000fd5b6000604051905060c0810181811067ffffffffffffffff821117156131bb576131ba61317d565b5b806040525090565b600060405190506060810181811067ffffffffffffffff821117156131eb576131ea61317d565b5b806040525090565b60006040519050601f19601f830116810181811067ffffffffffffffff821117156132215761322061317d565b5b8060405250919050565b600060c0828403121561323d57600080fd5b613245613193565b905081356132528161305d565b8082525060208201356132648161305d565b8060208301525060408201356040820152606082013560608201526080820135608082015260a082013560a082015292915050565b600067ffffffffffffffff8211156132b4576132b361317d565b5b60208260051b019050919050565b600082601f8301126132d357600080fd5b813560206132e86132e383613299565b6131f3565b80838252828201915060608381860288010194508785111561330957600080fd5b8387015b858110156133695781818a0312156133255760008081fd5b61332d6131c3565b813560ff8116811461333f5760008081fd5b8082525085820135868201526040808301358183015250808552508484019350818101905061330d565b50508094505050505092915050565b60008060e0838503121561338b57600080fd5b613395848461322b565b915060c083013567ffffffffffffffff8111156133b157600080fd5b6133bd858286016132c2565b9150509250929050565b600060208201905060018060a01b038316825292915050565b600060c082840312156133f257600080fd5b6133fa613193565b9050813567ffffffffffffffff8082111561341457600080fd5b818401915084601f83011261342857600080fd5b813560208282111561343d5761343c61317d565b5b61344f81601f19601f850116016131f3565b9250818352868183860101111561346557600080fd5b81818501828501376000818385010152828552613483818701613074565b818601525050505060408201356040820152606082013560608201526080820135608082015260a082013560a082015292915050565b6000602082840312156134cb57600080fd5b813567ffffffffffffffff8111156134e257600080fd5b6134ee848285016133e0565b91505092915050565b600060208201905060018060a01b038316825292915050565b6000806040838503121561352357600080fd5b823567ffffffffffffffff8082111561353b57600080fd5b613547868387016133e0565b9350602085013591508082111561355d57600080fd5b5061356a858286016132c2565b9150509250929050565b600060c0828403121561358657600080fd5b613590838361322b565b905092915050565b6000602082840312156135aa57600080fd5b8135905092915050565b600060408201905060ff8416825260018060a01b03831660208301529392505050565b600060208201905060018060a01b038316825292915050565b60006020828403121561360257600080fd5b8151905092915050565b6000602080838503121561361f57600080fd5b825167ffffffffffffffff81111561363657600080fd5b808401905084601f82011261364a57600080fd5b805161365d61365882613299565b6131f3565b808282528482019150848360051b85010192508783111561367d57600080fd5b84840193505b828410156136a95783516136968161305d565b8083525084820191508484019350613683565b809550505050505092915050565b60208152602460208201527f5061796d656e74733a20496e636f72726563742072656365697665722061646460408201527f726573730000000000000000000000000000000000000000000000000000000060608201526000608082019050919050565b60208152603a60208201527f5061796d656e74733a205061796d656e7420746f6b656e20616464726573732060408201527f73686f756c642062652030207768656e207573696e672045544800000000000060608201526000608082019050919050565b60208152601e60208201527f5061796d656e74733a20496e636f72726563742045544820616d6f756e74000060408201526000606082019050919050565b60208152602b60208201527f5061796d656e74733a20496e636f72726563742070757273636861736564207460408201527f6f6b656e20616d6f756e7400000000000000000000000000000000000000000060608201526000608082019050919050565b60208152601f60208201527f5061796d656e74733a20496e73756666696369656e74204554482073656e740060408201526000606082019050919050565b600060408201905060018060a01b03841682528260208301529392505050565b634e487b7160e01b600052601160045260246000fd5b6000828210156138a8576138a761387f565b5b828203905092915050565b60006040820190508382528260208301529392505050565b60005b838110156138e95780820151818401526020810190506138ce565b838111156138f8576000848401525b50505050565b600081518084526139168160208601602086016138cb565b6020601f19601f83011685010191505092915050565b87815260e06020820152600061394560e08301896138fe565b905060018060a01b03871660408301528560608301528460808301528360a08301528260c083015298975050505050505050565b82815281602082015260006040820190509392505050565b60208152602b60208201527f5061796d656e74733a204f6e6c79206d61737465722073746174696f6e20636160408201527f6e2063616c6c207468697300000000000000000000000000000000000000000060608201526000608082019050919050565b602081526020808201527f5061796d656e74733a20496e636f727265637420737570706c79206c696d697460408201526000606082019050919050565b60208152602160208201527f5061796d656e74733a20496e636f7272656374204342434f494e20616d6f756e60408201527f740000000000000000000000000000000000000000000000000000000000000060608201526000608082019050919050565b600060208284031215613aa857600080fd5b8151613ab38161305d565b8091505092915050565b600060e08201905088825260018060a01b0380891660208401528088166040840152508560608301528460808301528360a08301528260c083015298975050505050505050565b60208152602960208201527f5061796d656e74733a20496e636f7272656374207061796d656e7420746f6b6560408201527f6e2061646472657373000000000000000000000000000000000000000000000060608201526000608082019050919050565b60208152602860208201527f5061796d656e74733a20496e636f7272656374207061796d656e7420746f6b6560408201527f6e20616d6f756e7400000000000000000000000000000000000000000000000060608201526000608082019050919050565b60208152601d60208201527f416464726573733a20696e73756666696369656e742062616c616e636500000060408201526000606082019050919050565b6000819050919050565b60208152603a60208201527f416464726573733a20756e61626c6520746f2073656e642076616c75652c207260408201527f6563697069656e74206d6179206861766520726576657274656400000000000060608201526000608082019050919050565b600060e08201905060018060a01b038085511683528060208601511660208401525060408401516040830152606084015160608301526080840151608083015260a084015160a08301528260c08301529392505050565b604081526000835160c06040840152613cec6101008401826138fe565b905060018060a01b03602086015116606084015260408501516080840152606085015160a0840152608085015160c084015260a085015160e0840152809150508260208301529392505050565b600060608201905060018060a01b038086168352808516602084015250826040830152949350505050565b60208152603b60208201527f56616c696461746f723a204d696e20766572696669636174696f6e7320636f7560408201527f6e742073686f756c642062652067726561746572207468616e2030000000000060608201526000608082019050919050565b600060208284031215613dda57600080fd5b81518015158114613dea57600080fd5b8091505092915050565b60208152602a60208201527f5361666545524332303a204552433230206f7065726174696f6e20646964206e60408201527f6f7420737563636565640000000000000000000000000000000000000000000060608201526000608082019050919050565b60208152601b60208201527f56616c696461746f723a20446561646c696e652065787069726564000000000060408201526000606082019050919050565b634e487b7160e01b600052603260045260246000fd5b60208152602a60208201527f56616c696461746f723a205369676e65722061646472657373206973206e6f7460408201527f2076616c696461746f720000000000000000000000000000000000000000000060608201526000608082019050919050565b60208152601f60208201527f56616c696461746f723a204475706c6963617465642076616c696461746f720060408201526000606082019050919050565b600060408201905083825260018060a01b03831660208301529392505050565b60208152602f60208201527f56616c696461746f723a20496e73756666696369656e74206e756d626572206f60408201527f6620766572696669636174696f6e73000000000000000000000000000000000060608201526000608082019050919050565b60208152602160208201527f56616c696461746f723a204861736820616c72656164792076616c696461746560408201527f640000000000000000000000000000000000000000000000000000000000000060608201526000608082019050919050565b6000801982036140495761404861387f565b5b600182019050919050565b7f19457468657265756d205369676e6564204d6573736167653a0a333200000000815281601c8201526000603c8201905092915050565b60208152602660208201527f416464726573733a20696e73756666696369656e742062616c616e636520666f60408201527f722063616c6c000000000000000000000000000000000000000000000000000060608201526000608082019050919050565b600082516141018184602087016138cb565b80830191505092915050565b600060808201905085825260ff8516602083015283604083015282606083015295945050505050565b634e487b7160e01b600052602160045260246000fd5b60208152601860208201527f45434453413a20696e76616c6964207369676e6174757265000000000000000060408201526000606082019050919050565b60208152601f60208201527f45434453413a20696e76616c6964207369676e6174757265206c656e6774680060408201526000606082019050919050565b60208152602260208201527f45434453413a20696e76616c6964207369676e6174757265202773272076616c60408201527f756500000000000000000000000000000000000000000000000000000000000060608201526000608082019050919050565b60208152601d60208201527f416464726573733a2063616c6c20746f206e6f6e2d636f6e747261637400000060408201526000606082019050919050565b60208152600061427d60208301846138fe565b90509291505056fea26469706673582212209b457d781c820702113113562277f92166b322798a9b7018092a1db8c4d7906a64736f6c634300080d0033",
  "linkReferences": {},
  "deployedLinkReferences": {}
}